{
  "_format": "hh-sol-artifact-1",
  "contractName": "Groth16Verifier",
  "sourceName": "Verifier_zkp_nb100_tb5_m20.sol",
  "abi": [
    {
      "inputs": [
        {
          "internalType": "uint256[2]",
          "name": "_pA",
          "type": "uint256[2]"
        },
        {
          "internalType": "uint256[2][2]",
          "name": "_pB",
          "type": "uint256[2][2]"
        },
        {
          "internalType": "uint256[2]",
          "name": "_pC",
          "type": "uint256[2]"
        },
        {
          "internalType": "uint256[14]",
          "name": "_pubSignals",
          "type": "uint256[14]"
        }
      ],
      "name": "verifyProof",
      "outputs": [
        {
          "internalType": "bool",
          "name": "",
          "type": "bool"
        }
      ],
      "stateMutability": "view",
      "type": "function"
    }
  ],
  "bytecode": "0x6080806040523461001657610cb3908161001c8239f35b600080fdfe6080604052600436101561001257600080fd5b6000803560e01c638d15f88f1461002857600080fd5b34610125576102c03660031901126101255761004336610128565b3660c411610121576100543661013a565b90366102c41161011d57602092916101199161040060405261007861010435610148565b61008461012435610148565b61009061014435610148565b61009c61016435610148565b6100a861018435610148565b6100b46101a435610148565b6100c06101c435610148565b6100cc6101e435610148565b6100d861020435610148565b6100e461022435610148565b6100f061024435610148565b6100fc61026435610148565b61010861028435610148565b6101146102a435610148565b610905565b8152f35b8280fd5b5080fd5b80fd5b9060049160441161013557565b600080fd5b9060c4916101041161013557565b7f30644e72e131a029b85045b68181585d2833e84879b9709143e1f593f0000001111561017157565b6000805260206000f35b604051907f14bd98b0a67134cbb5dff0d73a4dd54ce9fa0ec2fb5c509bcf56e2067aab705d82527f1543c680e5b57fce7ea772cec6d255d19a44b6c7ee43255339f5c12febfbc7e56020830152604082019081526107cf196040836060816007855a01fa156101715760409260066080939284938451905260a05160608401525a01fa1561017157565b604051907f18cfaab082581d1ee2aa0678f8275c362b700b955676a72ae6a3c7a2cdc189e082527f01298ceb9e3bcdfc847f2b665509649ddb11db91ea96e32ecdf7b78b2f7fb99e6020830152604082019081526107cf196040836060816007855a01fa156101715760409260066080939284938451905260a05160608401525a01fa1561017157565b604051907f216ebe9f73f28c29907ca46279723ad45e41195bd181de732387ab0d1595d71f82527edd5efec8bdec9a82a7792e78bc416ab976d7d96986eda6cd7d986a4f814fc86020830152604082019081526107cf196040836060816007855a01fa156101715760409260066080939284938451905260a05160608401525a01fa1561017157565b604051907f1bb3a3a2115edd4b97423b0c9c10b6b455bc00fa468184fec7ed68229530d52e82527f14f5d36c3f7adb685c79802ad4d3e42302eecc2a5fc52b3752f3d11d95695d856020830152604082019081526107cf196040836060816007855a01fa156101715760409260066080939284938451905260a05160608401525a01fa1561017157565b604051907f07e3cabbc05b25e7c1159c98be857119e666205a246748e76cae00b8057f88e882527f174d539cf49bb0088494d7d867f6f359d7984896987b2f6a49dda57180de07756020830152604082019081526107cf196040836060816007855a01fa156101715760409260066080939284938451905260a05160608401525a01fa1561017157565b604051907f0586c50acf7304daf088e354408d94b5b86ee96949732e7c76a10d3ffa9c3fb482527f08beffdb35160d156e397edff54c92e0e32cb3ed329468b0a8dc5dbc885082156020830152604082019081526107cf196040836060816007855a01fa156101715760409260066080939284938451905260a05160608401525a01fa1561017157565b604051907f0c4c897fc6a51e8381a397ce93daf348f77a0441a7d08d04b6e289dc60c4a71482527f1addd5d93df47c7a465a08d48659bbc005f1f30ecd9684023da364c7d91324e26020830152604082019081526107cf196040836060816007855a01fa156101715760409260066080939284938451905260a05160608401525a01fa1561017157565b604051907f20f4d8212218b77e9892c3b49b4ea087ae229dbbb21ed5438d392569155286b482527f0449f6fc645ec6fb94b62126f106ecf6766911491501f1aa127a4c09a68fa5f46020830152604082019081526107cf196040836060816007855a01fa156101715760409260066080939284938451905260a05160608401525a01fa1561017157565b604051907f19cf0d20461823aff42e8350b4720713d497e5880c1c8c363f837bbd702447da82527f0211d3b76257f358784b4cb9235f9ce44593269242febffb049b2311ec1ce16c6020830152604082019081526107cf196040836060816007855a01fa156101715760409260066080939284938451905260a05160608401525a01fa1561017157565b604051907f0c383d2276b61ec21d384c80e60f50b9dce56a56f0bd7204b23c6c26c15ddefa82527f05c9fef0a96ffb70885e63d7a45db4aef69c2a9323ae1a57ac6fc2b4453d57936020830152604082019081526107cf196040836060816007855a01fa156101715760409260066080939284938451905260a05160608401525a01fa1561017157565b604051907e60c5a756c6753fd8216bc8d0a8357175878214c74b59e6e904fc208c97f83f82527f12ba4e47b88c15aaa5e7bab8d96d0d3474ae0d8973b2bd2ebea3645af8042c086020830152604082019081526107cf196040836060816007855a01fa156101715760409260066080939284938451905260a05160608401525a01fa1561017157565b604051907f14fcf14bb7b2c611f0c812b3ef5af0f6ab55ca9ec8382a14caf99933cb967dca82527f28e48de7b529ae64ace93517023dcbc3bad4c7db0b7ae14414a54ae0da9b214d6020830152604082019081526107cf196040836060816007855a01fa156101715760409260066080939284938451905260a05160608401525a01fa1561017157565b604051907f21ff79ba214c6b497a15644882bc8f2d7c0a358abb46c950a4e94de535b6756782527f2505d3a5e72a32bb94b1cb4819223131cd84828e7698a0bdc9c2b5c457166a0b6020830152604082019081526107cf196040836060816007855a01fa156101715760409260066080939284938451905260a05160608401525a01fa1561017157565b604051907f1789387b50bddbf7223831d66b8cc53deb6c9a7705a5a5d61e6d5922af67a7c982527f060908113a785450bb3ad5e9425c296169b707c0d4c6a90d735a6fc24c16da7a6020830152604082019081526107cf196040836060816007855a01fa156101715760409260066080939284938451905260a05160608401525a01fa1561017157565b6020907f176478052f1bec108d4485117a4948a20a50a9b519e87f68e02b3cd07862d1546080527f093cfc8177928f25731553ac0f143d6c2d8c2d65f560c095cbd9d41e0abddd1760a05261095c6101043561017b565b61096861012435610205565b6109746101443561028f565b61098061016435610318565b61098c610184356103a2565b6109986101a43561042c565b6109a46101c4356104b6565b6109b06101e435610540565b6109bc610204356105ca565b6109c861022435610654565b6109d4610244356106de565b6109e061026435610767565b6109ec610284356107f1565b6109f86102a43561087b565b61010092818492358352837f30644e72e131a029b85045b68181585d97816a916871ca8d3c208c16d87cfd479101358103066101205260443561014052606435610160526084356101805260a4356101a0527f1558ca17177edffbd37145abc36d4868d4e8fd7f0064971727ec8af561e87d646101c0527f0af533e07e568dfd457dc5b6803a92b0552907f7405e9e70b8af9038681de6836101e0527f0d35864a9e4adc5579a05134789f11724afdfbe5be3e6d372b2ee3e5a75fcde7610200527f14727c80b65573f804dbc7ce08e6d4b1b60dcc85763548bf70b023fa7355c835610220527f1a18454f7efeb9195180baafa65d56f9ac0a4c325dd396c3bce7ea3524f609d4610240527f1ac5a32ccf36b0e789c153a1ccb9d5bd1f4619f98495cdc223b65cb9f2dea58c610260526080516102805260a0516102a0527f198e9393920d483a7260bfb731fb5d25f1aa493335a9e71297e485b7aef312c26102c0527f1800deef121f1e76426a00665e5c4479674322d4f75edadd46debd5cd992f6ed6102e05282610300917f090689d0585ff075ec9e99ad690c3395bc4b313370b38ef355acdadcd122975b83527f12c85ea5db8c6deb4aab71808dcb408fe3d1e7690c43d37b4ce6cc0166fa7daa610320528035610340520135610360527f2a4f8462a742b4a69336023eafe5aeeca453449c6d2760e6d77505fd3d67e366610380527f0f6bb888f57904ece4e0b6fc012a3249c4ba944521ef2015744b47018409e3636103a0527f2873856c6c31846ef27fbb6da8bac208361695e41a353514bc0a653603ff2c1d6103c0527f27f9edfdd970368bb4f4ad2b06f068d5d121c639b690f51cfceaffd7aa82fff06103e0528160086107cf195a01fa9051169056fea2646970667358221220da99954cbce95ed19cb22afd41ad9ba4f60992389713541e4dc55ecb6926741364736f6c63430008140033",
  "linkReferences": {},
  "deployedLinkReferences": {}
}