{
  "_format": "hh-sol-artifact-1",
  "contractName": "PriMEDeal",
  "sourceName": "PriMEDeal.sol",
  "abi": [
    {
      "anonymous": false,
      "inputs": [
        {
          "indexed": true,
          "internalType": "bytes32",
          "name": "sid",
          "type": "bytes32"
        },
        {
          "indexed": false,
          "internalType": "address",
          "name": "buyer",
          "type": "address"
        }
      ],
      "name": "Bought",
      "type": "event"
    },
    {
      "anonymous": false,
      "inputs": [
        {
          "indexed": true,
          "internalType": "bytes32",
          "name": "sid",
          "type": "bytes32"
        },
        {
          "indexed": false,
          "internalType": "address",
          "name": "seller",
          "type": "address"
        }
      ],
      "name": "Listed",
      "type": "event"
    },
    {
      "inputs": [
        {
          "internalType": "bytes32",
          "name": "sid",
          "type": "bytes32"
        },
        {
          "internalType": "uint256[2]",
          "name": "a",
          "type": "uint256[2]"
        },
        {
          "internalType": "uint256[2][2]",
          "name": "b",
          "type": "uint256[2][2]"
        },
        {
          "internalType": "uint256[2]",
          "name": "c",
          "type": "uint256[2]"
        },
        {
          "internalType": "uint256[14]",
          "name": "input",
          "type": "uint256[14]"
        }
      ],
      "name": "buy",
      "outputs": [],
      "stateMutability": "payable",
      "type": "function"
    },
    {
      "inputs": [
        {
          "internalType": "bytes32",
          "name": "sid",
          "type": "bytes32"
        }
      ],
      "name": "list",
      "outputs": [],
      "stateMutability": "payable",
      "type": "function"
    },
    {
      "inputs": [
        {
          "internalType": "bytes32",
          "name": "",
          "type": "bytes32"
        }
      ],
      "name": "listings",
      "outputs": [
        {
          "internalType": "address payable",
          "name": "seller",
          "type": "address"
        },
        {
          "internalType": "uint256",
          "name": "v",
          "type": "uint256"
        },
        {
          "internalType": "uint256",
          "name": "d",
          "type": "uint256"
        },
        {
          "internalType": "bool",
          "name": "active",
          "type": "bool"
        }
      ],
      "stateMutability": "view",
      "type": "function"
    },
    {
      "inputs": [
        {
          "internalType": "uint256[2]",
          "name": "_pA",
          "type": "uint256[2]"
        },
        {
          "internalType": "uint256[2][2]",
          "name": "_pB",
          "type": "uint256[2][2]"
        },
        {
          "internalType": "uint256[2]",
          "name": "_pC",
          "type": "uint256[2]"
        },
        {
          "internalType": "uint256[14]",
          "name": "_pubSignals",
          "type": "uint256[14]"
        }
      ],
      "name": "verifyProof",
      "outputs": [
        {
          "internalType": "bool",
          "name": "",
          "type": "bool"
        }
      ],
      "stateMutability": "view",
      "type": "function"
    }
  ],
  "bytecode": "0x6080806040523461001657610ff3908161001c8239f35b600080fdfe6080604052600436101561001257600080fd5b6000803560e01c90816313d49a8b1461005a57508063637b07be146100555780638d15f88f146100505763c18b8db41461004b57600080fd5b6103ad565b6102a0565b6101db565b6020366003190112610165576004358082528160205260ff6003604084200154166101365761010761008a610408565b3381523460208201523460408201526100a66060820160019052565b6100ba836000526000602052604060002090565b600360609160018060a01b038451166bffffffffffffffffffffffff60a01b825416178155602084015160018201556040840151600282015501910151151560ff80198354169116179055565b6040513381527fc616acc9e7662c7cee0dde81de57fcb2be89556bfa3c93549a2c48a06fff9d1690602090a280f35b62461bcd60e51b6080526020608452600e60a4526d105b1c9958591e481b1a5cdd195960921b60c45260646080fd5b80fd5b9060249160641161017557565b600080fd5b9060e4916101241161017557565b9060049160441161017557565b9060c4916101041161017557565b9060649160e41161017557565b9060449160c41161017557565b90610124916102e41161017557565b90610104916102c41161017557565b6102e0366003190112610175576101f136610168565b6101fa366101a3565b6102033661017a565b9061020d366101bd565b926004356000526000602052604060002060ff6003820154161561026e57600101543414610fa15760405162461bcd60e51b8152602060048201526011602482015270125b98dbdc9c9958dd081c185e5b595b9d607a1b6044820152606490fd5b60405162461bcd60e51b815260206004820152600a6024820152694e6f742061637469766560b01b6044820152606490fd5b34610175576102c0366003190112610175576103a46102be36610188565b6102c7366101b0565b6102d036610195565b6102d9366101cc565b916040519361038085016040526102f0843561043e565b6102fd602085013561043e565b61030a604085013561043e565b610317606085013561043e565b610324608085013561043e565b61033160a085013561043e565b61033e60c085013561043e565b61034b60e085013561043e565b61035961010085013561043e565b61036761012085013561043e565b61037561014085013561043e565b61038361016085013561043e565b61039161018085013561043e565b61039f6101a085013561043e565b610bd1565b60005260206000f35b346101755760203660031901126101755760043560005260006020526080604060002060018060a01b038154169060018101549060ff6003600283015492015416916040519384526020840152604083015215156060820152f35b604051906080820182811067ffffffffffffffff82111761042857604052565b634e487b7160e01b600052604160045260246000fd5b7f30644e72e131a029b85045b68181585d2833e84879b9709143e1f593f0000001111561046757565b6000805260206000f35b604080517f14bd98b0a67134cbb5dff0d73a4dd54ce9fa0ec2fb5c509bcf56e2067aab705d81527f1543c680e5b57fce7ea772cec6d255d19a44b6c7ee43255339f5c12febfbc7e560208201528082019384526107cf1991816060816007865a01fa1561046757600660809260409585519052602085015160608401525a01fa1561046757565b604080517f18cfaab082581d1ee2aa0678f8275c362b700b955676a72ae6a3c7a2cdc189e081527f01298ceb9e3bcdfc847f2b665509649ddb11db91ea96e32ecdf7b78b2f7fb99e60208201528082019384526107cf1991816060816007865a01fa1561046757600660809260409585519052602085015160608401525a01fa1561046757565b604080517f216ebe9f73f28c29907ca46279723ad45e41195bd181de732387ab0d1595d71f81527edd5efec8bdec9a82a7792e78bc416ab976d7d96986eda6cd7d986a4f814fc860208201528082019384526107cf1991816060816007865a01fa1561046757600660809260409585519052602085015160608401525a01fa1561046757565b604080517f1bb3a3a2115edd4b97423b0c9c10b6b455bc00fa468184fec7ed68229530d52e81527f14f5d36c3f7adb685c79802ad4d3e42302eecc2a5fc52b3752f3d11d95695d8560208201528082019384526107cf1991816060816007865a01fa1561046757600660809260409585519052602085015160608401525a01fa1561046757565b604080517f07e3cabbc05b25e7c1159c98be857119e666205a246748e76cae00b8057f88e881527f174d539cf49bb0088494d7d867f6f359d7984896987b2f6a49dda57180de077560208201528082019384526107cf1991816060816007865a01fa1561046757600660809260409585519052602085015160608401525a01fa1561046757565b604080517f0586c50acf7304daf088e354408d94b5b86ee96949732e7c76a10d3ffa9c3fb481527f08beffdb35160d156e397edff54c92e0e32cb3ed329468b0a8dc5dbc8850821560208201528082019384526107cf1991816060816007865a01fa1561046757600660809260409585519052602085015160608401525a01fa1561046757565b604080517f0c4c897fc6a51e8381a397ce93daf348f77a0441a7d08d04b6e289dc60c4a71481527f1addd5d93df47c7a465a08d48659bbc005f1f30ecd9684023da364c7d91324e260208201528082019384526107cf1991816060816007865a01fa1561046757600660809260409585519052602085015160608401525a01fa1561046757565b604080517f20f4d8212218b77e9892c3b49b4ea087ae229dbbb21ed5438d392569155286b481527f0449f6fc645ec6fb94b62126f106ecf6766911491501f1aa127a4c09a68fa5f460208201528082019384526107cf1991816060816007865a01fa1561046757600660809260409585519052602085015160608401525a01fa1561046757565b604080517f19cf0d20461823aff42e8350b4720713d497e5880c1c8c363f837bbd702447da81527f0211d3b76257f358784b4cb9235f9ce44593269242febffb049b2311ec1ce16c60208201528082019384526107cf1991816060816007865a01fa1561046757600660809260409585519052602085015160608401525a01fa1561046757565b604080517f0c383d2276b61ec21d384c80e60f50b9dce56a56f0bd7204b23c6c26c15ddefa81527f05c9fef0a96ffb70885e63d7a45db4aef69c2a9323ae1a57ac6fc2b4453d579360208201528082019384526107cf1991816060816007865a01fa1561046757600660809260409585519052602085015160608401525a01fa1561046757565b604080517e60c5a756c6753fd8216bc8d0a8357175878214c74b59e6e904fc208c97f83f81527f12ba4e47b88c15aaa5e7bab8d96d0d3474ae0d8973b2bd2ebea3645af8042c0860208201528082019384526107cf1991816060816007865a01fa1561046757600660809260409585519052602085015160608401525a01fa1561046757565b604080517f14fcf14bb7b2c611f0c812b3ef5af0f6ab55ca9ec8382a14caf99933cb967dca81527f28e48de7b529ae64ace93517023dcbc3bad4c7db0b7ae14414a54ae0da9b214d60208201528082019384526107cf1991816060816007865a01fa1561046757600660809260409585519052602085015160608401525a01fa1561046757565b604080517f21ff79ba214c6b497a15644882bc8f2d7c0a358abb46c950a4e94de535b6756781527f2505d3a5e72a32bb94b1cb4819223131cd84828e7698a0bdc9c2b5c457166a0b60208201528082019384526107cf1991816060816007865a01fa1561046757600660809260409585519052602085015160608401525a01fa1561046757565b604080517f1789387b50bddbf7223831d66b8cc53deb6c9a7705a5a5d61e6d5922af67a7c981527f060908113a785450bb3ad5e9425c296169b707c0d4c6a90d735a6fc24c16da7a60208201528082019384526107cf1991816060816007865a01fa1561046757600660809260409585519052602085015160608401525a01fa1561046757565b93909193608082019485937f176478052f1bec108d4485117a4948a20a50a9b519e87f68e02b3cd07862d15484526020958693848601927f093cfc8177928f25731553ac0f143d6c2d8c2d65f560c095cbd9d41e0abddd1784528235610c379088610471565b610c4483870135886104f8565b610c5260408401358861057f565b610c60606084013588610605565b610c6e60808401358861068c565b610c7c60a084013588610713565b610c8a60c08401358861079a565b610c9860e084013588610821565b61010090610ca984830135896108a8565b610120610cb9858201358a61092f565b61014091610cca868401358b6109b6565b61016093610cdb878601358c610a3c565b61018095610cec888801358d610ac3565b6101a080980135610cfd908d610b4a565b80358d527f30644e72e131a029b85045b68181585d97816a916871ca8d3c208c16d87cfd47908b013581030660a08c0152813560c08c0152818a013560e08c01526040820135908b015260600135908901527f1558ca17177edffbd37145abc36d4868d4e8fd7f0064971727ec8af561e87d64908801527f0af533e07e568dfd457dc5b6803a92b0552907f7405e9e70b8af9038681de683908701527f0d35864a9e4adc5579a05134789f11724afdfbe5be3e6d372b2ee3e5a75fcde7908601527f14727c80b65573f804dbc7ce08e6d4b1b60dcc85763548bf70b023fa7355c835908501527f1a18454f7efeb9195180baafa65d56f9ac0a4c325dd396c3bce7ea3524f609d46101c08501527f1ac5a32ccf36b0e789c153a1ccb9d5bd1f4619f98495cdc223b65cb9f2dea58c6101e08501528351610200850152516102208401527f198e9393920d483a7260bfb731fb5d25f1aa493335a9e71297e485b7aef312c26102408401527f1800deef121f1e76426a00665e5c4479674322d4f75edadd46debd5cd992f6ed6102608401527f090689d0585ff075ec9e99ad690c3395bc4b313370b38ef355acdadcd122975b6102808401527f12c85ea5db8c6deb4aab71808dcb408fe3d1e7690c43d37b4ce6cc0166fa7daa6102a084015280356102c084015201356102e08201527f2a4f8462a742b4a69336023eafe5aeeca453449c6d2760e6d77505fd3d67e366610300808301919091527f0f6bb888f57904ece4e0b6fc012a3249c4ba944521ef2015744b47018409e3636103208301527f2873856c6c31846ef27fbb6da8bac208361695e41a353514bc0a653603ff2c1d6103408301527f27f9edfdd970368bb4f4ad2b06f068d5d121c639b690f51cfceaffd7aa82fff061036090920191909152816107cf195a01600890fa90511690565b916103a493916040519361038085016040526102f0843561043e56fea2646970667358221220d85f061c2397f5b75120d9acca2340d9b6ddc616393581e5fb4f66dc13518f0464736f6c63430008140033",
  "linkReferences": {},
  "deployedLinkReferences": {}
}