{"PriMEDeal.sol":{"PriMEDeal":{"abi":[{"anonymous":false,"inputs":[{"indexed":true,"internalType":"bytes32","name":"sid","type":"bytes32"},{"indexed":false,"internalType":"address","name":"buyer","type":"address"}],"name":"Bought","type":"event"},{"anonymous":false,"inputs":[{"indexed":true,"internalType":"bytes32","name":"sid","type":"bytes32"},{"indexed":false,"internalType":"address","name":"seller","type":"address"}],"name":"Listed","type":"event"},{"inputs":[{"internalType":"bytes32","name":"sid","type":"bytes32"},{"internalType":"uint256[2]","name":"a","type":"uint256[2]"},{"internalType":"uint256[2][2]","name":"b","type":"uint256[2][2]"},{"internalType":"uint256[2]","name":"c","type":"uint256[2]"},{"internalType":"uint256[14]","name":"input","type":"uint256[14]"}],"name":"buy","outputs":[],"stateMutability":"payable","type":"function"},{"inputs":[{"internalType":"bytes32","name":"sid","type":"bytes32"}],"name":"list","outputs":[],"stateMutability":"payable","type":"function"},{"inputs":[{"internalType":"bytes32","name":"","type":"bytes32"}],"name":"listings","outputs":[{"internalType":"address payable","name":"seller","type":"address"},{"internalType":"uint256","name":"v","type":"uint256"},{"internalType":"uint256","name":"d","type":"uint256"},{"internalType":"bool","name":"active","type":"bool"}],"stateMutability":"view","type":"function"},{"inputs":[{"internalType":"uint256[2]","name":"_pA","type":"uint256[2]"},{"internalType":"uint256[2][2]","name":"_pB","type":"uint256[2][2]"},{"internalType":"uint256[2]","name":"_pC","type":"uint256[2]"},{"internalType":"uint256[14]","name":"_pubSignals","type":"uint256[14]"}],"name":"verifyProof","outputs":[{"internalType":"bool","name":"","type":"bool"}],"stateMutability":"view","type":"function"}],"evm":{"bytecode":{"linkReferences":{},"object":"6080806040523461001657610ff3908161001c8239f35b600080fdfe6080604052600436101561001257600080fd5b6000803560e01c90816313d49a8b1461005a57508063637b07be146100555780638d15f88f146100505763c18b8db41461004b57600080fd5b6103ad565b6102a0565b6101db565b6020366003190112610165576004358082528160205260ff6003604084200154166101365761010761008a610408565b3381523460208201523460408201526100a66060820160019052565b6100ba836000526000602052604060002090565b600360609160018060a01b038451166bffffffffffffffffffffffff60a01b825416178155602084015160018201556040840151600282015501910151151560ff80198354169116179055565b6040513381527fc616acc9e7662c7cee0dde81de57fcb2be89556bfa3c93549a2c48a06fff9d1690602090a280f35b62461bcd60e51b6080526020608452600e60a4526d105b1c9958591e481b1a5cdd195960921b60c45260646080fd5b80fd5b9060249160641161017557565b600080fd5b9060e4916101241161017557565b9060049160441161017557565b9060c4916101041161017557565b9060649160e41161017557565b9060449160c41161017557565b90610124916102e41161017557565b90610104916102c41161017557565b6102e0366003190112610175576101f136610168565b6101fa366101a3565b6102033661017a565b9061020d366101bd565b926004356000526000602052604060002060ff6003820154161561026e57600101543414610fa15760405162461bcd60e51b8152602060048201526011602482015270125b98dbdc9c9958dd081c185e5b595b9d607a1b6044820152606490fd5b60405162461bcd60e51b815260206004820152600a6024820152694e6f742061637469766560b01b6044820152606490fd5b34610175576102c0366003190112610175576103a46102be36610188565b6102c7366101b0565b6102d036610195565b6102d9366101cc565b916040519361038085016040526102f0843561043e565b6102fd602085013561043e565b61030a604085013561043e565b610317606085013561043e565b610324608085013561043e565b61033160a085013561043e565b61033e60c085013561043e565b61034b60e085013561043e565b61035961010085013561043e565b61036761012085013561043e565b61037561014085013561043e565b61038361016085013561043e565b61039161018085013561043e565b61039f6101a085013561043e565b610bd1565b60005260206000f35b346101755760203660031901126101755760043560005260006020526080604060002060018060a01b038154169060018101549060ff6003600283015492015416916040519384526020840152604083015215156060820152f35b604051906080820182811067ffffffffffffffff82111761042857604052565b634e487b7160e01b600052604160045260246000fd5b7f30644e72e131a029b85045b68181585d2833e84879b9709143e1f593f0000001111561046757565b6000805260206000f35b604080517f14bd98b0a67134cbb5dff0d73a4dd54ce9fa0ec2fb5c509bcf56e2067aab705d81527f1543c680e5b57fce7ea772cec6d255d19a44b6c7ee43255339f5c12febfbc7e560208201528082019384526107cf1991816060816007865a01fa1561046757600660809260409585519052602085015160608401525a01fa1561046757565b604080517f18cfaab082581d1ee2aa0678f8275c362b700b955676a72ae6a3c7a2cdc189e081527f01298ceb9e3bcdfc847f2b665509649ddb11db91ea96e32ecdf7b78b2f7fb99e60208201528082019384526107cf1991816060816007865a01fa1561046757600660809260409585519052602085015160608401525a01fa1561046757565b604080517f216ebe9f73f28c29907ca46279723ad45e41195bd181de732387ab0d1595d71f81527edd5efec8bdec9a82a7792e78bc416ab976d7d96986eda6cd7d986a4f814fc860208201528082019384526107cf1991816060816007865a01fa1561046757600660809260409585519052602085015160608401525a01fa1561046757565b604080517f1bb3a3a2115edd4b97423b0c9c10b6b455bc00fa468184fec7ed68229530d52e81527f14f5d36c3f7adb685c79802ad4d3e42302eecc2a5fc52b3752f3d11d95695d8560208201528082019384526107cf1991816060816007865a01fa1561046757600660809260409585519052602085015160608401525a01fa1561046757565b604080517f07e3cabbc05b25e7c1159c98be857119e666205a246748e76cae00b8057f88e881527f174d539cf49bb0088494d7d867f6f359d7984896987b2f6a49dda57180de077560208201528082019384526107cf1991816060816007865a01fa1561046757600660809260409585519052602085015160608401525a01fa1561046757565b604080517f0586c50acf7304daf088e354408d94b5b86ee96949732e7c76a10d3ffa9c3fb481527f08beffdb35160d156e397edff54c92e0e32cb3ed329468b0a8dc5dbc8850821560208201528082019384526107cf1991816060816007865a01fa1561046757600660809260409585519052602085015160608401525a01fa1561046757565b604080517f0c4c897fc6a51e8381a397ce93daf348f77a0441a7d08d04b6e289dc60c4a71481527f1addd5d93df47c7a465a08d48659bbc005f1f30ecd9684023da364c7d91324e260208201528082019384526107cf1991816060816007865a01fa1561046757600660809260409585519052602085015160608401525a01fa1561046757565b604080517f20f4d8212218b77e9892c3b49b4ea087ae229dbbb21ed5438d392569155286b481527f0449f6fc645ec6fb94b62126f106ecf6766911491501f1aa127a4c09a68fa5f460208201528082019384526107cf1991816060816007865a01fa1561046757600660809260409585519052602085015160608401525a01fa1561046757565b604080517f19cf0d20461823aff42e8350b4720713d497e5880c1c8c363f837bbd702447da81527f0211d3b76257f358784b4cb9235f9ce44593269242febffb049b2311ec1ce16c60208201528082019384526107cf1991816060816007865a01fa1561046757600660809260409585519052602085015160608401525a01fa1561046757565b604080517f0c383d2276b61ec21d384c80e60f50b9dce56a56f0bd7204b23c6c26c15ddefa81527f05c9fef0a96ffb70885e63d7a45db4aef69c2a9323ae1a57ac6fc2b4453d579360208201528082019384526107cf1991816060816007865a01fa1561046757600660809260409585519052602085015160608401525a01fa1561046757565b604080517e60c5a756c6753fd8216bc8d0a8357175878214c74b59e6e904fc208c97f83f81527f12ba4e47b88c15aaa5e7bab8d96d0d3474ae0d8973b2bd2ebea3645af8042c0860208201528082019384526107cf1991816060816007865a01fa1561046757600660809260409585519052602085015160608401525a01fa1561046757565b604080517f14fcf14bb7b2c611f0c812b3ef5af0f6ab55ca9ec8382a14caf99933cb967dca81527f28e48de7b529ae64ace93517023dcbc3bad4c7db0b7ae14414a54ae0da9b214d60208201528082019384526107cf1991816060816007865a01fa1561046757600660809260409585519052602085015160608401525a01fa1561046757565b604080517f21ff79ba214c6b497a15644882bc8f2d7c0a358abb46c950a4e94de535b6756781527f2505d3a5e72a32bb94b1cb4819223131cd84828e7698a0bdc9c2b5c457166a0b60208201528082019384526107cf1991816060816007865a01fa1561046757600660809260409585519052602085015160608401525a01fa1561046757565b604080517f1789387b50bddbf7223831d66b8cc53deb6c9a7705a5a5d61e6d5922af67a7c981527f060908113a785450bb3ad5e9425c296169b707c0d4c6a90d735a6fc24c16da7a60208201528082019384526107cf1991816060816007865a01fa1561046757600660809260409585519052602085015160608401525a01fa1561046757565b93909193608082019485937f176478052f1bec108d4485117a4948a20a50a9b519e87f68e02b3cd07862d15484526020958693848601927f093cfc8177928f25731553ac0f143d6c2d8c2d65f560c095cbd9d41e0abddd1784528235610c379088610471565b610c4483870135886104f8565b610c5260408401358861057f565b610c60606084013588610605565b610c6e60808401358861068c565b610c7c60a084013588610713565b610c8a60c08401358861079a565b610c9860e084013588610821565b61010090610ca984830135896108a8565b610120610cb9858201358a61092f565b61014091610cca868401358b6109b6565b61016093610cdb878601358c610a3c565b61018095610cec888801358d610ac3565b6101a080980135610cfd908d610b4a565b80358d527f30644e72e131a029b85045b68181585d97816a916871ca8d3c208c16d87cfd47908b013581030660a08c0152813560c08c0152818a013560e08c01526040820135908b015260600135908901527f1558ca17177edffbd37145abc36d4868d4e8fd7f0064971727ec8af561e87d64908801527f0af533e07e568dfd457dc5b6803a92b0552907f7405e9e70b8af9038681de683908701527f0d35864a9e4adc5579a05134789f11724afdfbe5be3e6d372b2ee3e5a75fcde7908601527f14727c80b65573f804dbc7ce08e6d4b1b60dcc85763548bf70b023fa7355c835908501527f1a18454f7efeb9195180baafa65d56f9ac0a4c325dd396c3bce7ea3524f609d46101c08501527f1ac5a32ccf36b0e789c153a1ccb9d5bd1f4619f98495cdc223b65cb9f2dea58c6101e08501528351610200850152516102208401527f198e9393920d483a7260bfb731fb5d25f1aa493335a9e71297e485b7aef312c26102408401527f1800deef121f1e76426a00665e5c4479674322d4f75edadd46debd5cd992f6ed6102608401527f090689d0585ff075ec9e99ad690c3395bc4b313370b38ef355acdadcd122975b6102808401527f12c85ea5db8c6deb4aab71808dcb408fe3d1e7690c43d37b4ce6cc0166fa7daa6102a084015280356102c084015201356102e08201527f2a4f8462a742b4a69336023eafe5aeeca453449c6d2760e6d77505fd3d67e366610300808301919091527f0f6bb888f57904ece4e0b6fc012a3249c4ba944521ef2015744b47018409e3636103208301527f2873856c6c31846ef27fbb6da8bac208361695e41a353514bc0a653603ff2c1d6103408301527f27f9edfdd970368bb4f4ad2b06f068d5d121c639b690f51cfceaffd7aa82fff061036090920191909152816107cf195a01600890fa90511690565b916103a493916040519361038085016040526102f0843561043e56fea2646970667358221220d85f061c2397f5b75120d9acca2340d9b6ddc616393581e5fb4f66dc13518f0464736f6c63430008140033","opcodes":"PUSH1 0x80 DUP1 PUSH1 0x40 MSTORE CALLVALUE PUSH2 0x16 JUMPI PUSH2 0xFF3 SWAP1 DUP2 PUSH2 0x1C DUP3 CODECOPY RETURN JUMPDEST PUSH1 0x0 DUP1 REVERT INVALID PUSH1 0x80 PUSH1 0x40 MSTORE PUSH1 0x4 CALLDATASIZE LT ISZERO PUSH2 0x12 JUMPI PUSH1 0x0 DUP1 REVERT JUMPDEST PUSH1 0x0 DUP1 CALLDATALOAD PUSH1 0xE0 SHR SWAP1 DUP2 PUSH4 0x13D49A8B EQ PUSH2 0x5A JUMPI POP DUP1 PUSH4 0x637B07BE EQ PUSH2 0x55 JUMPI DUP1 PUSH4 0x8D15F88F EQ PUSH2 0x50 JUMPI PUSH4 0xC18B8DB4 EQ PUSH2 0x4B JUMPI PUSH1 0x0 DUP1 REVERT JUMPDEST PUSH2 0x3AD JUMP JUMPDEST PUSH2 0x2A0 JUMP JUMPDEST PUSH2 0x1DB JUMP JUMPDEST PUSH1 0x20 CALLDATASIZE PUSH1 0x3 NOT ADD SLT PUSH2 0x165 JUMPI PUSH1 0x4 CALLDATALOAD DUP1 DUP3 MSTORE DUP2 PUSH1 0x20 MSTORE PUSH1 0xFF PUSH1 0x3 PUSH1 0x40 DUP5 KECCAK256 ADD SLOAD AND PUSH2 0x136 JUMPI PUSH2 0x107 PUSH2 0x8A PUSH2 0x408 JUMP JUMPDEST CALLER DUP2 MSTORE CALLVALUE PUSH1 0x20 DUP3 ADD MSTORE CALLVALUE PUSH1 0x40 DUP3 ADD MSTORE PUSH2 0xA6 PUSH1 0x60 DUP3 ADD PUSH1 0x1 SWAP1 MSTORE JUMP JUMPDEST PUSH2 0xBA DUP4 PUSH1 0x0 MSTORE PUSH1 0x0 PUSH1 0x20 MSTORE PUSH1 0x40 PUSH1 0x0 KECCAK256 SWAP1 JUMP JUMPDEST PUSH1 0x3 PUSH1 0x60 SWAP2 PUSH1 0x1 DUP1 PUSH1 0xA0 SHL SUB DUP5 MLOAD AND PUSH12 0xFFFFFFFFFFFFFFFFFFFFFFFF PUSH1 0xA0 SHL DUP3 SLOAD AND OR DUP2 SSTORE PUSH1 0x20 DUP5 ADD MLOAD PUSH1 0x1 DUP3 ADD SSTORE PUSH1 0x40 DUP5 ADD MLOAD PUSH1 0x2 DUP3 ADD SSTORE ADD SWAP2 ADD MLOAD ISZERO ISZERO PUSH1 0xFF DUP1 NOT DUP4 SLOAD AND SWAP2 AND OR SWAP1 SSTORE JUMP JUMPDEST PUSH1 0x40 MLOAD CALLER DUP2 MSTORE PUSH32 0xC616ACC9E7662C7CEE0DDE81DE57FCB2BE89556BFA3C93549A2C48A06FFF9D16 SWAP1 PUSH1 0x20 SWAP1 LOG2 DUP1 RETURN JUMPDEST PUSH3 0x461BCD PUSH1 0xE5 SHL PUSH1 0x80 MSTORE PUSH1 0x20 PUSH1 0x84 MSTORE PUSH1 0xE PUSH1 0xA4 MSTORE PUSH14 0x105B1C9958591E481B1A5CDD1959 PUSH1 0x92 SHL PUSH1 0xC4 MSTORE PUSH1 0x64 PUSH1 0x80 REVERT JUMPDEST DUP1 REVERT JUMPDEST SWAP1 PUSH1 0x24 SWAP2 PUSH1 0x64 GT PUSH2 0x175 JUMPI JUMP JUMPDEST PUSH1 0x0 DUP1 REVERT JUMPDEST SWAP1 PUSH1 0xE4 SWAP2 PUSH2 0x124 GT PUSH2 0x175 JUMPI JUMP JUMPDEST SWAP1 PUSH1 0x4 SWAP2 PUSH1 0x44 GT PUSH2 0x175 JUMPI JUMP JUMPDEST SWAP1 PUSH1 0xC4 SWAP2 PUSH2 0x104 GT PUSH2 0x175 JUMPI JUMP JUMPDEST SWAP1 PUSH1 0x64 SWAP2 PUSH1 0xE4 GT PUSH2 0x175 JUMPI JUMP JUMPDEST SWAP1 PUSH1 0x44 SWAP2 PUSH1 0xC4 GT PUSH2 0x175 JUMPI JUMP JUMPDEST SWAP1 PUSH2 0x124 SWAP2 PUSH2 0x2E4 GT PUSH2 0x175 JUMPI JUMP JUMPDEST SWAP1 PUSH2 0x104 SWAP2 PUSH2 0x2C4 GT PUSH2 0x175 JUMPI JUMP JUMPDEST PUSH2 0x2E0 CALLDATASIZE PUSH1 0x3 NOT ADD SLT PUSH2 0x175 JUMPI PUSH2 0x1F1 CALLDATASIZE PUSH2 0x168 JUMP JUMPDEST PUSH2 0x1FA CALLDATASIZE PUSH2 0x1A3 JUMP JUMPDEST PUSH2 0x203 CALLDATASIZE PUSH2 0x17A JUMP JUMPDEST SWAP1 PUSH2 0x20D CALLDATASIZE PUSH2 0x1BD JUMP JUMPDEST SWAP3 PUSH1 0x4 CALLDATALOAD PUSH1 0x0 MSTORE PUSH1 0x0 PUSH1 0x20 MSTORE PUSH1 0x40 PUSH1 0x0 KECCAK256 PUSH1 0xFF PUSH1 0x3 DUP3 ADD SLOAD AND ISZERO PUSH2 0x26E JUMPI PUSH1 0x1 ADD SLOAD CALLVALUE EQ PUSH2 0xFA1 JUMPI PUSH1 0x40 MLOAD PUSH3 0x461BCD PUSH1 0xE5 SHL DUP2 MSTORE PUSH1 0x20 PUSH1 0x4 DUP3 ADD MSTORE PUSH1 0x11 PUSH1 0x24 DUP3 ADD MSTORE PUSH17 0x125B98DBDC9C9958DD081C185E5B595B9D PUSH1 0x7A SHL PUSH1 0x44 DUP3 ADD MSTORE PUSH1 0x64 SWAP1 REVERT JUMPDEST PUSH1 0x40 MLOAD PUSH3 0x461BCD PUSH1 0xE5 SHL DUP2 MSTORE PUSH1 0x20 PUSH1 0x4 DUP3 ADD MSTORE PUSH1 0xA PUSH1 0x24 DUP3 ADD MSTORE PUSH10 0x4E6F7420616374697665 PUSH1 0xB0 SHL PUSH1 0x44 DUP3 ADD MSTORE PUSH1 0x64 SWAP1 REVERT JUMPDEST CALLVALUE PUSH2 0x175 JUMPI PUSH2 0x2C0 CALLDATASIZE PUSH1 0x3 NOT ADD SLT PUSH2 0x175 JUMPI PUSH2 0x3A4 PUSH2 0x2BE CALLDATASIZE PUSH2 0x188 JUMP JUMPDEST PUSH2 0x2C7 CALLDATASIZE PUSH2 0x1B0 JUMP JUMPDEST PUSH2 0x2D0 CALLDATASIZE PUSH2 0x195 JUMP JUMPDEST PUSH2 0x2D9 CALLDATASIZE PUSH2 0x1CC JUMP JUMPDEST SWAP2 PUSH1 0x40 MLOAD SWAP4 PUSH2 0x380 DUP6 ADD PUSH1 0x40 MSTORE PUSH2 0x2F0 DUP5 CALLDATALOAD PUSH2 0x43E JUMP JUMPDEST PUSH2 0x2FD PUSH1 0x20 DUP6 ADD CALLDATALOAD PUSH2 0x43E JUMP JUMPDEST PUSH2 0x30A PUSH1 0x40 DUP6 ADD CALLDATALOAD PUSH2 0x43E JUMP JUMPDEST PUSH2 0x317 PUSH1 0x60 DUP6 ADD CALLDATALOAD PUSH2 0x43E JUMP JUMPDEST PUSH2 0x324 PUSH1 0x80 DUP6 ADD CALLDATALOAD PUSH2 0x43E JUMP JUMPDEST PUSH2 0x331 PUSH1 0xA0 DUP6 ADD CALLDATALOAD PUSH2 0x43E JUMP JUMPDEST PUSH2 0x33E PUSH1 0xC0 DUP6 ADD CALLDATALOAD PUSH2 0x43E JUMP JUMPDEST PUSH2 0x34B PUSH1 0xE0 DUP6 ADD CALLDATALOAD PUSH2 0x43E JUMP JUMPDEST PUSH2 0x359 PUSH2 0x100 DUP6 ADD CALLDATALOAD PUSH2 0x43E JUMP JUMPDEST PUSH2 0x367 PUSH2 0x120 DUP6 ADD CALLDATALOAD PUSH2 0x43E JUMP JUMPDEST PUSH2 0x375 PUSH2 0x140 DUP6 ADD CALLDATALOAD PUSH2 0x43E JUMP JUMPDEST PUSH2 0x383 PUSH2 0x160 DUP6 ADD CALLDATALOAD PUSH2 0x43E JUMP JUMPDEST PUSH2 0x391 PUSH2 0x180 DUP6 ADD CALLDATALOAD PUSH2 0x43E JUMP JUMPDEST PUSH2 0x39F PUSH2 0x1A0 DUP6 ADD CALLDATALOAD PUSH2 0x43E JUMP JUMPDEST PUSH2 0xBD1 JUMP JUMPDEST PUSH1 0x0 MSTORE PUSH1 0x20 PUSH1 0x0 RETURN JUMPDEST CALLVALUE PUSH2 0x175 JUMPI PUSH1 0x20 CALLDATASIZE PUSH1 0x3 NOT ADD SLT PUSH2 0x175 JUMPI PUSH1 0x4 CALLDATALOAD PUSH1 0x0 MSTORE PUSH1 0x0 PUSH1 0x20 MSTORE PUSH1 0x80 PUSH1 0x40 PUSH1 0x0 KECCAK256 PUSH1 0x1 DUP1 PUSH1 0xA0 SHL SUB DUP2 SLOAD AND SWAP1 PUSH1 0x1 DUP2 ADD SLOAD SWAP1 PUSH1 0xFF PUSH1 0x3 PUSH1 0x2 DUP4 ADD SLOAD SWAP3 ADD SLOAD AND SWAP2 PUSH1 0x40 MLOAD SWAP4 DUP5 MSTORE PUSH1 0x20 DUP5 ADD MSTORE PUSH1 0x40 DUP4 ADD MSTORE ISZERO ISZERO PUSH1 0x60 DUP3 ADD MSTORE RETURN JUMPDEST PUSH1 0x40 MLOAD SWAP1 PUSH1 0x80 DUP3 ADD DUP3 DUP2 LT PUSH8 0xFFFFFFFFFFFFFFFF DUP3 GT OR PUSH2 0x428 JUMPI PUSH1 0x40 MSTORE JUMP JUMPDEST PUSH4 0x4E487B71 PUSH1 0xE0 SHL PUSH1 0x0 MSTORE PUSH1 0x41 PUSH1 0x4 MSTORE PUSH1 0x24 PUSH1 0x0 REVERT JUMPDEST PUSH32 0x30644E72E131A029B85045B68181585D2833E84879B9709143E1F593F0000001 GT ISZERO PUSH2 0x467 JUMPI JUMP JUMPDEST PUSH1 0x0 DUP1 MSTORE PUSH1 0x20 PUSH1 0x0 RETURN JUMPDEST PUSH1 0x40 DUP1 MLOAD PUSH32 0x14BD98B0A67134CBB5DFF0D73A4DD54CE9FA0EC2FB5C509BCF56E2067AAB705D DUP2 MSTORE PUSH32 0x1543C680E5B57FCE7EA772CEC6D255D19A44B6C7EE43255339F5C12FEBFBC7E5 PUSH1 0x20 DUP3 ADD MSTORE DUP1 DUP3 ADD SWAP4 DUP5 MSTORE PUSH2 0x7CF NOT SWAP2 DUP2 PUSH1 0x60 DUP2 PUSH1 0x7 DUP7 GAS ADD STATICCALL ISZERO PUSH2 0x467 JUMPI PUSH1 0x6 PUSH1 0x80 SWAP3 PUSH1 0x40 SWAP6 DUP6 MLOAD SWAP1 MSTORE PUSH1 0x20 DUP6 ADD MLOAD PUSH1 0x60 DUP5 ADD MSTORE GAS ADD STATICCALL ISZERO PUSH2 0x467 JUMPI JUMP JUMPDEST PUSH1 0x40 DUP1 MLOAD PUSH32 0x18CFAAB082581D1EE2AA0678F8275C362B700B955676A72AE6A3C7A2CDC189E0 DUP2 MSTORE PUSH32 0x1298CEB9E3BCDFC847F2B665509649DDB11DB91EA96E32ECDF7B78B2F7FB99E PUSH1 0x20 DUP3 ADD MSTORE DUP1 DUP3 ADD SWAP4 DUP5 MSTORE PUSH2 0x7CF NOT SWAP2 DUP2 PUSH1 0x60 DUP2 PUSH1 0x7 DUP7 GAS ADD STATICCALL ISZERO PUSH2 0x467 JUMPI PUSH1 0x6 PUSH1 0x80 SWAP3 PUSH1 0x40 SWAP6 DUP6 MLOAD SWAP1 MSTORE PUSH1 0x20 DUP6 ADD MLOAD PUSH1 0x60 DUP5 ADD MSTORE GAS ADD STATICCALL ISZERO PUSH2 0x467 JUMPI JUMP JUMPDEST PUSH1 0x40 DUP1 MLOAD PUSH32 0x216EBE9F73F28C29907CA46279723AD45E41195BD181DE732387AB0D1595D71F DUP2 MSTORE PUSH31 0xDD5EFEC8BDEC9A82A7792E78BC416AB976D7D96986EDA6CD7D986A4F814FC8 PUSH1 0x20 DUP3 ADD MSTORE DUP1 DUP3 ADD SWAP4 DUP5 MSTORE PUSH2 0x7CF NOT SWAP2 DUP2 PUSH1 0x60 DUP2 PUSH1 0x7 DUP7 GAS ADD STATICCALL ISZERO PUSH2 0x467 JUMPI PUSH1 0x6 PUSH1 0x80 SWAP3 PUSH1 0x40 SWAP6 DUP6 MLOAD SWAP1 MSTORE PUSH1 0x20 DUP6 ADD MLOAD PUSH1 0x60 DUP5 ADD MSTORE GAS ADD STATICCALL ISZERO PUSH2 0x467 JUMPI JUMP JUMPDEST PUSH1 0x40 DUP1 MLOAD PUSH32 0x1BB3A3A2115EDD4B97423B0C9C10B6B455BC00FA468184FEC7ED68229530D52E DUP2 MSTORE PUSH32 0x14F5D36C3F7ADB685C79802AD4D3E42302EECC2A5FC52B3752F3D11D95695D85 PUSH1 0x20 DUP3 ADD MSTORE DUP1 DUP3 ADD SWAP4 DUP5 MSTORE PUSH2 0x7CF NOT SWAP2 DUP2 PUSH1 0x60 DUP2 PUSH1 0x7 DUP7 GAS ADD STATICCALL ISZERO PUSH2 0x467 JUMPI PUSH1 0x6 PUSH1 0x80 SWAP3 PUSH1 0x40 SWAP6 DUP6 MLOAD SWAP1 MSTORE PUSH1 0x20 DUP6 ADD MLOAD PUSH1 0x60 DUP5 ADD MSTORE GAS ADD STATICCALL ISZERO PUSH2 0x467 JUMPI JUMP JUMPDEST PUSH1 0x40 DUP1 MLOAD PUSH32 0x7E3CABBC05B25E7C1159C98BE857119E666205A246748E76CAE00B8057F88E8 DUP2 MSTORE PUSH32 0x174D539CF49BB0088494D7D867F6F359D7984896987B2F6A49DDA57180DE0775 PUSH1 0x20 DUP3 ADD MSTORE DUP1 DUP3 ADD SWAP4 DUP5 MSTORE PUSH2 0x7CF NOT SWAP2 DUP2 PUSH1 0x60 DUP2 PUSH1 0x7 DUP7 GAS ADD STATICCALL ISZERO PUSH2 0x467 JUMPI PUSH1 0x6 PUSH1 0x80 SWAP3 PUSH1 0x40 SWAP6 DUP6 MLOAD SWAP1 MSTORE PUSH1 0x20 DUP6 ADD MLOAD PUSH1 0x60 DUP5 ADD MSTORE GAS ADD STATICCALL ISZERO PUSH2 0x467 JUMPI JUMP JUMPDEST PUSH1 0x40 DUP1 MLOAD PUSH32 0x586C50ACF7304DAF088E354408D94B5B86EE96949732E7C76A10D3FFA9C3FB4 DUP2 MSTORE PUSH32 0x8BEFFDB35160D156E397EDFF54C92E0E32CB3ED329468B0A8DC5DBC88508215 PUSH1 0x20 DUP3 ADD MSTORE DUP1 DUP3 ADD SWAP4 DUP5 MSTORE PUSH2 0x7CF NOT SWAP2 DUP2 PUSH1 0x60 DUP2 PUSH1 0x7 DUP7 GAS ADD STATICCALL ISZERO PUSH2 0x467 JUMPI PUSH1 0x6 PUSH1 0x80 SWAP3 PUSH1 0x40 SWAP6 DUP6 MLOAD SWAP1 MSTORE PUSH1 0x20 DUP6 ADD MLOAD PUSH1 0x60 DUP5 ADD MSTORE GAS ADD STATICCALL ISZERO PUSH2 0x467 JUMPI JUMP JUMPDEST PUSH1 0x40 DUP1 MLOAD PUSH32 0xC4C897FC6A51E8381A397CE93DAF348F77A0441A7D08D04B6E289DC60C4A714 DUP2 MSTORE PUSH32 0x1ADDD5D93DF47C7A465A08D48659BBC005F1F30ECD9684023DA364C7D91324E2 PUSH1 0x20 DUP3 ADD MSTORE DUP1 DUP3 ADD SWAP4 DUP5 MSTORE PUSH2 0x7CF NOT SWAP2 DUP2 PUSH1 0x60 DUP2 PUSH1 0x7 DUP7 GAS ADD STATICCALL ISZERO PUSH2 0x467 JUMPI PUSH1 0x6 PUSH1 0x80 SWAP3 PUSH1 0x40 SWAP6 DUP6 MLOAD SWAP1 MSTORE PUSH1 0x20 DUP6 ADD MLOAD PUSH1 0x60 DUP5 ADD MSTORE GAS ADD STATICCALL ISZERO PUSH2 0x467 JUMPI JUMP JUMPDEST PUSH1 0x40 DUP1 MLOAD PUSH32 0x20F4D8212218B77E9892C3B49B4EA087AE229DBBB21ED5438D392569155286B4 DUP2 MSTORE PUSH32 0x449F6FC645EC6FB94B62126F106ECF6766911491501F1AA127A4C09A68FA5F4 PUSH1 0x20 DUP3 ADD MSTORE DUP1 DUP3 ADD SWAP4 DUP5 MSTORE PUSH2 0x7CF NOT SWAP2 DUP2 PUSH1 0x60 DUP2 PUSH1 0x7 DUP7 GAS ADD STATICCALL ISZERO PUSH2 0x467 JUMPI PUSH1 0x6 PUSH1 0x80 SWAP3 PUSH1 0x40 SWAP6 DUP6 MLOAD SWAP1 MSTORE PUSH1 0x20 DUP6 ADD MLOAD PUSH1 0x60 DUP5 ADD MSTORE GAS ADD STATICCALL ISZERO PUSH2 0x467 JUMPI JUMP JUMPDEST PUSH1 0x40 DUP1 MLOAD PUSH32 0x19CF0D20461823AFF42E8350B4720713D497E5880C1C8C363F837BBD702447DA DUP2 MSTORE PUSH32 0x211D3B76257F358784B4CB9235F9CE44593269242FEBFFB049B2311EC1CE16C PUSH1 0x20 DUP3 ADD MSTORE DUP1 DUP3 ADD SWAP4 DUP5 MSTORE PUSH2 0x7CF NOT SWAP2 DUP2 PUSH1 0x60 DUP2 PUSH1 0x7 DUP7 GAS ADD STATICCALL ISZERO PUSH2 0x467 JUMPI PUSH1 0x6 PUSH1 0x80 SWAP3 PUSH1 0x40 SWAP6 DUP6 MLOAD SWAP1 MSTORE PUSH1 0x20 DUP6 ADD MLOAD PUSH1 0x60 DUP5 ADD MSTORE GAS ADD STATICCALL ISZERO PUSH2 0x467 JUMPI JUMP JUMPDEST PUSH1 0x40 DUP1 MLOAD PUSH32 0xC383D2276B61EC21D384C80E60F50B9DCE56A56F0BD7204B23C6C26C15DDEFA DUP2 MSTORE PUSH32 0x5C9FEF0A96FFB70885E63D7A45DB4AEF69C2A9323AE1A57AC6FC2B4453D5793 PUSH1 0x20 DUP3 ADD MSTORE DUP1 DUP3 ADD SWAP4 DUP5 MSTORE PUSH2 0x7CF NOT SWAP2 DUP2 PUSH1 0x60 DUP2 PUSH1 0x7 DUP7 GAS ADD STATICCALL ISZERO PUSH2 0x467 JUMPI PUSH1 0x6 PUSH1 0x80 SWAP3 PUSH1 0x40 SWAP6 DUP6 MLOAD SWAP1 MSTORE PUSH1 0x20 DUP6 ADD MLOAD PUSH1 0x60 DUP5 ADD MSTORE GAS ADD STATICCALL ISZERO PUSH2 0x467 JUMPI JUMP JUMPDEST PUSH1 0x40 DUP1 MLOAD PUSH31 0x60C5A756C6753FD8216BC8D0A8357175878214C74B59E6E904FC208C97F83F DUP2 MSTORE PUSH32 0x12BA4E47B88C15AAA5E7BAB8D96D0D3474AE0D8973B2BD2EBEA3645AF8042C08 PUSH1 0x20 DUP3 ADD MSTORE DUP1 DUP3 ADD SWAP4 DUP5 MSTORE PUSH2 0x7CF NOT SWAP2 DUP2 PUSH1 0x60 DUP2 PUSH1 0x7 DUP7 GAS ADD STATICCALL ISZERO PUSH2 0x467 JUMPI PUSH1 0x6 PUSH1 0x80 SWAP3 PUSH1 0x40 SWAP6 DUP6 MLOAD SWAP1 MSTORE PUSH1 0x20 DUP6 ADD MLOAD PUSH1 0x60 DUP5 ADD MSTORE GAS ADD STATICCALL ISZERO PUSH2 0x467 JUMPI JUMP JUMPDEST PUSH1 0x40 DUP1 MLOAD PUSH32 0x14FCF14BB7B2C611F0C812B3EF5AF0F6AB55CA9EC8382A14CAF99933CB967DCA DUP2 MSTORE PUSH32 0x28E48DE7B529AE64ACE93517023DCBC3BAD4C7DB0B7AE14414A54AE0DA9B214D PUSH1 0x20 DUP3 ADD MSTORE DUP1 DUP3 ADD SWAP4 DUP5 MSTORE PUSH2 0x7CF NOT SWAP2 DUP2 PUSH1 0x60 DUP2 PUSH1 0x7 DUP7 GAS ADD STATICCALL ISZERO PUSH2 0x467 JUMPI PUSH1 0x6 PUSH1 0x80 SWAP3 PUSH1 0x40 SWAP6 DUP6 MLOAD SWAP1 MSTORE PUSH1 0x20 DUP6 ADD MLOAD PUSH1 0x60 DUP5 ADD MSTORE GAS ADD STATICCALL ISZERO PUSH2 0x467 JUMPI JUMP JUMPDEST PUSH1 0x40 DUP1 MLOAD PUSH32 0x21FF79BA214C6B497A15644882BC8F2D7C0A358ABB46C950A4E94DE535B67567 DUP2 MSTORE PUSH32 0x2505D3A5E72A32BB94B1CB4819223131CD84828E7698A0BDC9C2B5C457166A0B PUSH1 0x20 DUP3 ADD MSTORE DUP1 DUP3 ADD SWAP4 DUP5 MSTORE PUSH2 0x7CF NOT SWAP2 DUP2 PUSH1 0x60 DUP2 PUSH1 0x7 DUP7 GAS ADD STATICCALL ISZERO PUSH2 0x467 JUMPI PUSH1 0x6 PUSH1 0x80 SWAP3 PUSH1 0x40 SWAP6 DUP6 MLOAD SWAP1 MSTORE PUSH1 0x20 DUP6 ADD MLOAD PUSH1 0x60 DUP5 ADD MSTORE GAS ADD STATICCALL ISZERO PUSH2 0x467 JUMPI JUMP JUMPDEST PUSH1 0x40 DUP1 MLOAD PUSH32 0x1789387B50BDDBF7223831D66B8CC53DEB6C9A7705A5A5D61E6D5922AF67A7C9 DUP2 MSTORE PUSH32 0x60908113A785450BB3AD5E9425C296169B707C0D4C6A90D735A6FC24C16DA7A PUSH1 0x20 DUP3 ADD MSTORE DUP1 DUP3 ADD SWAP4 DUP5 MSTORE PUSH2 0x7CF NOT SWAP2 DUP2 PUSH1 0x60 DUP2 PUSH1 0x7 DUP7 GAS ADD STATICCALL ISZERO PUSH2 0x467 JUMPI PUSH1 0x6 PUSH1 0x80 SWAP3 PUSH1 0x40 SWAP6 DUP6 MLOAD SWAP1 MSTORE PUSH1 0x20 DUP6 ADD MLOAD PUSH1 0x60 DUP5 ADD MSTORE GAS ADD STATICCALL ISZERO PUSH2 0x467 JUMPI JUMP JUMPDEST SWAP4 SWAP1 SWAP2 SWAP4 PUSH1 0x80 DUP3 ADD SWAP5 DUP6 SWAP4 PUSH32 0x176478052F1BEC108D4485117A4948A20A50A9B519E87F68E02B3CD07862D154 DUP5 MSTORE PUSH1 0x20 SWAP6 DUP7 SWAP4 DUP5 DUP7 ADD SWAP3 PUSH32 0x93CFC8177928F25731553AC0F143D6C2D8C2D65F560C095CBD9D41E0ABDDD17 DUP5 MSTORE DUP3 CALLDATALOAD PUSH2 0xC37 SWAP1 DUP9 PUSH2 0x471 JUMP JUMPDEST PUSH2 0xC44 DUP4 DUP8 ADD CALLDATALOAD DUP9 PUSH2 0x4F8 JUMP JUMPDEST PUSH2 0xC52 PUSH1 0x40 DUP5 ADD CALLDATALOAD DUP9 PUSH2 0x57F JUMP JUMPDEST PUSH2 0xC60 PUSH1 0x60 DUP5 ADD CALLDATALOAD DUP9 PUSH2 0x605 JUMP JUMPDEST PUSH2 0xC6E PUSH1 0x80 DUP5 ADD CALLDATALOAD DUP9 PUSH2 0x68C JUMP JUMPDEST PUSH2 0xC7C PUSH1 0xA0 DUP5 ADD CALLDATALOAD DUP9 PUSH2 0x713 JUMP JUMPDEST PUSH2 0xC8A PUSH1 0xC0 DUP5 ADD CALLDATALOAD DUP9 PUSH2 0x79A JUMP JUMPDEST PUSH2 0xC98 PUSH1 0xE0 DUP5 ADD CALLDATALOAD DUP9 PUSH2 0x821 JUMP JUMPDEST PUSH2 0x100 SWAP1 PUSH2 0xCA9 DUP5 DUP4 ADD CALLDATALOAD DUP10 PUSH2 0x8A8 JUMP JUMPDEST PUSH2 0x120 PUSH2 0xCB9 DUP6 DUP3 ADD CALLDATALOAD DUP11 PUSH2 0x92F JUMP JUMPDEST PUSH2 0x140 SWAP2 PUSH2 0xCCA DUP7 DUP5 ADD CALLDATALOAD DUP12 PUSH2 0x9B6 JUMP JUMPDEST PUSH2 0x160 SWAP4 PUSH2 0xCDB DUP8 DUP7 ADD CALLDATALOAD DUP13 PUSH2 0xA3C JUMP JUMPDEST PUSH2 0x180 SWAP6 PUSH2 0xCEC DUP9 DUP9 ADD CALLDATALOAD DUP14 PUSH2 0xAC3 JUMP JUMPDEST PUSH2 0x1A0 DUP1 SWAP9 ADD CALLDATALOAD PUSH2 0xCFD SWAP1 DUP14 PUSH2 0xB4A JUMP JUMPDEST DUP1 CALLDATALOAD DUP14 MSTORE PUSH32 0x30644E72E131A029B85045B68181585D97816A916871CA8D3C208C16D87CFD47 SWAP1 DUP12 ADD CALLDATALOAD DUP2 SUB MOD PUSH1 0xA0 DUP13 ADD MSTORE DUP2 CALLDATALOAD PUSH1 0xC0 DUP13 ADD MSTORE DUP2 DUP11 ADD CALLDATALOAD PUSH1 0xE0 DUP13 ADD MSTORE PUSH1 0x40 DUP3 ADD CALLDATALOAD SWAP1 DUP12 ADD MSTORE PUSH1 0x60 ADD CALLDATALOAD SWAP1 DUP10 ADD MSTORE PUSH32 0x1558CA17177EDFFBD37145ABC36D4868D4E8FD7F0064971727EC8AF561E87D64 SWAP1 DUP9 ADD MSTORE PUSH32 0xAF533E07E568DFD457DC5B6803A92B0552907F7405E9E70B8AF9038681DE683 SWAP1 DUP8 ADD MSTORE PUSH32 0xD35864A9E4ADC5579A05134789F11724AFDFBE5BE3E6D372B2EE3E5A75FCDE7 SWAP1 DUP7 ADD MSTORE PUSH32 0x14727C80B65573F804DBC7CE08E6D4B1B60DCC85763548BF70B023FA7355C835 SWAP1 DUP6 ADD MSTORE PUSH32 0x1A18454F7EFEB9195180BAAFA65D56F9AC0A4C325DD396C3BCE7EA3524F609D4 PUSH2 0x1C0 DUP6 ADD MSTORE PUSH32 0x1AC5A32CCF36B0E789C153A1CCB9D5BD1F4619F98495CDC223B65CB9F2DEA58C PUSH2 0x1E0 DUP6 ADD MSTORE DUP4 MLOAD PUSH2 0x200 DUP6 ADD MSTORE MLOAD PUSH2 0x220 DUP5 ADD MSTORE PUSH32 0x198E9393920D483A7260BFB731FB5D25F1AA493335A9E71297E485B7AEF312C2 PUSH2 0x240 DUP5 ADD MSTORE PUSH32 0x1800DEEF121F1E76426A00665E5C4479674322D4F75EDADD46DEBD5CD992F6ED PUSH2 0x260 DUP5 ADD MSTORE PUSH32 0x90689D0585FF075EC9E99AD690C3395BC4B313370B38EF355ACDADCD122975B PUSH2 0x280 DUP5 ADD MSTORE PUSH32 0x12C85EA5DB8C6DEB4AAB71808DCB408FE3D1E7690C43D37B4CE6CC0166FA7DAA PUSH2 0x2A0 DUP5 ADD MSTORE DUP1 CALLDATALOAD PUSH2 0x2C0 DUP5 ADD MSTORE ADD CALLDATALOAD PUSH2 0x2E0 DUP3 ADD MSTORE PUSH32 0x2A4F8462A742B4A69336023EAFE5AEECA453449C6D2760E6D77505FD3D67E366 PUSH2 0x300 DUP1 DUP4 ADD SWAP2 SWAP1 SWAP2 MSTORE PUSH32 0xF6BB888F57904ECE4E0B6FC012A3249C4BA944521EF2015744B47018409E363 PUSH2 0x320 DUP4 ADD MSTORE PUSH32 0x2873856C6C31846EF27FBB6DA8BAC208361695E41A353514BC0A653603FF2C1D PUSH2 0x340 DUP4 ADD MSTORE PUSH32 0x27F9EDFDD970368BB4F4AD2B06F068D5D121C639B690F51CFCEAFFD7AA82FFF0 PUSH2 0x360 SWAP1 SWAP3 ADD SWAP2 SWAP1 SWAP2 MSTORE DUP2 PUSH2 0x7CF NOT GAS ADD PUSH1 0x8 SWAP1 STATICCALL SWAP1 MLOAD AND SWAP1 JUMP JUMPDEST SWAP2 PUSH2 0x3A4 SWAP4 SWAP2 PUSH1 0x40 MLOAD SWAP4 PUSH2 0x380 DUP6 ADD PUSH1 0x40 MSTORE PUSH2 0x2F0 DUP5 CALLDATALOAD PUSH2 0x43E JUMP INVALID LOG2 PUSH5 0x6970667358 0x22 SLT KECCAK256 0xD8 PUSH0 MOD SHR 0x23 SWAP8 CREATE2 0xB7 MLOAD KECCAK256 0xD9 0xAC 0xCA 0x23 BLOCKHASH 0xD9 0xB6 0xDD 0xC6 AND CODECOPY CALLDATALOAD DUP2 0xE5 0xFB 0x4F PUSH7 0xDC13518F046473 PUSH16 0x6C634300081400330000000000000000 "},"methodIdentifiers":{"buy(bytes32,uint256[2],uint256[2][2],uint256[2],uint256[14])":"637b07be","list(bytes32)":"13d49a8b","listings(bytes32)":"c18b8db4","verifyProof(uint256[2],uint256[2][2],uint256[2],uint256[14])":"8d15f88f"}}}}}