{"Verifier_zkp_nb100_tb5_m20.sol":{"Groth16Verifier":{"abi":[{"inputs":[{"internalType":"uint256[2]","name":"_pA","type":"uint256[2]"},{"internalType":"uint256[2][2]","name":"_pB","type":"uint256[2][2]"},{"internalType":"uint256[2]","name":"_pC","type":"uint256[2]"},{"internalType":"uint256[14]","name":"_pubSignals","type":"uint256[14]"}],"name":"verifyProof","outputs":[{"internalType":"bool","name":"","type":"bool"}],"stateMutability":"view","type":"function"}],"evm":{"bytecode":{"linkReferences":{},"object":"6080806040523461001657610cb3908161001c8239f35b600080fdfe6080604052600436101561001257600080fd5b6000803560e01c638d15f88f1461002857600080fd5b34610125576102c03660031901126101255761004336610128565b3660c411610121576100543661013a565b90366102c41161011d57602092916101199161040060405261007861010435610148565b61008461012435610148565b61009061014435610148565b61009c61016435610148565b6100a861018435610148565b6100b46101a435610148565b6100c06101c435610148565b6100cc6101e435610148565b6100d861020435610148565b6100e461022435610148565b6100f061024435610148565b6100fc61026435610148565b61010861028435610148565b6101146102a435610148565b610905565b8152f35b8280fd5b5080fd5b80fd5b9060049160441161013557565b600080fd5b9060c4916101041161013557565b7f30644e72e131a029b85045b68181585d2833e84879b9709143e1f593f0000001111561017157565b6000805260206000f35b604051907f14bd98b0a67134cbb5dff0d73a4dd54ce9fa0ec2fb5c509bcf56e2067aab705d82527f1543c680e5b57fce7ea772cec6d255d19a44b6c7ee43255339f5c12febfbc7e56020830152604082019081526107cf196040836060816007855a01fa156101715760409260066080939284938451905260a05160608401525a01fa1561017157565b604051907f18cfaab082581d1ee2aa0678f8275c362b700b955676a72ae6a3c7a2cdc189e082527f01298ceb9e3bcdfc847f2b665509649ddb11db91ea96e32ecdf7b78b2f7fb99e6020830152604082019081526107cf196040836060816007855a01fa156101715760409260066080939284938451905260a05160608401525a01fa1561017157565b604051907f216ebe9f73f28c29907ca46279723ad45e41195bd181de732387ab0d1595d71f82527edd5efec8bdec9a82a7792e78bc416ab976d7d96986eda6cd7d986a4f814fc86020830152604082019081526107cf196040836060816007855a01fa156101715760409260066080939284938451905260a05160608401525a01fa1561017157565b604051907f1bb3a3a2115edd4b97423b0c9c10b6b455bc00fa468184fec7ed68229530d52e82527f14f5d36c3f7adb685c79802ad4d3e42302eecc2a5fc52b3752f3d11d95695d856020830152604082019081526107cf196040836060816007855a01fa156101715760409260066080939284938451905260a05160608401525a01fa1561017157565b604051907f07e3cabbc05b25e7c1159c98be857119e666205a246748e76cae00b8057f88e882527f174d539cf49bb0088494d7d867f6f359d7984896987b2f6a49dda57180de07756020830152604082019081526107cf196040836060816007855a01fa156101715760409260066080939284938451905260a05160608401525a01fa1561017157565b604051907f0586c50acf7304daf088e354408d94b5b86ee96949732e7c76a10d3ffa9c3fb482527f08beffdb35160d156e397edff54c92e0e32cb3ed329468b0a8dc5dbc885082156020830152604082019081526107cf196040836060816007855a01fa156101715760409260066080939284938451905260a05160608401525a01fa1561017157565b604051907f0c4c897fc6a51e8381a397ce93daf348f77a0441a7d08d04b6e289dc60c4a71482527f1addd5d93df47c7a465a08d48659bbc005f1f30ecd9684023da364c7d91324e26020830152604082019081526107cf196040836060816007855a01fa156101715760409260066080939284938451905260a05160608401525a01fa1561017157565b604051907f20f4d8212218b77e9892c3b49b4ea087ae229dbbb21ed5438d392569155286b482527f0449f6fc645ec6fb94b62126f106ecf6766911491501f1aa127a4c09a68fa5f46020830152604082019081526107cf196040836060816007855a01fa156101715760409260066080939284938451905260a05160608401525a01fa1561017157565b604051907f19cf0d20461823aff42e8350b4720713d497e5880c1c8c363f837bbd702447da82527f0211d3b76257f358784b4cb9235f9ce44593269242febffb049b2311ec1ce16c6020830152604082019081526107cf196040836060816007855a01fa156101715760409260066080939284938451905260a05160608401525a01fa1561017157565b604051907f0c383d2276b61ec21d384c80e60f50b9dce56a56f0bd7204b23c6c26c15ddefa82527f05c9fef0a96ffb70885e63d7a45db4aef69c2a9323ae1a57ac6fc2b4453d57936020830152604082019081526107cf196040836060816007855a01fa156101715760409260066080939284938451905260a05160608401525a01fa1561017157565b604051907e60c5a756c6753fd8216bc8d0a8357175878214c74b59e6e904fc208c97f83f82527f12ba4e47b88c15aaa5e7bab8d96d0d3474ae0d8973b2bd2ebea3645af8042c086020830152604082019081526107cf196040836060816007855a01fa156101715760409260066080939284938451905260a05160608401525a01fa1561017157565b604051907f14fcf14bb7b2c611f0c812b3ef5af0f6ab55ca9ec8382a14caf99933cb967dca82527f28e48de7b529ae64ace93517023dcbc3bad4c7db0b7ae14414a54ae0da9b214d6020830152604082019081526107cf196040836060816007855a01fa156101715760409260066080939284938451905260a05160608401525a01fa1561017157565b604051907f21ff79ba214c6b497a15644882bc8f2d7c0a358abb46c950a4e94de535b6756782527f2505d3a5e72a32bb94b1cb4819223131cd84828e7698a0bdc9c2b5c457166a0b6020830152604082019081526107cf196040836060816007855a01fa156101715760409260066080939284938451905260a05160608401525a01fa1561017157565b604051907f1789387b50bddbf7223831d66b8cc53deb6c9a7705a5a5d61e6d5922af67a7c982527f060908113a785450bb3ad5e9425c296169b707c0d4c6a90d735a6fc24c16da7a6020830152604082019081526107cf196040836060816007855a01fa156101715760409260066080939284938451905260a05160608401525a01fa1561017157565b6020907f176478052f1bec108d4485117a4948a20a50a9b519e87f68e02b3cd07862d1546080527f093cfc8177928f25731553ac0f143d6c2d8c2d65f560c095cbd9d41e0abddd1760a05261095c6101043561017b565b61096861012435610205565b6109746101443561028f565b61098061016435610318565b61098c610184356103a2565b6109986101a43561042c565b6109a46101c4356104b6565b6109b06101e435610540565b6109bc610204356105ca565b6109c861022435610654565b6109d4610244356106de565b6109e061026435610767565b6109ec610284356107f1565b6109f86102a43561087b565b61010092818492358352837f30644e72e131a029b85045b68181585d97816a916871ca8d3c208c16d87cfd479101358103066101205260443561014052606435610160526084356101805260a4356101a0527f1558ca17177edffbd37145abc36d4868d4e8fd7f0064971727ec8af561e87d646101c0527f0af533e07e568dfd457dc5b6803a92b0552907f7405e9e70b8af9038681de6836101e0527f0d35864a9e4adc5579a05134789f11724afdfbe5be3e6d372b2ee3e5a75fcde7610200527f14727c80b65573f804dbc7ce08e6d4b1b60dcc85763548bf70b023fa7355c835610220527f1a18454f7efeb9195180baafa65d56f9ac0a4c325dd396c3bce7ea3524f609d4610240527f1ac5a32ccf36b0e789c153a1ccb9d5bd1f4619f98495cdc223b65cb9f2dea58c610260526080516102805260a0516102a0527f198e9393920d483a7260bfb731fb5d25f1aa493335a9e71297e485b7aef312c26102c0527f1800deef121f1e76426a00665e5c4479674322d4f75edadd46debd5cd992f6ed6102e05282610300917f090689d0585ff075ec9e99ad690c3395bc4b313370b38ef355acdadcd122975b83527f12c85ea5db8c6deb4aab71808dcb408fe3d1e7690c43d37b4ce6cc0166fa7daa610320528035610340520135610360527f2a4f8462a742b4a69336023eafe5aeeca453449c6d2760e6d77505fd3d67e366610380527f0f6bb888f57904ece4e0b6fc012a3249c4ba944521ef2015744b47018409e3636103a0527f2873856c6c31846ef27fbb6da8bac208361695e41a353514bc0a653603ff2c1d6103c0527f27f9edfdd970368bb4f4ad2b06f068d5d121c639b690f51cfceaffd7aa82fff06103e0528160086107cf195a01fa9051169056fea2646970667358221220da99954cbce95ed19cb22afd41ad9ba4f60992389713541e4dc55ecb6926741364736f6c63430008140033","opcodes":"PUSH1 0x80 DUP1 PUSH1 0x40 MSTORE CALLVALUE PUSH2 0x16 JUMPI PUSH2 0xCB3 SWAP1 DUP2 PUSH2 0x1C DUP3 CODECOPY RETURN JUMPDEST PUSH1 0x0 DUP1 REVERT INVALID PUSH1 0x80 PUSH1 0x40 MSTORE PUSH1 0x4 CALLDATASIZE LT ISZERO PUSH2 0x12 JUMPI PUSH1 0x0 DUP1 REVERT JUMPDEST PUSH1 0x0 DUP1 CALLDATALOAD PUSH1 0xE0 SHR PUSH4 0x8D15F88F EQ PUSH2 0x28 JUMPI PUSH1 0x0 DUP1 REVERT JUMPDEST CALLVALUE PUSH2 0x125 JUMPI PUSH2 0x2C0 CALLDATASIZE PUSH1 0x3 NOT ADD SLT PUSH2 0x125 JUMPI PUSH2 0x43 CALLDATASIZE PUSH2 0x128 JUMP JUMPDEST CALLDATASIZE PUSH1 0xC4 GT PUSH2 0x121 JUMPI PUSH2 0x54 CALLDATASIZE PUSH2 0x13A JUMP JUMPDEST SWAP1 CALLDATASIZE PUSH2 0x2C4 GT PUSH2 0x11D JUMPI PUSH1 0x20 SWAP3 SWAP2 PUSH2 0x119 SWAP2 PUSH2 0x400 PUSH1 0x40 MSTORE PUSH2 0x78 PUSH2 0x104 CALLDATALOAD PUSH2 0x148 JUMP JUMPDEST PUSH2 0x84 PUSH2 0x124 CALLDATALOAD PUSH2 0x148 JUMP JUMPDEST PUSH2 0x90 PUSH2 0x144 CALLDATALOAD PUSH2 0x148 JUMP JUMPDEST PUSH2 0x9C PUSH2 0x164 CALLDATALOAD PUSH2 0x148 JUMP JUMPDEST PUSH2 0xA8 PUSH2 0x184 CALLDATALOAD PUSH2 0x148 JUMP JUMPDEST PUSH2 0xB4 PUSH2 0x1A4 CALLDATALOAD PUSH2 0x148 JUMP JUMPDEST PUSH2 0xC0 PUSH2 0x1C4 CALLDATALOAD PUSH2 0x148 JUMP JUMPDEST PUSH2 0xCC PUSH2 0x1E4 CALLDATALOAD PUSH2 0x148 JUMP JUMPDEST PUSH2 0xD8 PUSH2 0x204 CALLDATALOAD PUSH2 0x148 JUMP JUMPDEST PUSH2 0xE4 PUSH2 0x224 CALLDATALOAD PUSH2 0x148 JUMP JUMPDEST PUSH2 0xF0 PUSH2 0x244 CALLDATALOAD PUSH2 0x148 JUMP JUMPDEST PUSH2 0xFC PUSH2 0x264 CALLDATALOAD PUSH2 0x148 JUMP JUMPDEST PUSH2 0x108 PUSH2 0x284 CALLDATALOAD PUSH2 0x148 JUMP JUMPDEST PUSH2 0x114 PUSH2 0x2A4 CALLDATALOAD PUSH2 0x148 JUMP JUMPDEST PUSH2 0x905 JUMP JUMPDEST DUP2 MSTORE RETURN JUMPDEST DUP3 DUP1 REVERT JUMPDEST POP DUP1 REVERT JUMPDEST DUP1 REVERT JUMPDEST SWAP1 PUSH1 0x4 SWAP2 PUSH1 0x44 GT PUSH2 0x135 JUMPI JUMP JUMPDEST PUSH1 0x0 DUP1 REVERT JUMPDEST SWAP1 PUSH1 0xC4 SWAP2 PUSH2 0x104 GT PUSH2 0x135 JUMPI JUMP JUMPDEST PUSH32 0x30644E72E131A029B85045B68181585D2833E84879B9709143E1F593F0000001 GT ISZERO PUSH2 0x171 JUMPI JUMP JUMPDEST PUSH1 0x0 DUP1 MSTORE PUSH1 0x20 PUSH1 0x0 RETURN JUMPDEST PUSH1 0x40 MLOAD SWAP1 PUSH32 0x14BD98B0A67134CBB5DFF0D73A4DD54CE9FA0EC2FB5C509BCF56E2067AAB705D DUP3 MSTORE PUSH32 0x1543C680E5B57FCE7EA772CEC6D255D19A44B6C7EE43255339F5C12FEBFBC7E5 PUSH1 0x20 DUP4 ADD MSTORE PUSH1 0x40 DUP3 ADD SWAP1 DUP2 MSTORE PUSH2 0x7CF NOT PUSH1 0x40 DUP4 PUSH1 0x60 DUP2 PUSH1 0x7 DUP6 GAS ADD STATICCALL ISZERO PUSH2 0x171 JUMPI PUSH1 0x40 SWAP3 PUSH1 0x6 PUSH1 0x80 SWAP4 SWAP3 DUP5 SWAP4 DUP5 MLOAD SWAP1 MSTORE PUSH1 0xA0 MLOAD PUSH1 0x60 DUP5 ADD MSTORE GAS ADD STATICCALL ISZERO PUSH2 0x171 JUMPI JUMP JUMPDEST PUSH1 0x40 MLOAD SWAP1 PUSH32 0x18CFAAB082581D1EE2AA0678F8275C362B700B955676A72AE6A3C7A2CDC189E0 DUP3 MSTORE PUSH32 0x1298CEB9E3BCDFC847F2B665509649DDB11DB91EA96E32ECDF7B78B2F7FB99E PUSH1 0x20 DUP4 ADD MSTORE PUSH1 0x40 DUP3 ADD SWAP1 DUP2 MSTORE PUSH2 0x7CF NOT PUSH1 0x40 DUP4 PUSH1 0x60 DUP2 PUSH1 0x7 DUP6 GAS ADD STATICCALL ISZERO PUSH2 0x171 JUMPI PUSH1 0x40 SWAP3 PUSH1 0x6 PUSH1 0x80 SWAP4 SWAP3 DUP5 SWAP4 DUP5 MLOAD SWAP1 MSTORE PUSH1 0xA0 MLOAD PUSH1 0x60 DUP5 ADD MSTORE GAS ADD STATICCALL ISZERO PUSH2 0x171 JUMPI JUMP JUMPDEST PUSH1 0x40 MLOAD SWAP1 PUSH32 0x216EBE9F73F28C29907CA46279723AD45E41195BD181DE732387AB0D1595D71F DUP3 MSTORE PUSH31 0xDD5EFEC8BDEC9A82A7792E78BC416AB976D7D96986EDA6CD7D986A4F814FC8 PUSH1 0x20 DUP4 ADD MSTORE PUSH1 0x40 DUP3 ADD SWAP1 DUP2 MSTORE PUSH2 0x7CF NOT PUSH1 0x40 DUP4 PUSH1 0x60 DUP2 PUSH1 0x7 DUP6 GAS ADD STATICCALL ISZERO PUSH2 0x171 JUMPI PUSH1 0x40 SWAP3 PUSH1 0x6 PUSH1 0x80 SWAP4 SWAP3 DUP5 SWAP4 DUP5 MLOAD SWAP1 MSTORE PUSH1 0xA0 MLOAD PUSH1 0x60 DUP5 ADD MSTORE GAS ADD STATICCALL ISZERO PUSH2 0x171 JUMPI JUMP JUMPDEST PUSH1 0x40 MLOAD SWAP1 PUSH32 0x1BB3A3A2115EDD4B97423B0C9C10B6B455BC00FA468184FEC7ED68229530D52E DUP3 MSTORE PUSH32 0x14F5D36C3F7ADB685C79802AD4D3E42302EECC2A5FC52B3752F3D11D95695D85 PUSH1 0x20 DUP4 ADD MSTORE PUSH1 0x40 DUP3 ADD SWAP1 DUP2 MSTORE PUSH2 0x7CF NOT PUSH1 0x40 DUP4 PUSH1 0x60 DUP2 PUSH1 0x7 DUP6 GAS ADD STATICCALL ISZERO PUSH2 0x171 JUMPI PUSH1 0x40 SWAP3 PUSH1 0x6 PUSH1 0x80 SWAP4 SWAP3 DUP5 SWAP4 DUP5 MLOAD SWAP1 MSTORE PUSH1 0xA0 MLOAD PUSH1 0x60 DUP5 ADD MSTORE GAS ADD STATICCALL ISZERO PUSH2 0x171 JUMPI JUMP JUMPDEST PUSH1 0x40 MLOAD SWAP1 PUSH32 0x7E3CABBC05B25E7C1159C98BE857119E666205A246748E76CAE00B8057F88E8 DUP3 MSTORE PUSH32 0x174D539CF49BB0088494D7D867F6F359D7984896987B2F6A49DDA57180DE0775 PUSH1 0x20 DUP4 ADD MSTORE PUSH1 0x40 DUP3 ADD SWAP1 DUP2 MSTORE PUSH2 0x7CF NOT PUSH1 0x40 DUP4 PUSH1 0x60 DUP2 PUSH1 0x7 DUP6 GAS ADD STATICCALL ISZERO PUSH2 0x171 JUMPI PUSH1 0x40 SWAP3 PUSH1 0x6 PUSH1 0x80 SWAP4 SWAP3 DUP5 SWAP4 DUP5 MLOAD SWAP1 MSTORE PUSH1 0xA0 MLOAD PUSH1 0x60 DUP5 ADD MSTORE GAS ADD STATICCALL ISZERO PUSH2 0x171 JUMPI JUMP JUMPDEST PUSH1 0x40 MLOAD SWAP1 PUSH32 0x586C50ACF7304DAF088E354408D94B5B86EE96949732E7C76A10D3FFA9C3FB4 DUP3 MSTORE PUSH32 0x8BEFFDB35160D156E397EDFF54C92E0E32CB3ED329468B0A8DC5DBC88508215 PUSH1 0x20 DUP4 ADD MSTORE PUSH1 0x40 DUP3 ADD SWAP1 DUP2 MSTORE PUSH2 0x7CF NOT PUSH1 0x40 DUP4 PUSH1 0x60 DUP2 PUSH1 0x7 DUP6 GAS ADD STATICCALL ISZERO PUSH2 0x171 JUMPI PUSH1 0x40 SWAP3 PUSH1 0x6 PUSH1 0x80 SWAP4 SWAP3 DUP5 SWAP4 DUP5 MLOAD SWAP1 MSTORE PUSH1 0xA0 MLOAD PUSH1 0x60 DUP5 ADD MSTORE GAS ADD STATICCALL ISZERO PUSH2 0x171 JUMPI JUMP JUMPDEST PUSH1 0x40 MLOAD SWAP1 PUSH32 0xC4C897FC6A51E8381A397CE93DAF348F77A0441A7D08D04B6E289DC60C4A714 DUP3 MSTORE PUSH32 0x1ADDD5D93DF47C7A465A08D48659BBC005F1F30ECD9684023DA364C7D91324E2 PUSH1 0x20 DUP4 ADD MSTORE PUSH1 0x40 DUP3 ADD SWAP1 DUP2 MSTORE PUSH2 0x7CF NOT PUSH1 0x40 DUP4 PUSH1 0x60 DUP2 PUSH1 0x7 DUP6 GAS ADD STATICCALL ISZERO PUSH2 0x171 JUMPI PUSH1 0x40 SWAP3 PUSH1 0x6 PUSH1 0x80 SWAP4 SWAP3 DUP5 SWAP4 DUP5 MLOAD SWAP1 MSTORE PUSH1 0xA0 MLOAD PUSH1 0x60 DUP5 ADD MSTORE GAS ADD STATICCALL ISZERO PUSH2 0x171 JUMPI JUMP JUMPDEST PUSH1 0x40 MLOAD SWAP1 PUSH32 0x20F4D8212218B77E9892C3B49B4EA087AE229DBBB21ED5438D392569155286B4 DUP3 MSTORE PUSH32 0x449F6FC645EC6FB94B62126F106ECF6766911491501F1AA127A4C09A68FA5F4 PUSH1 0x20 DUP4 ADD MSTORE PUSH1 0x40 DUP3 ADD SWAP1 DUP2 MSTORE PUSH2 0x7CF NOT PUSH1 0x40 DUP4 PUSH1 0x60 DUP2 PUSH1 0x7 DUP6 GAS ADD STATICCALL ISZERO PUSH2 0x171 JUMPI PUSH1 0x40 SWAP3 PUSH1 0x6 PUSH1 0x80 SWAP4 SWAP3 DUP5 SWAP4 DUP5 MLOAD SWAP1 MSTORE PUSH1 0xA0 MLOAD PUSH1 0x60 DUP5 ADD MSTORE GAS ADD STATICCALL ISZERO PUSH2 0x171 JUMPI JUMP JUMPDEST PUSH1 0x40 MLOAD SWAP1 PUSH32 0x19CF0D20461823AFF42E8350B4720713D497E5880C1C8C363F837BBD702447DA DUP3 MSTORE PUSH32 0x211D3B76257F358784B4CB9235F9CE44593269242FEBFFB049B2311EC1CE16C PUSH1 0x20 DUP4 ADD MSTORE PUSH1 0x40 DUP3 ADD SWAP1 DUP2 MSTORE PUSH2 0x7CF NOT PUSH1 0x40 DUP4 PUSH1 0x60 DUP2 PUSH1 0x7 DUP6 GAS ADD STATICCALL ISZERO PUSH2 0x171 JUMPI PUSH1 0x40 SWAP3 PUSH1 0x6 PUSH1 0x80 SWAP4 SWAP3 DUP5 SWAP4 DUP5 MLOAD SWAP1 MSTORE PUSH1 0xA0 MLOAD PUSH1 0x60 DUP5 ADD MSTORE GAS ADD STATICCALL ISZERO PUSH2 0x171 JUMPI JUMP JUMPDEST PUSH1 0x40 MLOAD SWAP1 PUSH32 0xC383D2276B61EC21D384C80E60F50B9DCE56A56F0BD7204B23C6C26C15DDEFA DUP3 MSTORE PUSH32 0x5C9FEF0A96FFB70885E63D7A45DB4AEF69C2A9323AE1A57AC6FC2B4453D5793 PUSH1 0x20 DUP4 ADD MSTORE PUSH1 0x40 DUP3 ADD SWAP1 DUP2 MSTORE PUSH2 0x7CF NOT PUSH1 0x40 DUP4 PUSH1 0x60 DUP2 PUSH1 0x7 DUP6 GAS ADD STATICCALL ISZERO PUSH2 0x171 JUMPI PUSH1 0x40 SWAP3 PUSH1 0x6 PUSH1 0x80 SWAP4 SWAP3 DUP5 SWAP4 DUP5 MLOAD SWAP1 MSTORE PUSH1 0xA0 MLOAD PUSH1 0x60 DUP5 ADD MSTORE GAS ADD STATICCALL ISZERO PUSH2 0x171 JUMPI JUMP JUMPDEST PUSH1 0x40 MLOAD SWAP1 PUSH31 0x60C5A756C6753FD8216BC8D0A8357175878214C74B59E6E904FC208C97F83F DUP3 MSTORE PUSH32 0x12BA4E47B88C15AAA5E7BAB8D96D0D3474AE0D8973B2BD2EBEA3645AF8042C08 PUSH1 0x20 DUP4 ADD MSTORE PUSH1 0x40 DUP3 ADD SWAP1 DUP2 MSTORE PUSH2 0x7CF NOT PUSH1 0x40 DUP4 PUSH1 0x60 DUP2 PUSH1 0x7 DUP6 GAS ADD STATICCALL ISZERO PUSH2 0x171 JUMPI PUSH1 0x40 SWAP3 PUSH1 0x6 PUSH1 0x80 SWAP4 SWAP3 DUP5 SWAP4 DUP5 MLOAD SWAP1 MSTORE PUSH1 0xA0 MLOAD PUSH1 0x60 DUP5 ADD MSTORE GAS ADD STATICCALL ISZERO PUSH2 0x171 JUMPI JUMP JUMPDEST PUSH1 0x40 MLOAD SWAP1 PUSH32 0x14FCF14BB7B2C611F0C812B3EF5AF0F6AB55CA9EC8382A14CAF99933CB967DCA DUP3 MSTORE PUSH32 0x28E48DE7B529AE64ACE93517023DCBC3BAD4C7DB0B7AE14414A54AE0DA9B214D PUSH1 0x20 DUP4 ADD MSTORE PUSH1 0x40 DUP3 ADD SWAP1 DUP2 MSTORE PUSH2 0x7CF NOT PUSH1 0x40 DUP4 PUSH1 0x60 DUP2 PUSH1 0x7 DUP6 GAS ADD STATICCALL ISZERO PUSH2 0x171 JUMPI PUSH1 0x40 SWAP3 PUSH1 0x6 PUSH1 0x80 SWAP4 SWAP3 DUP5 SWAP4 DUP5 MLOAD SWAP1 MSTORE PUSH1 0xA0 MLOAD PUSH1 0x60 DUP5 ADD MSTORE GAS ADD STATICCALL ISZERO PUSH2 0x171 JUMPI JUMP JUMPDEST PUSH1 0x40 MLOAD SWAP1 PUSH32 0x21FF79BA214C6B497A15644882BC8F2D7C0A358ABB46C950A4E94DE535B67567 DUP3 MSTORE PUSH32 0x2505D3A5E72A32BB94B1CB4819223131CD84828E7698A0BDC9C2B5C457166A0B PUSH1 0x20 DUP4 ADD MSTORE PUSH1 0x40 DUP3 ADD SWAP1 DUP2 MSTORE PUSH2 0x7CF NOT PUSH1 0x40 DUP4 PUSH1 0x60 DUP2 PUSH1 0x7 DUP6 GAS ADD STATICCALL ISZERO PUSH2 0x171 JUMPI PUSH1 0x40 SWAP3 PUSH1 0x6 PUSH1 0x80 SWAP4 SWAP3 DUP5 SWAP4 DUP5 MLOAD SWAP1 MSTORE PUSH1 0xA0 MLOAD PUSH1 0x60 DUP5 ADD MSTORE GAS ADD STATICCALL ISZERO PUSH2 0x171 JUMPI JUMP JUMPDEST PUSH1 0x40 MLOAD SWAP1 PUSH32 0x1789387B50BDDBF7223831D66B8CC53DEB6C9A7705A5A5D61E6D5922AF67A7C9 DUP3 MSTORE PUSH32 0x60908113A785450BB3AD5E9425C296169B707C0D4C6A90D735A6FC24C16DA7A PUSH1 0x20 DUP4 ADD MSTORE PUSH1 0x40 DUP3 ADD SWAP1 DUP2 MSTORE PUSH2 0x7CF NOT PUSH1 0x40 DUP4 PUSH1 0x60 DUP2 PUSH1 0x7 DUP6 GAS ADD STATICCALL ISZERO PUSH2 0x171 JUMPI PUSH1 0x40 SWAP3 PUSH1 0x6 PUSH1 0x80 SWAP4 SWAP3 DUP5 SWAP4 DUP5 MLOAD SWAP1 MSTORE PUSH1 0xA0 MLOAD PUSH1 0x60 DUP5 ADD MSTORE GAS ADD STATICCALL ISZERO PUSH2 0x171 JUMPI JUMP JUMPDEST PUSH1 0x20 SWAP1 PUSH32 0x176478052F1BEC108D4485117A4948A20A50A9B519E87F68E02B3CD07862D154 PUSH1 0x80 MSTORE PUSH32 0x93CFC8177928F25731553AC0F143D6C2D8C2D65F560C095CBD9D41E0ABDDD17 PUSH1 0xA0 MSTORE PUSH2 0x95C PUSH2 0x104 CALLDATALOAD PUSH2 0x17B JUMP JUMPDEST PUSH2 0x968 PUSH2 0x124 CALLDATALOAD PUSH2 0x205 JUMP JUMPDEST PUSH2 0x974 PUSH2 0x144 CALLDATALOAD PUSH2 0x28F JUMP JUMPDEST PUSH2 0x980 PUSH2 0x164 CALLDATALOAD PUSH2 0x318 JUMP JUMPDEST PUSH2 0x98C PUSH2 0x184 CALLDATALOAD PUSH2 0x3A2 JUMP JUMPDEST PUSH2 0x998 PUSH2 0x1A4 CALLDATALOAD PUSH2 0x42C JUMP JUMPDEST PUSH2 0x9A4 PUSH2 0x1C4 CALLDATALOAD PUSH2 0x4B6 JUMP JUMPDEST PUSH2 0x9B0 PUSH2 0x1E4 CALLDATALOAD PUSH2 0x540 JUMP JUMPDEST PUSH2 0x9BC PUSH2 0x204 CALLDATALOAD PUSH2 0x5CA JUMP JUMPDEST PUSH2 0x9C8 PUSH2 0x224 CALLDATALOAD PUSH2 0x654 JUMP JUMPDEST PUSH2 0x9D4 PUSH2 0x244 CALLDATALOAD PUSH2 0x6DE JUMP JUMPDEST PUSH2 0x9E0 PUSH2 0x264 CALLDATALOAD PUSH2 0x767 JUMP JUMPDEST PUSH2 0x9EC PUSH2 0x284 CALLDATALOAD PUSH2 0x7F1 JUMP JUMPDEST PUSH2 0x9F8 PUSH2 0x2A4 CALLDATALOAD PUSH2 0x87B JUMP JUMPDEST PUSH2 0x100 SWAP3 DUP2 DUP5 SWAP3 CALLDATALOAD DUP4 MSTORE DUP4 PUSH32 0x30644E72E131A029B85045B68181585D97816A916871CA8D3C208C16D87CFD47 SWAP2 ADD CALLDATALOAD DUP2 SUB MOD PUSH2 0x120 MSTORE PUSH1 0x44 CALLDATALOAD PUSH2 0x140 MSTORE PUSH1 0x64 CALLDATALOAD PUSH2 0x160 MSTORE PUSH1 0x84 CALLDATALOAD PUSH2 0x180 MSTORE PUSH1 0xA4 CALLDATALOAD PUSH2 0x1A0 MSTORE PUSH32 0x1558CA17177EDFFBD37145ABC36D4868D4E8FD7F0064971727EC8AF561E87D64 PUSH2 0x1C0 MSTORE PUSH32 0xAF533E07E568DFD457DC5B6803A92B0552907F7405E9E70B8AF9038681DE683 PUSH2 0x1E0 MSTORE PUSH32 0xD35864A9E4ADC5579A05134789F11724AFDFBE5BE3E6D372B2EE3E5A75FCDE7 PUSH2 0x200 MSTORE PUSH32 0x14727C80B65573F804DBC7CE08E6D4B1B60DCC85763548BF70B023FA7355C835 PUSH2 0x220 MSTORE PUSH32 0x1A18454F7EFEB9195180BAAFA65D56F9AC0A4C325DD396C3BCE7EA3524F609D4 PUSH2 0x240 MSTORE PUSH32 0x1AC5A32CCF36B0E789C153A1CCB9D5BD1F4619F98495CDC223B65CB9F2DEA58C PUSH2 0x260 MSTORE PUSH1 0x80 MLOAD PUSH2 0x280 MSTORE PUSH1 0xA0 MLOAD PUSH2 0x2A0 MSTORE PUSH32 0x198E9393920D483A7260BFB731FB5D25F1AA493335A9E71297E485B7AEF312C2 PUSH2 0x2C0 MSTORE PUSH32 0x1800DEEF121F1E76426A00665E5C4479674322D4F75EDADD46DEBD5CD992F6ED PUSH2 0x2E0 MSTORE DUP3 PUSH2 0x300 SWAP2 PUSH32 0x90689D0585FF075EC9E99AD690C3395BC4B313370B38EF355ACDADCD122975B DUP4 MSTORE PUSH32 0x12C85EA5DB8C6DEB4AAB71808DCB408FE3D1E7690C43D37B4CE6CC0166FA7DAA PUSH2 0x320 MSTORE DUP1 CALLDATALOAD PUSH2 0x340 MSTORE ADD CALLDATALOAD PUSH2 0x360 MSTORE PUSH32 0x2A4F8462A742B4A69336023EAFE5AEECA453449C6D2760E6D77505FD3D67E366 PUSH2 0x380 MSTORE PUSH32 0xF6BB888F57904ECE4E0B6FC012A3249C4BA944521EF2015744B47018409E363 PUSH2 0x3A0 MSTORE PUSH32 0x2873856C6C31846EF27FBB6DA8BAC208361695E41A353514BC0A653603FF2C1D PUSH2 0x3C0 MSTORE PUSH32 0x27F9EDFDD970368BB4F4AD2B06F068D5D121C639B690F51CFCEAFFD7AA82FFF0 PUSH2 0x3E0 MSTORE DUP2 PUSH1 0x8 PUSH2 0x7CF NOT GAS ADD STATICCALL SWAP1 MLOAD AND SWAP1 JUMP INVALID LOG2 PUSH5 0x6970667358 0x22 SLT KECCAK256 0xDA SWAP10 SWAP6 0x4C 0xBC 0xE9 0x5E 0xD1 SWAP13 0xB2 0x2A REVERT COINBASE 0xAD SWAP12 LOG4 0xF6 MULMOD SWAP3 CODESIZE SWAP8 SGT SLOAD 0x1E 0x4D 0xC5 0x5E 0xCB PUSH10 0x26741364736F6C634300 ADDMOD EQ STOP CALLER "},"methodIdentifiers":{"verifyProof(uint256[2],uint256[2][2],uint256[2],uint256[14])":"8d15f88f"}}}}}