{"Verifier_zkp_nb500_tb5_m50.sol":{"Groth16Verifier":{"abi":[{"inputs":[{"internalType":"uint256[2]","name":"_pA","type":"uint256[2]"},{"internalType":"uint256[2][2]","name":"_pB","type":"uint256[2][2]"},{"internalType":"uint256[2]","name":"_pC","type":"uint256[2]"},{"internalType":"uint256[14]","name":"_pubSignals","type":"uint256[14]"}],"name":"verifyProof","outputs":[{"internalType":"bool","name":"","type":"bool"}],"stateMutability":"view","type":"function"}],"evm":{"bytecode":{"linkReferences":{},"object":"6080806040523461001657610cb4908161001c8239f35b600080fdfe6080604052600436101561001257600080fd5b6000803560e01c638d15f88f1461002857600080fd5b34610125576102c03660031901126101255761004336610128565b3660c411610121576100543661013a565b90366102c41161011d57602092916101199161040060405261007861010435610148565b61008461012435610148565b61009061014435610148565b61009c61016435610148565b6100a861018435610148565b6100b46101a435610148565b6100c06101c435610148565b6100cc6101e435610148565b6100d861020435610148565b6100e461022435610148565b6100f061024435610148565b6100fc61026435610148565b61010861028435610148565b6101146102a435610148565b610906565b8152f35b8280fd5b5080fd5b80fd5b9060049160441161013557565b600080fd5b9060c4916101041161013557565b7f30644e72e131a029b85045b68181585d2833e84879b9709143e1f593f0000001111561017157565b6000805260206000f35b604051907f278e32b81123aa32e0b89b56194642a5039d31282d01e750c87373c05b19994f82527f2679283d8ea49cc0b8a81d16737501489c9c056b8d7cd27bc1cea8fc0cd2c5656020830152604082019081526107cf196040836060816007855a01fa156101715760409260066080939284938451905260a05160608401525a01fa1561017157565b604051907f0b2631de4557b222053c72799e22f1e145510c6b3df7f4f0d744e7a7f0ff552982527f122067a80c5fb3300f31199f23e65639c564fce9f4529b64ae7e795f8d53e2936020830152604082019081526107cf196040836060816007855a01fa156101715760409260066080939284938451905260a05160608401525a01fa1561017157565b604051907f0f3963aa4d8ac952d5ec826636f0ef3cc94f64880d967bbab5191708a02d5af182527ed77d42eb0eca49c464459fad61d19c2364bbcd833845ffb602bb8030c032ac6020830152604082019081526107cf196040836060816007855a01fa156101715760409260066080939284938451905260a05160608401525a01fa1561017157565b604051907f18d53ab042752964da96068542ae766f1bff9d85898225202278fc7a8d746b5082527f186b3d2c1d1dd1098df60b5575611f3786703942230c22266855d43a677709446020830152604082019081526107cf196040836060816007855a01fa156101715760409260066080939284938451905260a05160608401525a01fa1561017157565b604051907f24e22fdd18545335aa0dbb7e8e97093e6e048484ac91cc6946cb348b1c0049b782527f15ac64b0a73b84fe8e1debc45017cc93be38edde9ae6ab9a6176a335567b4bbd6020830152604082019081526107cf196040836060816007855a01fa156101715760409260066080939284938451905260a05160608401525a01fa1561017157565b604051907f067f2572fbaf2f1177edb24d26c7041f58d730e0ba56bf9c732983ffdaaa8a1382527f0962d41bd971c0aaf25b64589160888fde20b5f5da12110ed9075d0d5d5c57fa6020830152604082019081526107cf196040836060816007855a01fa156101715760409260066080939284938451905260a05160608401525a01fa1561017157565b604051907f1848e4e7546a1436e80f37c29b43a13fe9ab6c0194c7dc3747698a1672900db482527f27511d1bc26c944ccae5e69af5aa7e0b6d3907a25b23547482f32230a0fe3e6f6020830152604082019081526107cf196040836060816007855a01fa156101715760409260066080939284938451905260a05160608401525a01fa1561017157565b604051907f30160952d9b708b3d1b0034670e47d20598709625a85c148a1986d068606069c82527f1bac696e8a848306cdde84bd958092b2c1da783cc1ddf98f2072c301c41ad4d76020830152604082019081526107cf196040836060816007855a01fa156101715760409260066080939284938451905260a05160608401525a01fa1561017157565b604051907f0b39072bec869b258c7f1761c070919d3f18c2b127ac94e9df929742d5a8213f82527f1a5c0762bde8dc9a61fb696bb72bed547be82e11b30a9416a260e844f760da836020830152604082019081526107cf196040836060816007855a01fa156101715760409260066080939284938451905260a05160608401525a01fa1561017157565b604051907f18489854b26c31f294059b88b62766568248a5ea42e79fa89972f96aa063f3e882527f01e214ba31a6d4e5b3387500cae4cd2a6ca8443a50ebf0fad5192bfd427c94c36020830152604082019081526107cf196040836060816007855a01fa156101715760409260066080939284938451905260a05160608401525a01fa1561017157565b604051907f0f685d36439db94868007ad679ad4c96268f9826fe2c742e6e353ca835ea79e182527f1fb4bd8b126eec3bb837bc161cbdec26e462326b0fbd03ca562ad1f600c260cc6020830152604082019081526107cf196040836060816007855a01fa156101715760409260066080939284938451905260a05160608401525a01fa1561017157565b604051907f18c682cf147a33c84cc329feaa7ee97510aced55499a8e6a624e33f2f245fc9f82527f05a263dd525dde1e17d311d5e3181f097b06b7a17549a236ff58a07590f673a06020830152604082019081526107cf196040836060816007855a01fa156101715760409260066080939284938451905260a05160608401525a01fa1561017157565b604051907f0f52ef516effffd077ddad2d8ba64d6369f86a19b96fd422b0cbb97eab2d427c82527f24aa4e103b71a38304ce2c33981afcff9aa2e1b5ce0092a828301d68e4caf1fd6020830152604082019081526107cf196040836060816007855a01fa156101715760409260066080939284938451905260a05160608401525a01fa1561017157565b604051907f07e1d249a45aae48721161b2e93446da0eff9b44fbfb9d33e5e893fbfa5e5c0182527f244cd76fb118252c8811760de18fde4408fd3df8b94fd6be21ed25c0cf75a5036020830152604082019081526107cf196040836060816007855a01fa156101715760409260066080939284938451905260a05160608401525a01fa1561017157565b6020907f2343c45dfe7e35aa26dbc7d4f6985ac3154b581be6e51f0aa543af68aebe922a6080527f0bc191ec3f0c074c99d4d40b85e6ce6bf4b5d5892fc0da2c3d0047eff717364c60a05261095d6101043561017b565b61096961012435610205565b6109756101443561028f565b61098161016435610318565b61098d610184356103a2565b6109996101a43561042c565b6109a56101c4356104b6565b6109b16101e435610540565b6109bd610204356105ca565b6109c961022435610654565b6109d5610244356106de565b6109e161026435610768565b6109ed610284356107f2565b6109f96102a43561087c565b61010092818492358352837f30644e72e131a029b85045b68181585d97816a916871ca8d3c208c16d87cfd479101358103066101205260443561014052606435610160526084356101805260a4356101a0527f0f3627249c9e87994305e92844213d29794ae3eeb90a6612932cee913afbec8d6101c0527f0c7f49704d6ca69fc97bb698c6cdc61f22a826399448de48f4c88c044b7332286101e0527f26c971a7fa7cb9a7a816d7ba5bd16e45a94f371820da3fea7f868d214ced53cc610200527f1335e0e8e136f4bbdabacf371381ae6d6b09bba7cb434b80fd4bac131f47a03a610220527f1bf9c677a5db708bfb6eb8abc04e0774e5fcab442637beaa4b7a9ae389d9d0e3610240527f184639c5dc735ce675d70d0e6f97cf8a3c247023dc8dc317dc6c978506e392d7610260526080516102805260a0516102a0527f198e9393920d483a7260bfb731fb5d25f1aa493335a9e71297e485b7aef312c26102c0527f1800deef121f1e76426a00665e5c4479674322d4f75edadd46debd5cd992f6ed6102e05282610300917f090689d0585ff075ec9e99ad690c3395bc4b313370b38ef355acdadcd122975b83527f12c85ea5db8c6deb4aab71808dcb408fe3d1e7690c43d37b4ce6cc0166fa7daa610320528035610340520135610360527f1ed7ecbf6fec57dbe47a00d6acdcca6a4bd630e23957b1980575297fe06a0602610380527f14ec958e12541fce3c6501b4a01a1b91ead557d44f2b64370b505b1e15b913a26103a0527f241fd20dbcaa443c6cfe2a27891ba4d3d891e0fcbe211429ce3eb617ab51228c6103c0527f292a2af42f920812447f6006ca95cf417d0e51bce3a981752282d0a14c80968d6103e0528160086107cf195a01fa9051169056fea2646970667358221220c1950b54bc506dd180f6cc5a029704691424f8aea11e48af3cf68ea8739a696d64736f6c63430008140033","opcodes":"PUSH1 0x80 DUP1 PUSH1 0x40 MSTORE CALLVALUE PUSH2 0x16 JUMPI PUSH2 0xCB4 SWAP1 DUP2 PUSH2 0x1C DUP3 CODECOPY RETURN JUMPDEST PUSH1 0x0 DUP1 REVERT INVALID PUSH1 0x80 PUSH1 0x40 MSTORE PUSH1 0x4 CALLDATASIZE LT ISZERO PUSH2 0x12 JUMPI PUSH1 0x0 DUP1 REVERT JUMPDEST PUSH1 0x0 DUP1 CALLDATALOAD PUSH1 0xE0 SHR PUSH4 0x8D15F88F EQ PUSH2 0x28 JUMPI PUSH1 0x0 DUP1 REVERT JUMPDEST CALLVALUE PUSH2 0x125 JUMPI PUSH2 0x2C0 CALLDATASIZE PUSH1 0x3 NOT ADD SLT PUSH2 0x125 JUMPI PUSH2 0x43 CALLDATASIZE PUSH2 0x128 JUMP JUMPDEST CALLDATASIZE PUSH1 0xC4 GT PUSH2 0x121 JUMPI PUSH2 0x54 CALLDATASIZE PUSH2 0x13A JUMP JUMPDEST SWAP1 CALLDATASIZE PUSH2 0x2C4 GT PUSH2 0x11D JUMPI PUSH1 0x20 SWAP3 SWAP2 PUSH2 0x119 SWAP2 PUSH2 0x400 PUSH1 0x40 MSTORE PUSH2 0x78 PUSH2 0x104 CALLDATALOAD PUSH2 0x148 JUMP JUMPDEST PUSH2 0x84 PUSH2 0x124 CALLDATALOAD PUSH2 0x148 JUMP JUMPDEST PUSH2 0x90 PUSH2 0x144 CALLDATALOAD PUSH2 0x148 JUMP JUMPDEST PUSH2 0x9C PUSH2 0x164 CALLDATALOAD PUSH2 0x148 JUMP JUMPDEST PUSH2 0xA8 PUSH2 0x184 CALLDATALOAD PUSH2 0x148 JUMP JUMPDEST PUSH2 0xB4 PUSH2 0x1A4 CALLDATALOAD PUSH2 0x148 JUMP JUMPDEST PUSH2 0xC0 PUSH2 0x1C4 CALLDATALOAD PUSH2 0x148 JUMP JUMPDEST PUSH2 0xCC PUSH2 0x1E4 CALLDATALOAD PUSH2 0x148 JUMP JUMPDEST PUSH2 0xD8 PUSH2 0x204 CALLDATALOAD PUSH2 0x148 JUMP JUMPDEST PUSH2 0xE4 PUSH2 0x224 CALLDATALOAD PUSH2 0x148 JUMP JUMPDEST PUSH2 0xF0 PUSH2 0x244 CALLDATALOAD PUSH2 0x148 JUMP JUMPDEST PUSH2 0xFC PUSH2 0x264 CALLDATALOAD PUSH2 0x148 JUMP JUMPDEST PUSH2 0x108 PUSH2 0x284 CALLDATALOAD PUSH2 0x148 JUMP JUMPDEST PUSH2 0x114 PUSH2 0x2A4 CALLDATALOAD PUSH2 0x148 JUMP JUMPDEST PUSH2 0x906 JUMP JUMPDEST DUP2 MSTORE RETURN JUMPDEST DUP3 DUP1 REVERT JUMPDEST POP DUP1 REVERT JUMPDEST DUP1 REVERT JUMPDEST SWAP1 PUSH1 0x4 SWAP2 PUSH1 0x44 GT PUSH2 0x135 JUMPI JUMP JUMPDEST PUSH1 0x0 DUP1 REVERT JUMPDEST SWAP1 PUSH1 0xC4 SWAP2 PUSH2 0x104 GT PUSH2 0x135 JUMPI JUMP JUMPDEST PUSH32 0x30644E72E131A029B85045B68181585D2833E84879B9709143E1F593F0000001 GT ISZERO PUSH2 0x171 JUMPI JUMP JUMPDEST PUSH1 0x0 DUP1 MSTORE PUSH1 0x20 PUSH1 0x0 RETURN JUMPDEST PUSH1 0x40 MLOAD SWAP1 PUSH32 0x278E32B81123AA32E0B89B56194642A5039D31282D01E750C87373C05B19994F DUP3 MSTORE PUSH32 0x2679283D8EA49CC0B8A81D16737501489C9C056B8D7CD27BC1CEA8FC0CD2C565 PUSH1 0x20 DUP4 ADD MSTORE PUSH1 0x40 DUP3 ADD SWAP1 DUP2 MSTORE PUSH2 0x7CF NOT PUSH1 0x40 DUP4 PUSH1 0x60 DUP2 PUSH1 0x7 DUP6 GAS ADD STATICCALL ISZERO PUSH2 0x171 JUMPI PUSH1 0x40 SWAP3 PUSH1 0x6 PUSH1 0x80 SWAP4 SWAP3 DUP5 SWAP4 DUP5 MLOAD SWAP1 MSTORE PUSH1 0xA0 MLOAD PUSH1 0x60 DUP5 ADD MSTORE GAS ADD STATICCALL ISZERO PUSH2 0x171 JUMPI JUMP JUMPDEST PUSH1 0x40 MLOAD SWAP1 PUSH32 0xB2631DE4557B222053C72799E22F1E145510C6B3DF7F4F0D744E7A7F0FF5529 DUP3 MSTORE PUSH32 0x122067A80C5FB3300F31199F23E65639C564FCE9F4529B64AE7E795F8D53E293 PUSH1 0x20 DUP4 ADD MSTORE PUSH1 0x40 DUP3 ADD SWAP1 DUP2 MSTORE PUSH2 0x7CF NOT PUSH1 0x40 DUP4 PUSH1 0x60 DUP2 PUSH1 0x7 DUP6 GAS ADD STATICCALL ISZERO PUSH2 0x171 JUMPI PUSH1 0x40 SWAP3 PUSH1 0x6 PUSH1 0x80 SWAP4 SWAP3 DUP5 SWAP4 DUP5 MLOAD SWAP1 MSTORE PUSH1 0xA0 MLOAD PUSH1 0x60 DUP5 ADD MSTORE GAS ADD STATICCALL ISZERO PUSH2 0x171 JUMPI JUMP JUMPDEST PUSH1 0x40 MLOAD SWAP1 PUSH32 0xF3963AA4D8AC952D5EC826636F0EF3CC94F64880D967BBAB5191708A02D5AF1 DUP3 MSTORE PUSH31 0xD77D42EB0ECA49C464459FAD61D19C2364BBCD833845FFB602BB8030C032AC PUSH1 0x20 DUP4 ADD MSTORE PUSH1 0x40 DUP3 ADD SWAP1 DUP2 MSTORE PUSH2 0x7CF NOT PUSH1 0x40 DUP4 PUSH1 0x60 DUP2 PUSH1 0x7 DUP6 GAS ADD STATICCALL ISZERO PUSH2 0x171 JUMPI PUSH1 0x40 SWAP3 PUSH1 0x6 PUSH1 0x80 SWAP4 SWAP3 DUP5 SWAP4 DUP5 MLOAD SWAP1 MSTORE PUSH1 0xA0 MLOAD PUSH1 0x60 DUP5 ADD MSTORE GAS ADD STATICCALL ISZERO PUSH2 0x171 JUMPI JUMP JUMPDEST PUSH1 0x40 MLOAD SWAP1 PUSH32 0x18D53AB042752964DA96068542AE766F1BFF9D85898225202278FC7A8D746B50 DUP3 MSTORE PUSH32 0x186B3D2C1D1DD1098DF60B5575611F3786703942230C22266855D43A67770944 PUSH1 0x20 DUP4 ADD MSTORE PUSH1 0x40 DUP3 ADD SWAP1 DUP2 MSTORE PUSH2 0x7CF NOT PUSH1 0x40 DUP4 PUSH1 0x60 DUP2 PUSH1 0x7 DUP6 GAS ADD STATICCALL ISZERO PUSH2 0x171 JUMPI PUSH1 0x40 SWAP3 PUSH1 0x6 PUSH1 0x80 SWAP4 SWAP3 DUP5 SWAP4 DUP5 MLOAD SWAP1 MSTORE PUSH1 0xA0 MLOAD PUSH1 0x60 DUP5 ADD MSTORE GAS ADD STATICCALL ISZERO PUSH2 0x171 JUMPI JUMP JUMPDEST PUSH1 0x40 MLOAD SWAP1 PUSH32 0x24E22FDD18545335AA0DBB7E8E97093E6E048484AC91CC6946CB348B1C0049B7 DUP3 MSTORE PUSH32 0x15AC64B0A73B84FE8E1DEBC45017CC93BE38EDDE9AE6AB9A6176A335567B4BBD PUSH1 0x20 DUP4 ADD MSTORE PUSH1 0x40 DUP3 ADD SWAP1 DUP2 MSTORE PUSH2 0x7CF NOT PUSH1 0x40 DUP4 PUSH1 0x60 DUP2 PUSH1 0x7 DUP6 GAS ADD STATICCALL ISZERO PUSH2 0x171 JUMPI PUSH1 0x40 SWAP3 PUSH1 0x6 PUSH1 0x80 SWAP4 SWAP3 DUP5 SWAP4 DUP5 MLOAD SWAP1 MSTORE PUSH1 0xA0 MLOAD PUSH1 0x60 DUP5 ADD MSTORE GAS ADD STATICCALL ISZERO PUSH2 0x171 JUMPI JUMP JUMPDEST PUSH1 0x40 MLOAD SWAP1 PUSH32 0x67F2572FBAF2F1177EDB24D26C7041F58D730E0BA56BF9C732983FFDAAA8A13 DUP3 MSTORE PUSH32 0x962D41BD971C0AAF25B64589160888FDE20B5F5DA12110ED9075D0D5D5C57FA PUSH1 0x20 DUP4 ADD MSTORE PUSH1 0x40 DUP3 ADD SWAP1 DUP2 MSTORE PUSH2 0x7CF NOT PUSH1 0x40 DUP4 PUSH1 0x60 DUP2 PUSH1 0x7 DUP6 GAS ADD STATICCALL ISZERO PUSH2 0x171 JUMPI PUSH1 0x40 SWAP3 PUSH1 0x6 PUSH1 0x80 SWAP4 SWAP3 DUP5 SWAP4 DUP5 MLOAD SWAP1 MSTORE PUSH1 0xA0 MLOAD PUSH1 0x60 DUP5 ADD MSTORE GAS ADD STATICCALL ISZERO PUSH2 0x171 JUMPI JUMP JUMPDEST PUSH1 0x40 MLOAD SWAP1 PUSH32 0x1848E4E7546A1436E80F37C29B43A13FE9AB6C0194C7DC3747698A1672900DB4 DUP3 MSTORE PUSH32 0x27511D1BC26C944CCAE5E69AF5AA7E0B6D3907A25B23547482F32230A0FE3E6F PUSH1 0x20 DUP4 ADD MSTORE PUSH1 0x40 DUP3 ADD SWAP1 DUP2 MSTORE PUSH2 0x7CF NOT PUSH1 0x40 DUP4 PUSH1 0x60 DUP2 PUSH1 0x7 DUP6 GAS ADD STATICCALL ISZERO PUSH2 0x171 JUMPI PUSH1 0x40 SWAP3 PUSH1 0x6 PUSH1 0x80 SWAP4 SWAP3 DUP5 SWAP4 DUP5 MLOAD SWAP1 MSTORE PUSH1 0xA0 MLOAD PUSH1 0x60 DUP5 ADD MSTORE GAS ADD STATICCALL ISZERO PUSH2 0x171 JUMPI JUMP JUMPDEST PUSH1 0x40 MLOAD SWAP1 PUSH32 0x30160952D9B708B3D1B0034670E47D20598709625A85C148A1986D068606069C DUP3 MSTORE PUSH32 0x1BAC696E8A848306CDDE84BD958092B2C1DA783CC1DDF98F2072C301C41AD4D7 PUSH1 0x20 DUP4 ADD MSTORE PUSH1 0x40 DUP3 ADD SWAP1 DUP2 MSTORE PUSH2 0x7CF NOT PUSH1 0x40 DUP4 PUSH1 0x60 DUP2 PUSH1 0x7 DUP6 GAS ADD STATICCALL ISZERO PUSH2 0x171 JUMPI PUSH1 0x40 SWAP3 PUSH1 0x6 PUSH1 0x80 SWAP4 SWAP3 DUP5 SWAP4 DUP5 MLOAD SWAP1 MSTORE PUSH1 0xA0 MLOAD PUSH1 0x60 DUP5 ADD MSTORE GAS ADD STATICCALL ISZERO PUSH2 0x171 JUMPI JUMP JUMPDEST PUSH1 0x40 MLOAD SWAP1 PUSH32 0xB39072BEC869B258C7F1761C070919D3F18C2B127AC94E9DF929742D5A8213F DUP3 MSTORE PUSH32 0x1A5C0762BDE8DC9A61FB696BB72BED547BE82E11B30A9416A260E844F760DA83 PUSH1 0x20 DUP4 ADD MSTORE PUSH1 0x40 DUP3 ADD SWAP1 DUP2 MSTORE PUSH2 0x7CF NOT PUSH1 0x40 DUP4 PUSH1 0x60 DUP2 PUSH1 0x7 DUP6 GAS ADD STATICCALL ISZERO PUSH2 0x171 JUMPI PUSH1 0x40 SWAP3 PUSH1 0x6 PUSH1 0x80 SWAP4 SWAP3 DUP5 SWAP4 DUP5 MLOAD SWAP1 MSTORE PUSH1 0xA0 MLOAD PUSH1 0x60 DUP5 ADD MSTORE GAS ADD STATICCALL ISZERO PUSH2 0x171 JUMPI JUMP JUMPDEST PUSH1 0x40 MLOAD SWAP1 PUSH32 0x18489854B26C31F294059B88B62766568248A5EA42E79FA89972F96AA063F3E8 DUP3 MSTORE PUSH32 0x1E214BA31A6D4E5B3387500CAE4CD2A6CA8443A50EBF0FAD5192BFD427C94C3 PUSH1 0x20 DUP4 ADD MSTORE PUSH1 0x40 DUP3 ADD SWAP1 DUP2 MSTORE PUSH2 0x7CF NOT PUSH1 0x40 DUP4 PUSH1 0x60 DUP2 PUSH1 0x7 DUP6 GAS ADD STATICCALL ISZERO PUSH2 0x171 JUMPI PUSH1 0x40 SWAP3 PUSH1 0x6 PUSH1 0x80 SWAP4 SWAP3 DUP5 SWAP4 DUP5 MLOAD SWAP1 MSTORE PUSH1 0xA0 MLOAD PUSH1 0x60 DUP5 ADD MSTORE GAS ADD STATICCALL ISZERO PUSH2 0x171 JUMPI JUMP JUMPDEST PUSH1 0x40 MLOAD SWAP1 PUSH32 0xF685D36439DB94868007AD679AD4C96268F9826FE2C742E6E353CA835EA79E1 DUP3 MSTORE PUSH32 0x1FB4BD8B126EEC3BB837BC161CBDEC26E462326B0FBD03CA562AD1F600C260CC PUSH1 0x20 DUP4 ADD MSTORE PUSH1 0x40 DUP3 ADD SWAP1 DUP2 MSTORE PUSH2 0x7CF NOT PUSH1 0x40 DUP4 PUSH1 0x60 DUP2 PUSH1 0x7 DUP6 GAS ADD STATICCALL ISZERO PUSH2 0x171 JUMPI PUSH1 0x40 SWAP3 PUSH1 0x6 PUSH1 0x80 SWAP4 SWAP3 DUP5 SWAP4 DUP5 MLOAD SWAP1 MSTORE PUSH1 0xA0 MLOAD PUSH1 0x60 DUP5 ADD MSTORE GAS ADD STATICCALL ISZERO PUSH2 0x171 JUMPI JUMP JUMPDEST PUSH1 0x40 MLOAD SWAP1 PUSH32 0x18C682CF147A33C84CC329FEAA7EE97510ACED55499A8E6A624E33F2F245FC9F DUP3 MSTORE PUSH32 0x5A263DD525DDE1E17D311D5E3181F097B06B7A17549A236FF58A07590F673A0 PUSH1 0x20 DUP4 ADD MSTORE PUSH1 0x40 DUP3 ADD SWAP1 DUP2 MSTORE PUSH2 0x7CF NOT PUSH1 0x40 DUP4 PUSH1 0x60 DUP2 PUSH1 0x7 DUP6 GAS ADD STATICCALL ISZERO PUSH2 0x171 JUMPI PUSH1 0x40 SWAP3 PUSH1 0x6 PUSH1 0x80 SWAP4 SWAP3 DUP5 SWAP4 DUP5 MLOAD SWAP1 MSTORE PUSH1 0xA0 MLOAD PUSH1 0x60 DUP5 ADD MSTORE GAS ADD STATICCALL ISZERO PUSH2 0x171 JUMPI JUMP JUMPDEST PUSH1 0x40 MLOAD SWAP1 PUSH32 0xF52EF516EFFFFD077DDAD2D8BA64D6369F86A19B96FD422B0CBB97EAB2D427C DUP3 MSTORE PUSH32 0x24AA4E103B71A38304CE2C33981AFCFF9AA2E1B5CE0092A828301D68E4CAF1FD PUSH1 0x20 DUP4 ADD MSTORE PUSH1 0x40 DUP3 ADD SWAP1 DUP2 MSTORE PUSH2 0x7CF NOT PUSH1 0x40 DUP4 PUSH1 0x60 DUP2 PUSH1 0x7 DUP6 GAS ADD STATICCALL ISZERO PUSH2 0x171 JUMPI PUSH1 0x40 SWAP3 PUSH1 0x6 PUSH1 0x80 SWAP4 SWAP3 DUP5 SWAP4 DUP5 MLOAD SWAP1 MSTORE PUSH1 0xA0 MLOAD PUSH1 0x60 DUP5 ADD MSTORE GAS ADD STATICCALL ISZERO PUSH2 0x171 JUMPI JUMP JUMPDEST PUSH1 0x40 MLOAD SWAP1 PUSH32 0x7E1D249A45AAE48721161B2E93446DA0EFF9B44FBFB9D33E5E893FBFA5E5C01 DUP3 MSTORE PUSH32 0x244CD76FB118252C8811760DE18FDE4408FD3DF8B94FD6BE21ED25C0CF75A503 PUSH1 0x20 DUP4 ADD MSTORE PUSH1 0x40 DUP3 ADD SWAP1 DUP2 MSTORE PUSH2 0x7CF NOT PUSH1 0x40 DUP4 PUSH1 0x60 DUP2 PUSH1 0x7 DUP6 GAS ADD STATICCALL ISZERO PUSH2 0x171 JUMPI PUSH1 0x40 SWAP3 PUSH1 0x6 PUSH1 0x80 SWAP4 SWAP3 DUP5 SWAP4 DUP5 MLOAD SWAP1 MSTORE PUSH1 0xA0 MLOAD PUSH1 0x60 DUP5 ADD MSTORE GAS ADD STATICCALL ISZERO PUSH2 0x171 JUMPI JUMP JUMPDEST PUSH1 0x20 SWAP1 PUSH32 0x2343C45DFE7E35AA26DBC7D4F6985AC3154B581BE6E51F0AA543AF68AEBE922A PUSH1 0x80 MSTORE PUSH32 0xBC191EC3F0C074C99D4D40B85E6CE6BF4B5D5892FC0DA2C3D0047EFF717364C PUSH1 0xA0 MSTORE PUSH2 0x95D PUSH2 0x104 CALLDATALOAD PUSH2 0x17B JUMP JUMPDEST PUSH2 0x969 PUSH2 0x124 CALLDATALOAD PUSH2 0x205 JUMP JUMPDEST PUSH2 0x975 PUSH2 0x144 CALLDATALOAD PUSH2 0x28F JUMP JUMPDEST PUSH2 0x981 PUSH2 0x164 CALLDATALOAD PUSH2 0x318 JUMP JUMPDEST PUSH2 0x98D PUSH2 0x184 CALLDATALOAD PUSH2 0x3A2 JUMP JUMPDEST PUSH2 0x999 PUSH2 0x1A4 CALLDATALOAD PUSH2 0x42C JUMP JUMPDEST PUSH2 0x9A5 PUSH2 0x1C4 CALLDATALOAD PUSH2 0x4B6 JUMP JUMPDEST PUSH2 0x9B1 PUSH2 0x1E4 CALLDATALOAD PUSH2 0x540 JUMP JUMPDEST PUSH2 0x9BD PUSH2 0x204 CALLDATALOAD PUSH2 0x5CA JUMP JUMPDEST PUSH2 0x9C9 PUSH2 0x224 CALLDATALOAD PUSH2 0x654 JUMP JUMPDEST PUSH2 0x9D5 PUSH2 0x244 CALLDATALOAD PUSH2 0x6DE JUMP JUMPDEST PUSH2 0x9E1 PUSH2 0x264 CALLDATALOAD PUSH2 0x768 JUMP JUMPDEST PUSH2 0x9ED PUSH2 0x284 CALLDATALOAD PUSH2 0x7F2 JUMP JUMPDEST PUSH2 0x9F9 PUSH2 0x2A4 CALLDATALOAD PUSH2 0x87C JUMP JUMPDEST PUSH2 0x100 SWAP3 DUP2 DUP5 SWAP3 CALLDATALOAD DUP4 MSTORE DUP4 PUSH32 0x30644E72E131A029B85045B68181585D97816A916871CA8D3C208C16D87CFD47 SWAP2 ADD CALLDATALOAD DUP2 SUB MOD PUSH2 0x120 MSTORE PUSH1 0x44 CALLDATALOAD PUSH2 0x140 MSTORE PUSH1 0x64 CALLDATALOAD PUSH2 0x160 MSTORE PUSH1 0x84 CALLDATALOAD PUSH2 0x180 MSTORE PUSH1 0xA4 CALLDATALOAD PUSH2 0x1A0 MSTORE PUSH32 0xF3627249C9E87994305E92844213D29794AE3EEB90A6612932CEE913AFBEC8D PUSH2 0x1C0 MSTORE PUSH32 0xC7F49704D6CA69FC97BB698C6CDC61F22A826399448DE48F4C88C044B733228 PUSH2 0x1E0 MSTORE PUSH32 0x26C971A7FA7CB9A7A816D7BA5BD16E45A94F371820DA3FEA7F868D214CED53CC PUSH2 0x200 MSTORE PUSH32 0x1335E0E8E136F4BBDABACF371381AE6D6B09BBA7CB434B80FD4BAC131F47A03A PUSH2 0x220 MSTORE PUSH32 0x1BF9C677A5DB708BFB6EB8ABC04E0774E5FCAB442637BEAA4B7A9AE389D9D0E3 PUSH2 0x240 MSTORE PUSH32 0x184639C5DC735CE675D70D0E6F97CF8A3C247023DC8DC317DC6C978506E392D7 PUSH2 0x260 MSTORE PUSH1 0x80 MLOAD PUSH2 0x280 MSTORE PUSH1 0xA0 MLOAD PUSH2 0x2A0 MSTORE PUSH32 0x198E9393920D483A7260BFB731FB5D25F1AA493335A9E71297E485B7AEF312C2 PUSH2 0x2C0 MSTORE PUSH32 0x1800DEEF121F1E76426A00665E5C4479674322D4F75EDADD46DEBD5CD992F6ED PUSH2 0x2E0 MSTORE DUP3 PUSH2 0x300 SWAP2 PUSH32 0x90689D0585FF075EC9E99AD690C3395BC4B313370B38EF355ACDADCD122975B DUP4 MSTORE PUSH32 0x12C85EA5DB8C6DEB4AAB71808DCB408FE3D1E7690C43D37B4CE6CC0166FA7DAA PUSH2 0x320 MSTORE DUP1 CALLDATALOAD PUSH2 0x340 MSTORE ADD CALLDATALOAD PUSH2 0x360 MSTORE PUSH32 0x1ED7ECBF6FEC57DBE47A00D6ACDCCA6A4BD630E23957B1980575297FE06A0602 PUSH2 0x380 MSTORE PUSH32 0x14EC958E12541FCE3C6501B4A01A1B91EAD557D44F2B64370B505B1E15B913A2 PUSH2 0x3A0 MSTORE PUSH32 0x241FD20DBCAA443C6CFE2A27891BA4D3D891E0FCBE211429CE3EB617AB51228C PUSH2 0x3C0 MSTORE PUSH32 0x292A2AF42F920812447F6006CA95CF417D0E51BCE3A981752282D0A14C80968D PUSH2 0x3E0 MSTORE DUP2 PUSH1 0x8 PUSH2 0x7CF NOT GAS ADD STATICCALL SWAP1 MLOAD AND SWAP1 JUMP INVALID LOG2 PUSH5 0x6970667358 0x22 SLT KECCAK256 0xC1 SWAP6 SIGNEXTEND SLOAD 0xBC POP PUSH14 0xD180F6CC5A029704691424F8AEA1 0x1E BASEFEE 0xAF EXTCODECOPY 0xF6 DUP15 0xA8 PUSH20 0x9A696D64736F6C63430008140033000000000000 "},"methodIdentifiers":{"verifyProof(uint256[2],uint256[2][2],uint256[2],uint256[14])":"8d15f88f"}}}}}