{"PriMEDeal.sol":{"PriMEDeal":{"abi":[{"anonymous":false,"inputs":[{"indexed":true,"internalType":"bytes32","name":"sid","type":"bytes32"},{"indexed":false,"internalType":"address","name":"buyer","type":"address"}],"name":"Bought","type":"event"},{"anonymous":false,"inputs":[{"indexed":true,"internalType":"bytes32","name":"sid","type":"bytes32"},{"indexed":false,"internalType":"address","name":"seller","type":"address"}],"name":"Listed","type":"event"},{"inputs":[{"internalType":"bytes32","name":"sid","type":"bytes32"},{"internalType":"uint256[2]","name":"a","type":"uint256[2]"},{"internalType":"uint256[2][2]","name":"b","type":"uint256[2][2]"},{"internalType":"uint256[2]","name":"c","type":"uint256[2]"},{"internalType":"uint256[14]","name":"input","type":"uint256[14]"}],"name":"buy","outputs":[],"stateMutability":"payable","type":"function"},{"inputs":[{"internalType":"bytes32","name":"sid","type":"bytes32"}],"name":"list","outputs":[],"stateMutability":"payable","type":"function"},{"inputs":[{"internalType":"bytes32","name":"","type":"bytes32"}],"name":"listings","outputs":[{"internalType":"address payable","name":"seller","type":"address"},{"internalType":"uint256","name":"v","type":"uint256"},{"internalType":"uint256","name":"d","type":"uint256"},{"internalType":"bool","name":"active","type":"bool"}],"stateMutability":"view","type":"function"},{"inputs":[{"internalType":"uint256[2]","name":"_pA","type":"uint256[2]"},{"internalType":"uint256[2][2]","name":"_pB","type":"uint256[2][2]"},{"internalType":"uint256[2]","name":"_pC","type":"uint256[2]"},{"internalType":"uint256[14]","name":"_pubSignals","type":"uint256[14]"}],"name":"verifyProof","outputs":[{"internalType":"bool","name":"","type":"bool"}],"stateMutability":"view","type":"function"}],"evm":{"bytecode":{"linkReferences":{},"object":"6080806040523461001657610ff4908161001c8239f35b600080fdfe6080604052600436101561001257600080fd5b6000803560e01c90816313d49a8b1461005a57508063637b07be146100555780638d15f88f146100505763c18b8db41461004b57600080fd5b6103ad565b6102a0565b6101db565b6020366003190112610165576004358082528160205260ff6003604084200154166101365761010761008a610408565b3381523460208201523460408201526100a66060820160019052565b6100ba836000526000602052604060002090565b600360609160018060a01b038451166bffffffffffffffffffffffff60a01b825416178155602084015160018201556040840151600282015501910151151560ff80198354169116179055565b6040513381527fc616acc9e7662c7cee0dde81de57fcb2be89556bfa3c93549a2c48a06fff9d1690602090a280f35b62461bcd60e51b6080526020608452600e60a4526d105b1c9958591e481b1a5cdd195960921b60c45260646080fd5b80fd5b9060249160641161017557565b600080fd5b9060e4916101241161017557565b9060049160441161017557565b9060c4916101041161017557565b9060649160e41161017557565b9060449160c41161017557565b90610124916102e41161017557565b90610104916102c41161017557565b6102e0366003190112610175576101f136610168565b6101fa366101a3565b6102033661017a565b9061020d366101bd565b926004356000526000602052604060002060ff6003820154161561026e57600101543414610fa25760405162461bcd60e51b8152602060048201526011602482015270125b98dbdc9c9958dd081c185e5b595b9d607a1b6044820152606490fd5b60405162461bcd60e51b815260206004820152600a6024820152694e6f742061637469766560b01b6044820152606490fd5b34610175576102c0366003190112610175576103a46102be36610188565b6102c7366101b0565b6102d036610195565b6102d9366101cc565b916040519361038085016040526102f0843561043e565b6102fd602085013561043e565b61030a604085013561043e565b610317606085013561043e565b610324608085013561043e565b61033160a085013561043e565b61033e60c085013561043e565b61034b60e085013561043e565b61035961010085013561043e565b61036761012085013561043e565b61037561014085013561043e565b61038361016085013561043e565b61039161018085013561043e565b61039f6101a085013561043e565b610bd2565b60005260206000f35b346101755760203660031901126101755760043560005260006020526080604060002060018060a01b038154169060018101549060ff6003600283015492015416916040519384526020840152604083015215156060820152f35b604051906080820182811067ffffffffffffffff82111761042857604052565b634e487b7160e01b600052604160045260246000fd5b7f30644e72e131a029b85045b68181585d2833e84879b9709143e1f593f0000001111561046757565b6000805260206000f35b604080517f278e32b81123aa32e0b89b56194642a5039d31282d01e750c87373c05b19994f81527f2679283d8ea49cc0b8a81d16737501489c9c056b8d7cd27bc1cea8fc0cd2c56560208201528082019384526107cf1991816060816007865a01fa1561046757600660809260409585519052602085015160608401525a01fa1561046757565b604080517f0b2631de4557b222053c72799e22f1e145510c6b3df7f4f0d744e7a7f0ff552981527f122067a80c5fb3300f31199f23e65639c564fce9f4529b64ae7e795f8d53e29360208201528082019384526107cf1991816060816007865a01fa1561046757600660809260409585519052602085015160608401525a01fa1561046757565b604080517f0f3963aa4d8ac952d5ec826636f0ef3cc94f64880d967bbab5191708a02d5af181527ed77d42eb0eca49c464459fad61d19c2364bbcd833845ffb602bb8030c032ac60208201528082019384526107cf1991816060816007865a01fa1561046757600660809260409585519052602085015160608401525a01fa1561046757565b604080517f18d53ab042752964da96068542ae766f1bff9d85898225202278fc7a8d746b5081527f186b3d2c1d1dd1098df60b5575611f3786703942230c22266855d43a6777094460208201528082019384526107cf1991816060816007865a01fa1561046757600660809260409585519052602085015160608401525a01fa1561046757565b604080517f24e22fdd18545335aa0dbb7e8e97093e6e048484ac91cc6946cb348b1c0049b781527f15ac64b0a73b84fe8e1debc45017cc93be38edde9ae6ab9a6176a335567b4bbd60208201528082019384526107cf1991816060816007865a01fa1561046757600660809260409585519052602085015160608401525a01fa1561046757565b604080517f067f2572fbaf2f1177edb24d26c7041f58d730e0ba56bf9c732983ffdaaa8a1381527f0962d41bd971c0aaf25b64589160888fde20b5f5da12110ed9075d0d5d5c57fa60208201528082019384526107cf1991816060816007865a01fa1561046757600660809260409585519052602085015160608401525a01fa1561046757565b604080517f1848e4e7546a1436e80f37c29b43a13fe9ab6c0194c7dc3747698a1672900db481527f27511d1bc26c944ccae5e69af5aa7e0b6d3907a25b23547482f32230a0fe3e6f60208201528082019384526107cf1991816060816007865a01fa1561046757600660809260409585519052602085015160608401525a01fa1561046757565b604080517f30160952d9b708b3d1b0034670e47d20598709625a85c148a1986d068606069c81527f1bac696e8a848306cdde84bd958092b2c1da783cc1ddf98f2072c301c41ad4d760208201528082019384526107cf1991816060816007865a01fa1561046757600660809260409585519052602085015160608401525a01fa1561046757565b604080517f0b39072bec869b258c7f1761c070919d3f18c2b127ac94e9df929742d5a8213f81527f1a5c0762bde8dc9a61fb696bb72bed547be82e11b30a9416a260e844f760da8360208201528082019384526107cf1991816060816007865a01fa1561046757600660809260409585519052602085015160608401525a01fa1561046757565b604080517f18489854b26c31f294059b88b62766568248a5ea42e79fa89972f96aa063f3e881527f01e214ba31a6d4e5b3387500cae4cd2a6ca8443a50ebf0fad5192bfd427c94c360208201528082019384526107cf1991816060816007865a01fa1561046757600660809260409585519052602085015160608401525a01fa1561046757565b604080517f0f685d36439db94868007ad679ad4c96268f9826fe2c742e6e353ca835ea79e181527f1fb4bd8b126eec3bb837bc161cbdec26e462326b0fbd03ca562ad1f600c260cc60208201528082019384526107cf1991816060816007865a01fa1561046757600660809260409585519052602085015160608401525a01fa1561046757565b604080517f18c682cf147a33c84cc329feaa7ee97510aced55499a8e6a624e33f2f245fc9f81527f05a263dd525dde1e17d311d5e3181f097b06b7a17549a236ff58a07590f673a060208201528082019384526107cf1991816060816007865a01fa1561046757600660809260409585519052602085015160608401525a01fa1561046757565b604080517f0f52ef516effffd077ddad2d8ba64d6369f86a19b96fd422b0cbb97eab2d427c81527f24aa4e103b71a38304ce2c33981afcff9aa2e1b5ce0092a828301d68e4caf1fd60208201528082019384526107cf1991816060816007865a01fa1561046757600660809260409585519052602085015160608401525a01fa1561046757565b604080517f07e1d249a45aae48721161b2e93446da0eff9b44fbfb9d33e5e893fbfa5e5c0181527f244cd76fb118252c8811760de18fde4408fd3df8b94fd6be21ed25c0cf75a50360208201528082019384526107cf1991816060816007865a01fa1561046757600660809260409585519052602085015160608401525a01fa1561046757565b93909193608082019485937f2343c45dfe7e35aa26dbc7d4f6985ac3154b581be6e51f0aa543af68aebe922a84526020958693848601927f0bc191ec3f0c074c99d4d40b85e6ce6bf4b5d5892fc0da2c3d0047eff717364c84528235610c389088610471565b610c4583870135886104f8565b610c5360408401358861057f565b610c61606084013588610605565b610c6f60808401358861068c565b610c7d60a084013588610713565b610c8b60c08401358861079a565b610c9960e084013588610821565b61010090610caa84830135896108a8565b610120610cba858201358a61092f565b61014091610ccb868401358b6109b6565b61016093610cdc878601358c610a3d565b61018095610ced888801358d610ac4565b6101a080980135610cfe908d610b4b565b80358d527f30644e72e131a029b85045b68181585d97816a916871ca8d3c208c16d87cfd47908b013581030660a08c0152813560c08c0152818a013560e08c01526040820135908b015260600135908901527f0f3627249c9e87994305e92844213d29794ae3eeb90a6612932cee913afbec8d908801527f0c7f49704d6ca69fc97bb698c6cdc61f22a826399448de48f4c88c044b733228908701527f26c971a7fa7cb9a7a816d7ba5bd16e45a94f371820da3fea7f868d214ced53cc908601527f1335e0e8e136f4bbdabacf371381ae6d6b09bba7cb434b80fd4bac131f47a03a908501527f1bf9c677a5db708bfb6eb8abc04e0774e5fcab442637beaa4b7a9ae389d9d0e36101c08501527f184639c5dc735ce675d70d0e6f97cf8a3c247023dc8dc317dc6c978506e392d76101e08501528351610200850152516102208401527f198e9393920d483a7260bfb731fb5d25f1aa493335a9e71297e485b7aef312c26102408401527f1800deef121f1e76426a00665e5c4479674322d4f75edadd46debd5cd992f6ed6102608401527f090689d0585ff075ec9e99ad690c3395bc4b313370b38ef355acdadcd122975b6102808401527f12c85ea5db8c6deb4aab71808dcb408fe3d1e7690c43d37b4ce6cc0166fa7daa6102a084015280356102c084015201356102e08201527f1ed7ecbf6fec57dbe47a00d6acdcca6a4bd630e23957b1980575297fe06a0602610300808301919091527f14ec958e12541fce3c6501b4a01a1b91ead557d44f2b64370b505b1e15b913a26103208301527f241fd20dbcaa443c6cfe2a27891ba4d3d891e0fcbe211429ce3eb617ab51228c6103408301527f292a2af42f920812447f6006ca95cf417d0e51bce3a981752282d0a14c80968d61036090920191909152816107cf195a01600890fa90511690565b916103a493916040519361038085016040526102f0843561043e56fea26469706673582212206c12d2cd3cc4eacbbca2f684d8f2d69b8aa62dd7c29fb590422f561307bfc2ac64736f6c63430008140033","opcodes":"PUSH1 0x80 DUP1 PUSH1 0x40 MSTORE CALLVALUE PUSH2 0x16 JUMPI PUSH2 0xFF4 SWAP1 DUP2 PUSH2 0x1C DUP3 CODECOPY RETURN JUMPDEST PUSH1 0x0 DUP1 REVERT INVALID PUSH1 0x80 PUSH1 0x40 MSTORE PUSH1 0x4 CALLDATASIZE LT ISZERO PUSH2 0x12 JUMPI PUSH1 0x0 DUP1 REVERT JUMPDEST PUSH1 0x0 DUP1 CALLDATALOAD PUSH1 0xE0 SHR SWAP1 DUP2 PUSH4 0x13D49A8B EQ PUSH2 0x5A JUMPI POP DUP1 PUSH4 0x637B07BE EQ PUSH2 0x55 JUMPI DUP1 PUSH4 0x8D15F88F EQ PUSH2 0x50 JUMPI PUSH4 0xC18B8DB4 EQ PUSH2 0x4B JUMPI PUSH1 0x0 DUP1 REVERT JUMPDEST PUSH2 0x3AD JUMP JUMPDEST PUSH2 0x2A0 JUMP JUMPDEST PUSH2 0x1DB JUMP JUMPDEST PUSH1 0x20 CALLDATASIZE PUSH1 0x3 NOT ADD SLT PUSH2 0x165 JUMPI PUSH1 0x4 CALLDATALOAD DUP1 DUP3 MSTORE DUP2 PUSH1 0x20 MSTORE PUSH1 0xFF PUSH1 0x3 PUSH1 0x40 DUP5 KECCAK256 ADD SLOAD AND PUSH2 0x136 JUMPI PUSH2 0x107 PUSH2 0x8A PUSH2 0x408 JUMP JUMPDEST CALLER DUP2 MSTORE CALLVALUE PUSH1 0x20 DUP3 ADD MSTORE CALLVALUE PUSH1 0x40 DUP3 ADD MSTORE PUSH2 0xA6 PUSH1 0x60 DUP3 ADD PUSH1 0x1 SWAP1 MSTORE JUMP JUMPDEST PUSH2 0xBA DUP4 PUSH1 0x0 MSTORE PUSH1 0x0 PUSH1 0x20 MSTORE PUSH1 0x40 PUSH1 0x0 KECCAK256 SWAP1 JUMP JUMPDEST PUSH1 0x3 PUSH1 0x60 SWAP2 PUSH1 0x1 DUP1 PUSH1 0xA0 SHL SUB DUP5 MLOAD AND PUSH12 0xFFFFFFFFFFFFFFFFFFFFFFFF PUSH1 0xA0 SHL DUP3 SLOAD AND OR DUP2 SSTORE PUSH1 0x20 DUP5 ADD MLOAD PUSH1 0x1 DUP3 ADD SSTORE PUSH1 0x40 DUP5 ADD MLOAD PUSH1 0x2 DUP3 ADD SSTORE ADD SWAP2 ADD MLOAD ISZERO ISZERO PUSH1 0xFF DUP1 NOT DUP4 SLOAD AND SWAP2 AND OR SWAP1 SSTORE JUMP JUMPDEST PUSH1 0x40 MLOAD CALLER DUP2 MSTORE PUSH32 0xC616ACC9E7662C7CEE0DDE81DE57FCB2BE89556BFA3C93549A2C48A06FFF9D16 SWAP1 PUSH1 0x20 SWAP1 LOG2 DUP1 RETURN JUMPDEST PUSH3 0x461BCD PUSH1 0xE5 SHL PUSH1 0x80 MSTORE PUSH1 0x20 PUSH1 0x84 MSTORE PUSH1 0xE PUSH1 0xA4 MSTORE PUSH14 0x105B1C9958591E481B1A5CDD1959 PUSH1 0x92 SHL PUSH1 0xC4 MSTORE PUSH1 0x64 PUSH1 0x80 REVERT JUMPDEST DUP1 REVERT JUMPDEST SWAP1 PUSH1 0x24 SWAP2 PUSH1 0x64 GT PUSH2 0x175 JUMPI JUMP JUMPDEST PUSH1 0x0 DUP1 REVERT JUMPDEST SWAP1 PUSH1 0xE4 SWAP2 PUSH2 0x124 GT PUSH2 0x175 JUMPI JUMP JUMPDEST SWAP1 PUSH1 0x4 SWAP2 PUSH1 0x44 GT PUSH2 0x175 JUMPI JUMP JUMPDEST SWAP1 PUSH1 0xC4 SWAP2 PUSH2 0x104 GT PUSH2 0x175 JUMPI JUMP JUMPDEST SWAP1 PUSH1 0x64 SWAP2 PUSH1 0xE4 GT PUSH2 0x175 JUMPI JUMP JUMPDEST SWAP1 PUSH1 0x44 SWAP2 PUSH1 0xC4 GT PUSH2 0x175 JUMPI JUMP JUMPDEST SWAP1 PUSH2 0x124 SWAP2 PUSH2 0x2E4 GT PUSH2 0x175 JUMPI JUMP JUMPDEST SWAP1 PUSH2 0x104 SWAP2 PUSH2 0x2C4 GT PUSH2 0x175 JUMPI JUMP JUMPDEST PUSH2 0x2E0 CALLDATASIZE PUSH1 0x3 NOT ADD SLT PUSH2 0x175 JUMPI PUSH2 0x1F1 CALLDATASIZE PUSH2 0x168 JUMP JUMPDEST PUSH2 0x1FA CALLDATASIZE PUSH2 0x1A3 JUMP JUMPDEST PUSH2 0x203 CALLDATASIZE PUSH2 0x17A JUMP JUMPDEST SWAP1 PUSH2 0x20D CALLDATASIZE PUSH2 0x1BD JUMP JUMPDEST SWAP3 PUSH1 0x4 CALLDATALOAD PUSH1 0x0 MSTORE PUSH1 0x0 PUSH1 0x20 MSTORE PUSH1 0x40 PUSH1 0x0 KECCAK256 PUSH1 0xFF PUSH1 0x3 DUP3 ADD SLOAD AND ISZERO PUSH2 0x26E JUMPI PUSH1 0x1 ADD SLOAD CALLVALUE EQ PUSH2 0xFA2 JUMPI PUSH1 0x40 MLOAD PUSH3 0x461BCD PUSH1 0xE5 SHL DUP2 MSTORE PUSH1 0x20 PUSH1 0x4 DUP3 ADD MSTORE PUSH1 0x11 PUSH1 0x24 DUP3 ADD MSTORE PUSH17 0x125B98DBDC9C9958DD081C185E5B595B9D PUSH1 0x7A SHL PUSH1 0x44 DUP3 ADD MSTORE PUSH1 0x64 SWAP1 REVERT JUMPDEST PUSH1 0x40 MLOAD PUSH3 0x461BCD PUSH1 0xE5 SHL DUP2 MSTORE PUSH1 0x20 PUSH1 0x4 DUP3 ADD MSTORE PUSH1 0xA PUSH1 0x24 DUP3 ADD MSTORE PUSH10 0x4E6F7420616374697665 PUSH1 0xB0 SHL PUSH1 0x44 DUP3 ADD MSTORE PUSH1 0x64 SWAP1 REVERT JUMPDEST CALLVALUE PUSH2 0x175 JUMPI PUSH2 0x2C0 CALLDATASIZE PUSH1 0x3 NOT ADD SLT PUSH2 0x175 JUMPI PUSH2 0x3A4 PUSH2 0x2BE CALLDATASIZE PUSH2 0x188 JUMP JUMPDEST PUSH2 0x2C7 CALLDATASIZE PUSH2 0x1B0 JUMP JUMPDEST PUSH2 0x2D0 CALLDATASIZE PUSH2 0x195 JUMP JUMPDEST PUSH2 0x2D9 CALLDATASIZE PUSH2 0x1CC JUMP JUMPDEST SWAP2 PUSH1 0x40 MLOAD SWAP4 PUSH2 0x380 DUP6 ADD PUSH1 0x40 MSTORE PUSH2 0x2F0 DUP5 CALLDATALOAD PUSH2 0x43E JUMP JUMPDEST PUSH2 0x2FD PUSH1 0x20 DUP6 ADD CALLDATALOAD PUSH2 0x43E JUMP JUMPDEST PUSH2 0x30A PUSH1 0x40 DUP6 ADD CALLDATALOAD PUSH2 0x43E JUMP JUMPDEST PUSH2 0x317 PUSH1 0x60 DUP6 ADD CALLDATALOAD PUSH2 0x43E JUMP JUMPDEST PUSH2 0x324 PUSH1 0x80 DUP6 ADD CALLDATALOAD PUSH2 0x43E JUMP JUMPDEST PUSH2 0x331 PUSH1 0xA0 DUP6 ADD CALLDATALOAD PUSH2 0x43E JUMP JUMPDEST PUSH2 0x33E PUSH1 0xC0 DUP6 ADD CALLDATALOAD PUSH2 0x43E JUMP JUMPDEST PUSH2 0x34B PUSH1 0xE0 DUP6 ADD CALLDATALOAD PUSH2 0x43E JUMP JUMPDEST PUSH2 0x359 PUSH2 0x100 DUP6 ADD CALLDATALOAD PUSH2 0x43E JUMP JUMPDEST PUSH2 0x367 PUSH2 0x120 DUP6 ADD CALLDATALOAD PUSH2 0x43E JUMP JUMPDEST PUSH2 0x375 PUSH2 0x140 DUP6 ADD CALLDATALOAD PUSH2 0x43E JUMP JUMPDEST PUSH2 0x383 PUSH2 0x160 DUP6 ADD CALLDATALOAD PUSH2 0x43E JUMP JUMPDEST PUSH2 0x391 PUSH2 0x180 DUP6 ADD CALLDATALOAD PUSH2 0x43E JUMP JUMPDEST PUSH2 0x39F PUSH2 0x1A0 DUP6 ADD CALLDATALOAD PUSH2 0x43E JUMP JUMPDEST PUSH2 0xBD2 JUMP JUMPDEST PUSH1 0x0 MSTORE PUSH1 0x20 PUSH1 0x0 RETURN JUMPDEST CALLVALUE PUSH2 0x175 JUMPI PUSH1 0x20 CALLDATASIZE PUSH1 0x3 NOT ADD SLT PUSH2 0x175 JUMPI PUSH1 0x4 CALLDATALOAD PUSH1 0x0 MSTORE PUSH1 0x0 PUSH1 0x20 MSTORE PUSH1 0x80 PUSH1 0x40 PUSH1 0x0 KECCAK256 PUSH1 0x1 DUP1 PUSH1 0xA0 SHL SUB DUP2 SLOAD AND SWAP1 PUSH1 0x1 DUP2 ADD SLOAD SWAP1 PUSH1 0xFF PUSH1 0x3 PUSH1 0x2 DUP4 ADD SLOAD SWAP3 ADD SLOAD AND SWAP2 PUSH1 0x40 MLOAD SWAP4 DUP5 MSTORE PUSH1 0x20 DUP5 ADD MSTORE PUSH1 0x40 DUP4 ADD MSTORE ISZERO ISZERO PUSH1 0x60 DUP3 ADD MSTORE RETURN JUMPDEST PUSH1 0x40 MLOAD SWAP1 PUSH1 0x80 DUP3 ADD DUP3 DUP2 LT PUSH8 0xFFFFFFFFFFFFFFFF DUP3 GT OR PUSH2 0x428 JUMPI PUSH1 0x40 MSTORE JUMP JUMPDEST PUSH4 0x4E487B71 PUSH1 0xE0 SHL PUSH1 0x0 MSTORE PUSH1 0x41 PUSH1 0x4 MSTORE PUSH1 0x24 PUSH1 0x0 REVERT JUMPDEST PUSH32 0x30644E72E131A029B85045B68181585D2833E84879B9709143E1F593F0000001 GT ISZERO PUSH2 0x467 JUMPI JUMP JUMPDEST PUSH1 0x0 DUP1 MSTORE PUSH1 0x20 PUSH1 0x0 RETURN JUMPDEST PUSH1 0x40 DUP1 MLOAD PUSH32 0x278E32B81123AA32E0B89B56194642A5039D31282D01E750C87373C05B19994F DUP2 MSTORE PUSH32 0x2679283D8EA49CC0B8A81D16737501489C9C056B8D7CD27BC1CEA8FC0CD2C565 PUSH1 0x20 DUP3 ADD MSTORE DUP1 DUP3 ADD SWAP4 DUP5 MSTORE PUSH2 0x7CF NOT SWAP2 DUP2 PUSH1 0x60 DUP2 PUSH1 0x7 DUP7 GAS ADD STATICCALL ISZERO PUSH2 0x467 JUMPI PUSH1 0x6 PUSH1 0x80 SWAP3 PUSH1 0x40 SWAP6 DUP6 MLOAD SWAP1 MSTORE PUSH1 0x20 DUP6 ADD MLOAD PUSH1 0x60 DUP5 ADD MSTORE GAS ADD STATICCALL ISZERO PUSH2 0x467 JUMPI JUMP JUMPDEST PUSH1 0x40 DUP1 MLOAD PUSH32 0xB2631DE4557B222053C72799E22F1E145510C6B3DF7F4F0D744E7A7F0FF5529 DUP2 MSTORE PUSH32 0x122067A80C5FB3300F31199F23E65639C564FCE9F4529B64AE7E795F8D53E293 PUSH1 0x20 DUP3 ADD MSTORE DUP1 DUP3 ADD SWAP4 DUP5 MSTORE PUSH2 0x7CF NOT SWAP2 DUP2 PUSH1 0x60 DUP2 PUSH1 0x7 DUP7 GAS ADD STATICCALL ISZERO PUSH2 0x467 JUMPI PUSH1 0x6 PUSH1 0x80 SWAP3 PUSH1 0x40 SWAP6 DUP6 MLOAD SWAP1 MSTORE PUSH1 0x20 DUP6 ADD MLOAD PUSH1 0x60 DUP5 ADD MSTORE GAS ADD STATICCALL ISZERO PUSH2 0x467 JUMPI JUMP JUMPDEST PUSH1 0x40 DUP1 MLOAD PUSH32 0xF3963AA4D8AC952D5EC826636F0EF3CC94F64880D967BBAB5191708A02D5AF1 DUP2 MSTORE PUSH31 0xD77D42EB0ECA49C464459FAD61D19C2364BBCD833845FFB602BB8030C032AC PUSH1 0x20 DUP3 ADD MSTORE DUP1 DUP3 ADD SWAP4 DUP5 MSTORE PUSH2 0x7CF NOT SWAP2 DUP2 PUSH1 0x60 DUP2 PUSH1 0x7 DUP7 GAS ADD STATICCALL ISZERO PUSH2 0x467 JUMPI PUSH1 0x6 PUSH1 0x80 SWAP3 PUSH1 0x40 SWAP6 DUP6 MLOAD SWAP1 MSTORE PUSH1 0x20 DUP6 ADD MLOAD PUSH1 0x60 DUP5 ADD MSTORE GAS ADD STATICCALL ISZERO PUSH2 0x467 JUMPI JUMP JUMPDEST PUSH1 0x40 DUP1 MLOAD PUSH32 0x18D53AB042752964DA96068542AE766F1BFF9D85898225202278FC7A8D746B50 DUP2 MSTORE PUSH32 0x186B3D2C1D1DD1098DF60B5575611F3786703942230C22266855D43A67770944 PUSH1 0x20 DUP3 ADD MSTORE DUP1 DUP3 ADD SWAP4 DUP5 MSTORE PUSH2 0x7CF NOT SWAP2 DUP2 PUSH1 0x60 DUP2 PUSH1 0x7 DUP7 GAS ADD STATICCALL ISZERO PUSH2 0x467 JUMPI PUSH1 0x6 PUSH1 0x80 SWAP3 PUSH1 0x40 SWAP6 DUP6 MLOAD SWAP1 MSTORE PUSH1 0x20 DUP6 ADD MLOAD PUSH1 0x60 DUP5 ADD MSTORE GAS ADD STATICCALL ISZERO PUSH2 0x467 JUMPI JUMP JUMPDEST PUSH1 0x40 DUP1 MLOAD PUSH32 0x24E22FDD18545335AA0DBB7E8E97093E6E048484AC91CC6946CB348B1C0049B7 DUP2 MSTORE PUSH32 0x15AC64B0A73B84FE8E1DEBC45017CC93BE38EDDE9AE6AB9A6176A335567B4BBD PUSH1 0x20 DUP3 ADD MSTORE DUP1 DUP3 ADD SWAP4 DUP5 MSTORE PUSH2 0x7CF NOT SWAP2 DUP2 PUSH1 0x60 DUP2 PUSH1 0x7 DUP7 GAS ADD STATICCALL ISZERO PUSH2 0x467 JUMPI PUSH1 0x6 PUSH1 0x80 SWAP3 PUSH1 0x40 SWAP6 DUP6 MLOAD SWAP1 MSTORE PUSH1 0x20 DUP6 ADD MLOAD PUSH1 0x60 DUP5 ADD MSTORE GAS ADD STATICCALL ISZERO PUSH2 0x467 JUMPI JUMP JUMPDEST PUSH1 0x40 DUP1 MLOAD PUSH32 0x67F2572FBAF2F1177EDB24D26C7041F58D730E0BA56BF9C732983FFDAAA8A13 DUP2 MSTORE PUSH32 0x962D41BD971C0AAF25B64589160888FDE20B5F5DA12110ED9075D0D5D5C57FA PUSH1 0x20 DUP3 ADD MSTORE DUP1 DUP3 ADD SWAP4 DUP5 MSTORE PUSH2 0x7CF NOT SWAP2 DUP2 PUSH1 0x60 DUP2 PUSH1 0x7 DUP7 GAS ADD STATICCALL ISZERO PUSH2 0x467 JUMPI PUSH1 0x6 PUSH1 0x80 SWAP3 PUSH1 0x40 SWAP6 DUP6 MLOAD SWAP1 MSTORE PUSH1 0x20 DUP6 ADD MLOAD PUSH1 0x60 DUP5 ADD MSTORE GAS ADD STATICCALL ISZERO PUSH2 0x467 JUMPI JUMP JUMPDEST PUSH1 0x40 DUP1 MLOAD PUSH32 0x1848E4E7546A1436E80F37C29B43A13FE9AB6C0194C7DC3747698A1672900DB4 DUP2 MSTORE PUSH32 0x27511D1BC26C944CCAE5E69AF5AA7E0B6D3907A25B23547482F32230A0FE3E6F PUSH1 0x20 DUP3 ADD MSTORE DUP1 DUP3 ADD SWAP4 DUP5 MSTORE PUSH2 0x7CF NOT SWAP2 DUP2 PUSH1 0x60 DUP2 PUSH1 0x7 DUP7 GAS ADD STATICCALL ISZERO PUSH2 0x467 JUMPI PUSH1 0x6 PUSH1 0x80 SWAP3 PUSH1 0x40 SWAP6 DUP6 MLOAD SWAP1 MSTORE PUSH1 0x20 DUP6 ADD MLOAD PUSH1 0x60 DUP5 ADD MSTORE GAS ADD STATICCALL ISZERO PUSH2 0x467 JUMPI JUMP JUMPDEST PUSH1 0x40 DUP1 MLOAD PUSH32 0x30160952D9B708B3D1B0034670E47D20598709625A85C148A1986D068606069C DUP2 MSTORE PUSH32 0x1BAC696E8A848306CDDE84BD958092B2C1DA783CC1DDF98F2072C301C41AD4D7 PUSH1 0x20 DUP3 ADD MSTORE DUP1 DUP3 ADD SWAP4 DUP5 MSTORE PUSH2 0x7CF NOT SWAP2 DUP2 PUSH1 0x60 DUP2 PUSH1 0x7 DUP7 GAS ADD STATICCALL ISZERO PUSH2 0x467 JUMPI PUSH1 0x6 PUSH1 0x80 SWAP3 PUSH1 0x40 SWAP6 DUP6 MLOAD SWAP1 MSTORE PUSH1 0x20 DUP6 ADD MLOAD PUSH1 0x60 DUP5 ADD MSTORE GAS ADD STATICCALL ISZERO PUSH2 0x467 JUMPI JUMP JUMPDEST PUSH1 0x40 DUP1 MLOAD PUSH32 0xB39072BEC869B258C7F1761C070919D3F18C2B127AC94E9DF929742D5A8213F DUP2 MSTORE PUSH32 0x1A5C0762BDE8DC9A61FB696BB72BED547BE82E11B30A9416A260E844F760DA83 PUSH1 0x20 DUP3 ADD MSTORE DUP1 DUP3 ADD SWAP4 DUP5 MSTORE PUSH2 0x7CF NOT SWAP2 DUP2 PUSH1 0x60 DUP2 PUSH1 0x7 DUP7 GAS ADD STATICCALL ISZERO PUSH2 0x467 JUMPI PUSH1 0x6 PUSH1 0x80 SWAP3 PUSH1 0x40 SWAP6 DUP6 MLOAD SWAP1 MSTORE PUSH1 0x20 DUP6 ADD MLOAD PUSH1 0x60 DUP5 ADD MSTORE GAS ADD STATICCALL ISZERO PUSH2 0x467 JUMPI JUMP JUMPDEST PUSH1 0x40 DUP1 MLOAD PUSH32 0x18489854B26C31F294059B88B62766568248A5EA42E79FA89972F96AA063F3E8 DUP2 MSTORE PUSH32 0x1E214BA31A6D4E5B3387500CAE4CD2A6CA8443A50EBF0FAD5192BFD427C94C3 PUSH1 0x20 DUP3 ADD MSTORE DUP1 DUP3 ADD SWAP4 DUP5 MSTORE PUSH2 0x7CF NOT SWAP2 DUP2 PUSH1 0x60 DUP2 PUSH1 0x7 DUP7 GAS ADD STATICCALL ISZERO PUSH2 0x467 JUMPI PUSH1 0x6 PUSH1 0x80 SWAP3 PUSH1 0x40 SWAP6 DUP6 MLOAD SWAP1 MSTORE PUSH1 0x20 DUP6 ADD MLOAD PUSH1 0x60 DUP5 ADD MSTORE GAS ADD STATICCALL ISZERO PUSH2 0x467 JUMPI JUMP JUMPDEST PUSH1 0x40 DUP1 MLOAD PUSH32 0xF685D36439DB94868007AD679AD4C96268F9826FE2C742E6E353CA835EA79E1 DUP2 MSTORE PUSH32 0x1FB4BD8B126EEC3BB837BC161CBDEC26E462326B0FBD03CA562AD1F600C260CC PUSH1 0x20 DUP3 ADD MSTORE DUP1 DUP3 ADD SWAP4 DUP5 MSTORE PUSH2 0x7CF NOT SWAP2 DUP2 PUSH1 0x60 DUP2 PUSH1 0x7 DUP7 GAS ADD STATICCALL ISZERO PUSH2 0x467 JUMPI PUSH1 0x6 PUSH1 0x80 SWAP3 PUSH1 0x40 SWAP6 DUP6 MLOAD SWAP1 MSTORE PUSH1 0x20 DUP6 ADD MLOAD PUSH1 0x60 DUP5 ADD MSTORE GAS ADD STATICCALL ISZERO PUSH2 0x467 JUMPI JUMP JUMPDEST PUSH1 0x40 DUP1 MLOAD PUSH32 0x18C682CF147A33C84CC329FEAA7EE97510ACED55499A8E6A624E33F2F245FC9F DUP2 MSTORE PUSH32 0x5A263DD525DDE1E17D311D5E3181F097B06B7A17549A236FF58A07590F673A0 PUSH1 0x20 DUP3 ADD MSTORE DUP1 DUP3 ADD SWAP4 DUP5 MSTORE PUSH2 0x7CF NOT SWAP2 DUP2 PUSH1 0x60 DUP2 PUSH1 0x7 DUP7 GAS ADD STATICCALL ISZERO PUSH2 0x467 JUMPI PUSH1 0x6 PUSH1 0x80 SWAP3 PUSH1 0x40 SWAP6 DUP6 MLOAD SWAP1 MSTORE PUSH1 0x20 DUP6 ADD MLOAD PUSH1 0x60 DUP5 ADD MSTORE GAS ADD STATICCALL ISZERO PUSH2 0x467 JUMPI JUMP JUMPDEST PUSH1 0x40 DUP1 MLOAD PUSH32 0xF52EF516EFFFFD077DDAD2D8BA64D6369F86A19B96FD422B0CBB97EAB2D427C DUP2 MSTORE PUSH32 0x24AA4E103B71A38304CE2C33981AFCFF9AA2E1B5CE0092A828301D68E4CAF1FD PUSH1 0x20 DUP3 ADD MSTORE DUP1 DUP3 ADD SWAP4 DUP5 MSTORE PUSH2 0x7CF NOT SWAP2 DUP2 PUSH1 0x60 DUP2 PUSH1 0x7 DUP7 GAS ADD STATICCALL ISZERO PUSH2 0x467 JUMPI PUSH1 0x6 PUSH1 0x80 SWAP3 PUSH1 0x40 SWAP6 DUP6 MLOAD SWAP1 MSTORE PUSH1 0x20 DUP6 ADD MLOAD PUSH1 0x60 DUP5 ADD MSTORE GAS ADD STATICCALL ISZERO PUSH2 0x467 JUMPI JUMP JUMPDEST PUSH1 0x40 DUP1 MLOAD PUSH32 0x7E1D249A45AAE48721161B2E93446DA0EFF9B44FBFB9D33E5E893FBFA5E5C01 DUP2 MSTORE PUSH32 0x244CD76FB118252C8811760DE18FDE4408FD3DF8B94FD6BE21ED25C0CF75A503 PUSH1 0x20 DUP3 ADD MSTORE DUP1 DUP3 ADD SWAP4 DUP5 MSTORE PUSH2 0x7CF NOT SWAP2 DUP2 PUSH1 0x60 DUP2 PUSH1 0x7 DUP7 GAS ADD STATICCALL ISZERO PUSH2 0x467 JUMPI PUSH1 0x6 PUSH1 0x80 SWAP3 PUSH1 0x40 SWAP6 DUP6 MLOAD SWAP1 MSTORE PUSH1 0x20 DUP6 ADD MLOAD PUSH1 0x60 DUP5 ADD MSTORE GAS ADD STATICCALL ISZERO PUSH2 0x467 JUMPI JUMP JUMPDEST SWAP4 SWAP1 SWAP2 SWAP4 PUSH1 0x80 DUP3 ADD SWAP5 DUP6 SWAP4 PUSH32 0x2343C45DFE7E35AA26DBC7D4F6985AC3154B581BE6E51F0AA543AF68AEBE922A DUP5 MSTORE PUSH1 0x20 SWAP6 DUP7 SWAP4 DUP5 DUP7 ADD SWAP3 PUSH32 0xBC191EC3F0C074C99D4D40B85E6CE6BF4B5D5892FC0DA2C3D0047EFF717364C DUP5 MSTORE DUP3 CALLDATALOAD PUSH2 0xC38 SWAP1 DUP9 PUSH2 0x471 JUMP JUMPDEST PUSH2 0xC45 DUP4 DUP8 ADD CALLDATALOAD DUP9 PUSH2 0x4F8 JUMP JUMPDEST PUSH2 0xC53 PUSH1 0x40 DUP5 ADD CALLDATALOAD DUP9 PUSH2 0x57F JUMP JUMPDEST PUSH2 0xC61 PUSH1 0x60 DUP5 ADD CALLDATALOAD DUP9 PUSH2 0x605 JUMP JUMPDEST PUSH2 0xC6F PUSH1 0x80 DUP5 ADD CALLDATALOAD DUP9 PUSH2 0x68C JUMP JUMPDEST PUSH2 0xC7D PUSH1 0xA0 DUP5 ADD CALLDATALOAD DUP9 PUSH2 0x713 JUMP JUMPDEST PUSH2 0xC8B PUSH1 0xC0 DUP5 ADD CALLDATALOAD DUP9 PUSH2 0x79A JUMP JUMPDEST PUSH2 0xC99 PUSH1 0xE0 DUP5 ADD CALLDATALOAD DUP9 PUSH2 0x821 JUMP JUMPDEST PUSH2 0x100 SWAP1 PUSH2 0xCAA DUP5 DUP4 ADD CALLDATALOAD DUP10 PUSH2 0x8A8 JUMP JUMPDEST PUSH2 0x120 PUSH2 0xCBA DUP6 DUP3 ADD CALLDATALOAD DUP11 PUSH2 0x92F JUMP JUMPDEST PUSH2 0x140 SWAP2 PUSH2 0xCCB DUP7 DUP5 ADD CALLDATALOAD DUP12 PUSH2 0x9B6 JUMP JUMPDEST PUSH2 0x160 SWAP4 PUSH2 0xCDC DUP8 DUP7 ADD CALLDATALOAD DUP13 PUSH2 0xA3D JUMP JUMPDEST PUSH2 0x180 SWAP6 PUSH2 0xCED DUP9 DUP9 ADD CALLDATALOAD DUP14 PUSH2 0xAC4 JUMP JUMPDEST PUSH2 0x1A0 DUP1 SWAP9 ADD CALLDATALOAD PUSH2 0xCFE SWAP1 DUP14 PUSH2 0xB4B JUMP JUMPDEST DUP1 CALLDATALOAD DUP14 MSTORE PUSH32 0x30644E72E131A029B85045B68181585D97816A916871CA8D3C208C16D87CFD47 SWAP1 DUP12 ADD CALLDATALOAD DUP2 SUB MOD PUSH1 0xA0 DUP13 ADD MSTORE DUP2 CALLDATALOAD PUSH1 0xC0 DUP13 ADD MSTORE DUP2 DUP11 ADD CALLDATALOAD PUSH1 0xE0 DUP13 ADD MSTORE PUSH1 0x40 DUP3 ADD CALLDATALOAD SWAP1 DUP12 ADD MSTORE PUSH1 0x60 ADD CALLDATALOAD SWAP1 DUP10 ADD MSTORE PUSH32 0xF3627249C9E87994305E92844213D29794AE3EEB90A6612932CEE913AFBEC8D SWAP1 DUP9 ADD MSTORE PUSH32 0xC7F49704D6CA69FC97BB698C6CDC61F22A826399448DE48F4C88C044B733228 SWAP1 DUP8 ADD MSTORE PUSH32 0x26C971A7FA7CB9A7A816D7BA5BD16E45A94F371820DA3FEA7F868D214CED53CC SWAP1 DUP7 ADD MSTORE PUSH32 0x1335E0E8E136F4BBDABACF371381AE6D6B09BBA7CB434B80FD4BAC131F47A03A SWAP1 DUP6 ADD MSTORE PUSH32 0x1BF9C677A5DB708BFB6EB8ABC04E0774E5FCAB442637BEAA4B7A9AE389D9D0E3 PUSH2 0x1C0 DUP6 ADD MSTORE PUSH32 0x184639C5DC735CE675D70D0E6F97CF8A3C247023DC8DC317DC6C978506E392D7 PUSH2 0x1E0 DUP6 ADD MSTORE DUP4 MLOAD PUSH2 0x200 DUP6 ADD MSTORE MLOAD PUSH2 0x220 DUP5 ADD MSTORE PUSH32 0x198E9393920D483A7260BFB731FB5D25F1AA493335A9E71297E485B7AEF312C2 PUSH2 0x240 DUP5 ADD MSTORE PUSH32 0x1800DEEF121F1E76426A00665E5C4479674322D4F75EDADD46DEBD5CD992F6ED PUSH2 0x260 DUP5 ADD MSTORE PUSH32 0x90689D0585FF075EC9E99AD690C3395BC4B313370B38EF355ACDADCD122975B PUSH2 0x280 DUP5 ADD MSTORE PUSH32 0x12C85EA5DB8C6DEB4AAB71808DCB408FE3D1E7690C43D37B4CE6CC0166FA7DAA PUSH2 0x2A0 DUP5 ADD MSTORE DUP1 CALLDATALOAD PUSH2 0x2C0 DUP5 ADD MSTORE ADD CALLDATALOAD PUSH2 0x2E0 DUP3 ADD MSTORE PUSH32 0x1ED7ECBF6FEC57DBE47A00D6ACDCCA6A4BD630E23957B1980575297FE06A0602 PUSH2 0x300 DUP1 DUP4 ADD SWAP2 SWAP1 SWAP2 MSTORE PUSH32 0x14EC958E12541FCE3C6501B4A01A1B91EAD557D44F2B64370B505B1E15B913A2 PUSH2 0x320 DUP4 ADD MSTORE PUSH32 0x241FD20DBCAA443C6CFE2A27891BA4D3D891E0FCBE211429CE3EB617AB51228C PUSH2 0x340 DUP4 ADD MSTORE PUSH32 0x292A2AF42F920812447F6006CA95CF417D0E51BCE3A981752282D0A14C80968D PUSH2 0x360 SWAP1 SWAP3 ADD SWAP2 SWAP1 SWAP2 MSTORE DUP2 PUSH2 0x7CF NOT GAS ADD PUSH1 0x8 SWAP1 STATICCALL SWAP1 MLOAD AND SWAP1 JUMP JUMPDEST SWAP2 PUSH2 0x3A4 SWAP4 SWAP2 PUSH1 0x40 MLOAD SWAP4 PUSH2 0x380 DUP6 ADD PUSH1 0x40 MSTORE PUSH2 0x2F0 DUP5 CALLDATALOAD PUSH2 0x43E JUMP INVALID LOG2 PUSH5 0x6970667358 0x22 SLT KECCAK256 PUSH13 0x12D2CD3CC4EACBBCA2F684D8F2 0xD6 SWAP12 DUP11 0xA6 0x2D 0xD7 0xC2 SWAP16 0xB5 SWAP1 TIMESTAMP 0x2F JUMP SGT SMOD 0xBF 0xC2 0xAC PUSH5 0x736F6C6343 STOP ADDMOD EQ STOP CALLER "},"methodIdentifiers":{"buy(bytes32,uint256[2],uint256[2][2],uint256[2],uint256[14])":"637b07be","list(bytes32)":"13d49a8b","listings(bytes32)":"c18b8db4","verifyProof(uint256[2],uint256[2][2],uint256[2],uint256[14])":"8d15f88f"}}}}}