{"PriMEDeal.sol":{"PriMEDeal":{"abi":[{"anonymous":false,"inputs":[{"indexed":true,"internalType":"bytes32","name":"sid","type":"bytes32"},{"indexed":true,"internalType":"address","name":"buyer","type":"address"}],"name":"Bought","type":"event"},{"anonymous":false,"inputs":[{"indexed":true,"internalType":"bytes32","name":"sid","type":"bytes32"},{"indexed":true,"internalType":"address","name":"buyer","type":"address"},{"indexed":false,"internalType":"uint256[]","name":"indices","type":"uint256[]"}],"name":"Challenged","type":"event"},{"anonymous":false,"inputs":[{"indexed":true,"internalType":"bytes32","name":"sid","type":"bytes32"},{"indexed":false,"internalType":"bytes32","name":"k2","type":"bytes32"}],"name":"KeyRevealed","type":"event"},{"anonymous":false,"inputs":[{"indexed":true,"internalType":"bytes32","name":"sid","type":"bytes32"},{"indexed":true,"internalType":"address","name":"seller","type":"address"},{"indexed":false,"internalType":"uint256","name":"v","type":"uint256"},{"indexed":false,"internalType":"uint256","name":"d","type":"uint256"}],"name":"Listed","type":"event"},{"anonymous":false,"inputs":[{"indexed":true,"internalType":"bytes32","name":"sid","type":"bytes32"}],"name":"Settled","type":"event"},{"inputs":[],"name":"CHALLENGE_WINDOW","outputs":[{"internalType":"uint256","name":"","type":"uint256"}],"stateMutability":"view","type":"function"},{"inputs":[],"name":"DISPUTE_WINDOW","outputs":[{"internalType":"uint256","name":"","type":"uint256"}],"stateMutability":"view","type":"function"},{"inputs":[{"internalType":"bytes32","name":"sid","type":"bytes32"},{"internalType":"bytes32","name":"comAB","type":"bytes32"},{"internalType":"bytes","name":"proof","type":"bytes"},{"internalType":"bytes","name":"pubInput","type":"bytes"}],"name":"buy","outputs":[],"stateMutability":"payable","type":"function"},{"inputs":[{"internalType":"bytes32","name":"sid","type":"bytes32"},{"internalType":"uint256[]","name":"indices","type":"uint256[]"},{"internalType":"bytes[]","name":"blocks","type":"bytes[]"},{"internalType":"bytes[]","name":"proofs","type":"bytes[]"}],"name":"challenge","outputs":[],"stateMutability":"nonpayable","type":"function"},{"inputs":[{"internalType":"bytes32","name":"sid","type":"bytes32"},{"internalType":"bytes32","name":"hD","type":"bytes32"},{"internalType":"bytes32","name":"comPB","type":"bytes32"},{"internalType":"uint256","name":"tb","type":"uint256"},{"internalType":"bytes32","name":"hk2","type":"bytes32"},{"internalType":"bytes32","name":"root","type":"bytes32"},{"internalType":"bytes","name":"sigmaRoot","type":"bytes"},{"internalType":"bytes","name":"S0","type":"bytes"},{"internalType":"bytes","name":"pubData","type":"bytes"}],"name":"list","outputs":[],"stateMutability":"payable","type":"function"},{"inputs":[{"internalType":"bytes32","name":"","type":"bytes32"}],"name":"listings","outputs":[{"internalType":"address payable","name":"seller","type":"address"},{"internalType":"bytes32","name":"hD","type":"bytes32"},{"internalType":"bytes32","name":"comPB","type":"bytes32"},{"internalType":"uint256","name":"tb","type":"uint256"},{"internalType":"bytes32","name":"hk2","type":"bytes32"},{"internalType":"bytes32","name":"root","type":"bytes32"},{"internalType":"bytes","name":"sigmaRoot","type":"bytes"},{"internalType":"uint256","name":"v","type":"uint256"},{"internalType":"uint256","name":"d","type":"uint256"},{"internalType":"bytes","name":"S0","type":"bytes"},{"internalType":"bytes","name":"pubData","type":"bytes"},{"internalType":"enum PriMEDeal.ListingStatus","name":"status","type":"uint8"},{"internalType":"uint256","name":"timer","type":"uint256"},{"internalType":"bytes32","name":"k2","type":"bytes32"}],"stateMutability":"view","type":"function"},{"inputs":[{"internalType":"bytes32","name":"sid","type":"bytes32"},{"internalType":"bytes32","name":"k2","type":"bytes32"}],"name":"reveal","outputs":[],"stateMutability":"nonpayable","type":"function"},{"inputs":[{"internalType":"bytes32","name":"sid","type":"bytes32"}],"name":"settle","outputs":[],"stateMutability":"nonpayable","type":"function"}],"evm":{"bytecode":{"linkReferences":{},"object":"608080604052346100165761100c908161001c8239f35b600080fdfe6080604052600436101561001257600080fd5b6000803560e01c9081630cf852771461009a57508063493bd03c1461009557806371e7907314610090578063987757dd1461008b578063c18b8db414610086578063d62aad2914610081578063f585dc571461007c5763fc334e8c1461007757600080fd5b6107ae565b610791565b610773565b6106cd565b610390565b6102b1565b61018e565b6101203660031901126101275767ffffffffffffffff60c435818111610123576100c890369060040161012a565b9060e43583811161011f576100e190369060040161012a565b906101043594851161011b576100fe61011895369060040161012a565b94909360a435608435606435604435602435600435610bc7565b80f35b8580fd5b8480fd5b8280fd5b80fd5b9181601f840112156101585782359167ffffffffffffffff8311610158576020838186019501011161015857565b600080fd5b9181601f840112156101585782359167ffffffffffffffff8311610158576020808501948460051b01011161015857565b346101585760803660031901126101585767ffffffffffffffff600435602435828111610158576101c390369060040161015d565b9092604435818111610158576101dd90369060040161015d565b5050606435908111610158576101f790369060040161015d565b5050816000526000602052604060002090600b820190600360ff83541661021d81610607565b036102795761026661027492610259600c7f5f25030d593343d34b521e65ea46c70961e5b7cde398d371c94f413a74a288349601544210610ea5565b805460ff19166004179055565b604051918291339683610eea565b0390a3005b60405162461bcd60e51b815260206004820152601060248201526f12d95e481b9bdd081c995d99585b195960821b6044820152606490fd5b60803660031901126101585767ffffffffffffffff600435604435828111610158576102e190369060040161012a565b5091606435908111610158576102fe61035991369060040161012a565b919061034c610347600096868852876020526040882095600b870194610333600160ff88541661032d81610607565b14610cd2565b61034260078901543414610d0b565b610f4a565b610d4b565b805460ff19166002179055565b600c61036442610d87565b91015533907fc4166f8025209892d34bf30c06e392e4ca0198eba8483b42ceabd1bbfdc6b4018380a380f35b34610158576020366003190112610158576004356103b8816000526000602052604060002090565b600b8101805460ff166103ca81610607565b6003811480610494575b1561043e575081547fd647759a2f3297cba8e32e398356f87d2583ecaaad1741fc2d5f7d67fd861984929161043a91610430906007906001600160a01b0316946000808097819482940154905af161042a610f13565b50610f43565b805460ff19169055565b80a2005b60029192935061044d81610607565b1480610486575b61045a57005b610259600080808061047987600860076104849a015491015490610dbc565b335af161042a610f13565b005b50600c820154421015610454565b50600c8301544210156103d4565b90600182811c921680156104d2575b60208310146104bc57565b634e487b7160e01b600052602260045260246000fd5b91607f16916104b1565b634e487b7160e01b600052604160045260246000fd5b90601f8019910116810190811067ffffffffffffffff82111761051457604052565b6104dc565b906040519182600082549261052d846104a2565b90818452600194858116908160001461059c5750600114610559575b5050610557925003836104f2565b565b9093915060005260209081600020936000915b81831061058457505061055793508201013880610549565b8554888401850152948501948794509183019161056c565b91505061055794506020925060ff191682840152151560051b8201013880610549565b60005b8381106105d25750506000910152565b81810151838201526020016105c2565b906020916105fb815180928185528580860191016105bf565b601f01601f1916010190565b6005111561061157565b634e487b7160e01b600052602160045260246000fd5b9060058210156106115752565b9a9690956101a09c9f9e9d9a94956106b7999660608e6106c39d9761068e97610667836106a89e60018060a01b03169052565b60208301526040820152015260808d015260a08c01526101c08060c08d01528b01906105e2565b9260e08a01526101008901528782036101208901526105e2565b908582036101408701526105e2565b96610160840190610627565b6101808201520152565b3461015857602036600319011261015857600435600090815260208190526040902080546001600160a01b031661076f60018301549260028101549060038101546004820154600583015461072460068501610519565b600785015460088601549161073b60098801610519565b93610748600a8901610519565b95610757600b8a015460ff1690565b97600d600c8b01549a01549a6040519e8f9e8f610634565b0390f35b34610158576000366003190112610158576020604051620151808152f35b34610158576000366003190112610158576020604051610e108152f35b34610158576040806003193601126101585760043560008181526020819052828120549092602435916001600160a01b031633036108de576107fa836000526000602052604060002090565b91600b83019161081f6002610810855460ff1690565b61081981610607565b14610dc9565b600c840161082f81544210610e06565b60208761086484516108598161084b8987830160209181520190565b03601f1981018352826104f2565b855191828092610e46565b039060025afa156108d9576108ba6108d39484600d7f27dab582aeef75fdce1556a84a50b7519c2290c2cf937f04f6ef8e2a63e2ed61986108ab8c51600483015414610e69565b0155805460ff19166003179055565b6108c342610dad565b9055519081529081906020820190565b0390a280f35b610e5d565b5162461bcd60e51b815260206004820152600a6024820152692737ba1039b2b63632b960b11b6044820152606490fd5b1561091557565b60405162461bcd60e51b815260206004820152600e60248201526d105b1c9958591e481b1a5cdd195960921b6044820152606490fd5b604051906101c0820182811067ffffffffffffffff82111761051457604052565b67ffffffffffffffff811161051457601f01601f191660200190565b9291926109948261096c565b916109a260405193846104f2565b829481845281830111610158578281602093846000960137010152565b90601f81116109cd57505050565b600091825260208220906020601f850160051c83019410610a09575b601f0160051c01915b8281106109fe57505050565b8181556001016109f2565b90925082906109e9565b919091825167ffffffffffffffff811161051457610a3b81610a3584546104a2565b846109bf565b602080601f8311600114610a77575081929394600092610a6c575b50508160011b916000199060031b1c1916179055565b015190503880610a56565b90601f19831695610a8d85600052602060002090565b926000905b888210610aca57505083600195969710610ab1575b505050811b019055565b015160001960f88460031b161c19169055388080610aa7565b80600185968294968601518155019501930190610a92565b9060058110156106115760ff80198354169116179055565b815181546001600160a01b0319166001600160a01b0390911617815590600d906101a0906020810151600185015560408101516002850155606081015160038501556080810151600485015560a08101516005850155610b6160c082015160068601610a13565b60e081015160078501556101008101516008850155610b8861012082015160098601610a13565b610b9a610140820151600a8601610a13565b610bb5610160820151610bac81610607565b600b8601610ae2565b610180810151600c8501550151910155565b9a9590989296610c5995610c669995610c9d9c99610c40958f610c04600b610bfc610c13936000526000602052604060002090565b015460ff1690565b610c0d81610607565b1561090e565b6040610c1d61094b565b3381529e8f906020820152015260608d015260808c015260a08b01523691610988565b60c08801523460e0880152346101008801523691610988565b6101208501523691610988565b6101408201526001610160820152600061018082015260006101a0820152610c98836000526000602052604060002090565b610afa565b604080513480825260208201523392917ff7d501a20ccb63a4a022a8eaaf50da017591d3367db55d118ec5ac1bd79caf4191a3565b15610cd957565b60405162461bcd60e51b815260206004820152600a6024820152694e6f742061637469766560b01b6044820152606490fd5b15610d1257565b60405162461bcd60e51b8152602060048201526011602482015270125b98dbdc9c9958dd081c185e5b595b9d607a1b6044820152606490fd5b15610d5257565b60405162461bcd60e51b815260206004820152600d60248201526c24b73b30b634b210383937b7b360991b6044820152606490fd5b90620151808201809211610d9757565b634e487b7160e01b600052601160045260246000fd5b90610e108201809211610d9757565b91908201809211610d9757565b15610dd057565b60405162461bcd60e51b815260206004820152600e60248201526d139bdd0818da185b1b195b99d95960921b6044820152606490fd5b15610e0d57565b60405162461bcd60e51b815260206004820152601160248201527010da185b1b195b99d948195e1c1a5c9959607a1b6044820152606490fd5b90610e59602092828151948592016105bf565b0190565b6040513d6000823e3d90fd5b15610e7057565b60405162461bcd60e51b815260206004820152600d60248201526c090c2e6d040dad2e6dac2e8c6d609b1b6044820152606490fd5b15610eac57565b60405162461bcd60e51b8152602060048201526016602482015275111a5cdc1d5d19481dda5b991bddc8195e1c1a5c995960521b6044820152606490fd5b602080825281018390526001600160fb1b0383116101585760409260051b809284830137010190565b3d15610f3e573d90610f248261096c565b91610f3260405193846104f2565b82523d6000602084013e565b606090565b1561015857565b909160405192610300908185019185831067ffffffffffffffff84111761051457601f9260405236863716610f915751816020829351910160085afa156101585751151590565b60405162461bcd60e51b815260206004820152601f60248201527f696e707574206c656e677468206e6f74206d756c7469706c65206f66203332006044820152606490fdfea264697066735822122067145a859f1fbf8aa7b2243825c1bb2e5e27b30454dd7707af79e7151cc1b02b64736f6c63430008140033","opcodes":"PUSH1 0x80 DUP1 PUSH1 0x40 MSTORE CALLVALUE PUSH2 0x16 JUMPI PUSH2 0x100C SWAP1 DUP2 PUSH2 0x1C DUP3 CODECOPY RETURN JUMPDEST PUSH1 0x0 DUP1 REVERT INVALID PUSH1 0x80 PUSH1 0x40 MSTORE PUSH1 0x4 CALLDATASIZE LT ISZERO PUSH2 0x12 JUMPI PUSH1 0x0 DUP1 REVERT JUMPDEST PUSH1 0x0 DUP1 CALLDATALOAD PUSH1 0xE0 SHR SWAP1 DUP2 PUSH4 0xCF85277 EQ PUSH2 0x9A JUMPI POP DUP1 PUSH4 0x493BD03C EQ PUSH2 0x95 JUMPI DUP1 PUSH4 0x71E79073 EQ PUSH2 0x90 JUMPI DUP1 PUSH4 0x987757DD EQ PUSH2 0x8B JUMPI DUP1 PUSH4 0xC18B8DB4 EQ PUSH2 0x86 JUMPI DUP1 PUSH4 0xD62AAD29 EQ PUSH2 0x81 JUMPI DUP1 PUSH4 0xF585DC57 EQ PUSH2 0x7C JUMPI PUSH4 0xFC334E8C EQ PUSH2 0x77 JUMPI PUSH1 0x0 DUP1 REVERT JUMPDEST PUSH2 0x7AE JUMP JUMPDEST PUSH2 0x791 JUMP JUMPDEST PUSH2 0x773 JUMP JUMPDEST PUSH2 0x6CD JUMP JUMPDEST PUSH2 0x390 JUMP JUMPDEST PUSH2 0x2B1 JUMP JUMPDEST PUSH2 0x18E JUMP JUMPDEST PUSH2 0x120 CALLDATASIZE PUSH1 0x3 NOT ADD SLT PUSH2 0x127 JUMPI PUSH8 0xFFFFFFFFFFFFFFFF PUSH1 0xC4 CALLDATALOAD DUP2 DUP2 GT PUSH2 0x123 JUMPI PUSH2 0xC8 SWAP1 CALLDATASIZE SWAP1 PUSH1 0x4 ADD PUSH2 0x12A JUMP JUMPDEST SWAP1 PUSH1 0xE4 CALLDATALOAD DUP4 DUP2 GT PUSH2 0x11F JUMPI PUSH2 0xE1 SWAP1 CALLDATASIZE SWAP1 PUSH1 0x4 ADD PUSH2 0x12A JUMP JUMPDEST SWAP1 PUSH2 0x104 CALLDATALOAD SWAP5 DUP6 GT PUSH2 0x11B JUMPI PUSH2 0xFE PUSH2 0x118 SWAP6 CALLDATASIZE SWAP1 PUSH1 0x4 ADD PUSH2 0x12A JUMP JUMPDEST SWAP5 SWAP1 SWAP4 PUSH1 0xA4 CALLDATALOAD PUSH1 0x84 CALLDATALOAD PUSH1 0x64 CALLDATALOAD PUSH1 0x44 CALLDATALOAD PUSH1 0x24 CALLDATALOAD PUSH1 0x4 CALLDATALOAD PUSH2 0xBC7 JUMP JUMPDEST DUP1 RETURN JUMPDEST DUP6 DUP1 REVERT JUMPDEST DUP5 DUP1 REVERT JUMPDEST DUP3 DUP1 REVERT JUMPDEST DUP1 REVERT JUMPDEST SWAP2 DUP2 PUSH1 0x1F DUP5 ADD SLT ISZERO PUSH2 0x158 JUMPI DUP3 CALLDATALOAD SWAP2 PUSH8 0xFFFFFFFFFFFFFFFF DUP4 GT PUSH2 0x158 JUMPI PUSH1 0x20 DUP4 DUP2 DUP7 ADD SWAP6 ADD ADD GT PUSH2 0x158 JUMPI JUMP JUMPDEST PUSH1 0x0 DUP1 REVERT JUMPDEST SWAP2 DUP2 PUSH1 0x1F DUP5 ADD SLT ISZERO PUSH2 0x158 JUMPI DUP3 CALLDATALOAD SWAP2 PUSH8 0xFFFFFFFFFFFFFFFF DUP4 GT PUSH2 0x158 JUMPI PUSH1 0x20 DUP1 DUP6 ADD SWAP5 DUP5 PUSH1 0x5 SHL ADD ADD GT PUSH2 0x158 JUMPI JUMP JUMPDEST CALLVALUE PUSH2 0x158 JUMPI PUSH1 0x80 CALLDATASIZE PUSH1 0x3 NOT ADD SLT PUSH2 0x158 JUMPI PUSH8 0xFFFFFFFFFFFFFFFF PUSH1 0x4 CALLDATALOAD PUSH1 0x24 CALLDATALOAD DUP3 DUP2 GT PUSH2 0x158 JUMPI PUSH2 0x1C3 SWAP1 CALLDATASIZE SWAP1 PUSH1 0x4 ADD PUSH2 0x15D JUMP JUMPDEST SWAP1 SWAP3 PUSH1 0x44 CALLDATALOAD DUP2 DUP2 GT PUSH2 0x158 JUMPI PUSH2 0x1DD SWAP1 CALLDATASIZE SWAP1 PUSH1 0x4 ADD PUSH2 0x15D JUMP JUMPDEST POP POP PUSH1 0x64 CALLDATALOAD SWAP1 DUP2 GT PUSH2 0x158 JUMPI PUSH2 0x1F7 SWAP1 CALLDATASIZE SWAP1 PUSH1 0x4 ADD PUSH2 0x15D JUMP JUMPDEST POP POP DUP2 PUSH1 0x0 MSTORE PUSH1 0x0 PUSH1 0x20 MSTORE PUSH1 0x40 PUSH1 0x0 KECCAK256 SWAP1 PUSH1 0xB DUP3 ADD SWAP1 PUSH1 0x3 PUSH1 0xFF DUP4 SLOAD AND PUSH2 0x21D DUP2 PUSH2 0x607 JUMP JUMPDEST SUB PUSH2 0x279 JUMPI PUSH2 0x266 PUSH2 0x274 SWAP3 PUSH2 0x259 PUSH1 0xC PUSH32 0x5F25030D593343D34B521E65EA46C70961E5B7CDE398D371C94F413A74A28834 SWAP7 ADD SLOAD TIMESTAMP LT PUSH2 0xEA5 JUMP JUMPDEST DUP1 SLOAD PUSH1 0xFF NOT AND PUSH1 0x4 OR SWAP1 SSTORE JUMP JUMPDEST PUSH1 0x40 MLOAD SWAP2 DUP3 SWAP2 CALLER SWAP7 DUP4 PUSH2 0xEEA JUMP JUMPDEST SUB SWAP1 LOG3 STOP JUMPDEST PUSH1 0x40 MLOAD PUSH3 0x461BCD PUSH1 0xE5 SHL DUP2 MSTORE PUSH1 0x20 PUSH1 0x4 DUP3 ADD MSTORE PUSH1 0x10 PUSH1 0x24 DUP3 ADD MSTORE PUSH16 0x12D95E481B9BDD081C995D99585B1959 PUSH1 0x82 SHL PUSH1 0x44 DUP3 ADD MSTORE PUSH1 0x64 SWAP1 REVERT JUMPDEST PUSH1 0x80 CALLDATASIZE PUSH1 0x3 NOT ADD SLT PUSH2 0x158 JUMPI PUSH8 0xFFFFFFFFFFFFFFFF PUSH1 0x4 CALLDATALOAD PUSH1 0x44 CALLDATALOAD DUP3 DUP2 GT PUSH2 0x158 JUMPI PUSH2 0x2E1 SWAP1 CALLDATASIZE SWAP1 PUSH1 0x4 ADD PUSH2 0x12A JUMP JUMPDEST POP SWAP2 PUSH1 0x64 CALLDATALOAD SWAP1 DUP2 GT PUSH2 0x158 JUMPI PUSH2 0x2FE PUSH2 0x359 SWAP2 CALLDATASIZE SWAP1 PUSH1 0x4 ADD PUSH2 0x12A JUMP JUMPDEST SWAP2 SWAP1 PUSH2 0x34C PUSH2 0x347 PUSH1 0x0 SWAP7 DUP7 DUP9 MSTORE DUP8 PUSH1 0x20 MSTORE PUSH1 0x40 DUP9 KECCAK256 SWAP6 PUSH1 0xB DUP8 ADD SWAP5 PUSH2 0x333 PUSH1 0x1 PUSH1 0xFF DUP9 SLOAD AND PUSH2 0x32D DUP2 PUSH2 0x607 JUMP JUMPDEST EQ PUSH2 0xCD2 JUMP JUMPDEST PUSH2 0x342 PUSH1 0x7 DUP10 ADD SLOAD CALLVALUE EQ PUSH2 0xD0B JUMP JUMPDEST PUSH2 0xF4A JUMP JUMPDEST PUSH2 0xD4B JUMP JUMPDEST DUP1 SLOAD PUSH1 0xFF NOT AND PUSH1 0x2 OR SWAP1 SSTORE JUMP JUMPDEST PUSH1 0xC PUSH2 0x364 TIMESTAMP PUSH2 0xD87 JUMP JUMPDEST SWAP2 ADD SSTORE CALLER SWAP1 PUSH32 0xC4166F8025209892D34BF30C06E392E4CA0198EBA8483B42CEABD1BBFDC6B401 DUP4 DUP1 LOG3 DUP1 RETURN JUMPDEST CALLVALUE PUSH2 0x158 JUMPI PUSH1 0x20 CALLDATASIZE PUSH1 0x3 NOT ADD SLT PUSH2 0x158 JUMPI PUSH1 0x4 CALLDATALOAD PUSH2 0x3B8 DUP2 PUSH1 0x0 MSTORE PUSH1 0x0 PUSH1 0x20 MSTORE PUSH1 0x40 PUSH1 0x0 KECCAK256 SWAP1 JUMP JUMPDEST PUSH1 0xB DUP2 ADD DUP1 SLOAD PUSH1 0xFF AND PUSH2 0x3CA DUP2 PUSH2 0x607 JUMP JUMPDEST PUSH1 0x3 DUP2 EQ DUP1 PUSH2 0x494 JUMPI JUMPDEST ISZERO PUSH2 0x43E JUMPI POP DUP2 SLOAD PUSH32 0xD647759A2F3297CBA8E32E398356F87D2583ECAAAD1741FC2D5F7D67FD861984 SWAP3 SWAP2 PUSH2 0x43A SWAP2 PUSH2 0x430 SWAP1 PUSH1 0x7 SWAP1 PUSH1 0x1 PUSH1 0x1 PUSH1 0xA0 SHL SUB AND SWAP5 PUSH1 0x0 DUP1 DUP1 SWAP8 DUP2 SWAP5 DUP3 SWAP5 ADD SLOAD SWAP1 GAS CALL PUSH2 0x42A PUSH2 0xF13 JUMP JUMPDEST POP PUSH2 0xF43 JUMP JUMPDEST DUP1 SLOAD PUSH1 0xFF NOT AND SWAP1 SSTORE JUMP JUMPDEST DUP1 LOG2 STOP JUMPDEST PUSH1 0x2 SWAP2 SWAP3 SWAP4 POP PUSH2 0x44D DUP2 PUSH2 0x607 JUMP JUMPDEST EQ DUP1 PUSH2 0x486 JUMPI JUMPDEST PUSH2 0x45A JUMPI STOP JUMPDEST PUSH2 0x259 PUSH1 0x0 DUP1 DUP1 DUP1 PUSH2 0x479 DUP8 PUSH1 0x8 PUSH1 0x7 PUSH2 0x484 SWAP11 ADD SLOAD SWAP2 ADD SLOAD SWAP1 PUSH2 0xDBC JUMP JUMPDEST CALLER GAS CALL PUSH2 0x42A PUSH2 0xF13 JUMP JUMPDEST STOP JUMPDEST POP PUSH1 0xC DUP3 ADD SLOAD TIMESTAMP LT ISZERO PUSH2 0x454 JUMP JUMPDEST POP PUSH1 0xC DUP4 ADD SLOAD TIMESTAMP LT ISZERO PUSH2 0x3D4 JUMP JUMPDEST SWAP1 PUSH1 0x1 DUP3 DUP2 SHR SWAP3 AND DUP1 ISZERO PUSH2 0x4D2 JUMPI JUMPDEST PUSH1 0x20 DUP4 LT EQ PUSH2 0x4BC JUMPI JUMP JUMPDEST PUSH4 0x4E487B71 PUSH1 0xE0 SHL PUSH1 0x0 MSTORE PUSH1 0x22 PUSH1 0x4 MSTORE PUSH1 0x24 PUSH1 0x0 REVERT JUMPDEST SWAP2 PUSH1 0x7F AND SWAP2 PUSH2 0x4B1 JUMP JUMPDEST PUSH4 0x4E487B71 PUSH1 0xE0 SHL PUSH1 0x0 MSTORE PUSH1 0x41 PUSH1 0x4 MSTORE PUSH1 0x24 PUSH1 0x0 REVERT JUMPDEST SWAP1 PUSH1 0x1F DUP1 NOT SWAP2 ADD AND DUP2 ADD SWAP1 DUP2 LT PUSH8 0xFFFFFFFFFFFFFFFF DUP3 GT OR PUSH2 0x514 JUMPI PUSH1 0x40 MSTORE JUMP JUMPDEST PUSH2 0x4DC JUMP JUMPDEST SWAP1 PUSH1 0x40 MLOAD SWAP2 DUP3 PUSH1 0x0 DUP3 SLOAD SWAP3 PUSH2 0x52D DUP5 PUSH2 0x4A2 JUMP JUMPDEST SWAP1 DUP2 DUP5 MSTORE PUSH1 0x1 SWAP5 DUP6 DUP2 AND SWAP1 DUP2 PUSH1 0x0 EQ PUSH2 0x59C JUMPI POP PUSH1 0x1 EQ PUSH2 0x559 JUMPI JUMPDEST POP POP PUSH2 0x557 SWAP3 POP SUB DUP4 PUSH2 0x4F2 JUMP JUMPDEST JUMP JUMPDEST SWAP1 SWAP4 SWAP2 POP PUSH1 0x0 MSTORE PUSH1 0x20 SWAP1 DUP2 PUSH1 0x0 KECCAK256 SWAP4 PUSH1 0x0 SWAP2 JUMPDEST DUP2 DUP4 LT PUSH2 0x584 JUMPI POP POP PUSH2 0x557 SWAP4 POP DUP3 ADD ADD CODESIZE DUP1 PUSH2 0x549 JUMP JUMPDEST DUP6 SLOAD DUP9 DUP5 ADD DUP6 ADD MSTORE SWAP5 DUP6 ADD SWAP5 DUP8 SWAP5 POP SWAP2 DUP4 ADD SWAP2 PUSH2 0x56C JUMP JUMPDEST SWAP2 POP POP PUSH2 0x557 SWAP5 POP PUSH1 0x20 SWAP3 POP PUSH1 0xFF NOT AND DUP3 DUP5 ADD MSTORE ISZERO ISZERO PUSH1 0x5 SHL DUP3 ADD ADD CODESIZE DUP1 PUSH2 0x549 JUMP JUMPDEST PUSH1 0x0 JUMPDEST DUP4 DUP2 LT PUSH2 0x5D2 JUMPI POP POP PUSH1 0x0 SWAP2 ADD MSTORE JUMP JUMPDEST DUP2 DUP2 ADD MLOAD DUP4 DUP3 ADD MSTORE PUSH1 0x20 ADD PUSH2 0x5C2 JUMP JUMPDEST SWAP1 PUSH1 0x20 SWAP2 PUSH2 0x5FB DUP2 MLOAD DUP1 SWAP3 DUP2 DUP6 MSTORE DUP6 DUP1 DUP7 ADD SWAP2 ADD PUSH2 0x5BF JUMP JUMPDEST PUSH1 0x1F ADD PUSH1 0x1F NOT AND ADD ADD SWAP1 JUMP JUMPDEST PUSH1 0x5 GT ISZERO PUSH2 0x611 JUMPI JUMP JUMPDEST PUSH4 0x4E487B71 PUSH1 0xE0 SHL PUSH1 0x0 MSTORE PUSH1 0x21 PUSH1 0x4 MSTORE PUSH1 0x24 PUSH1 0x0 REVERT JUMPDEST SWAP1 PUSH1 0x5 DUP3 LT ISZERO PUSH2 0x611 JUMPI MSTORE JUMP JUMPDEST SWAP11 SWAP7 SWAP1 SWAP6 PUSH2 0x1A0 SWAP13 SWAP16 SWAP15 SWAP14 SWAP11 SWAP5 SWAP6 PUSH2 0x6B7 SWAP10 SWAP7 PUSH1 0x60 DUP15 PUSH2 0x6C3 SWAP14 SWAP8 PUSH2 0x68E SWAP8 PUSH2 0x667 DUP4 PUSH2 0x6A8 SWAP15 PUSH1 0x1 DUP1 PUSH1 0xA0 SHL SUB AND SWAP1 MSTORE JUMP JUMPDEST PUSH1 0x20 DUP4 ADD MSTORE PUSH1 0x40 DUP3 ADD MSTORE ADD MSTORE PUSH1 0x80 DUP14 ADD MSTORE PUSH1 0xA0 DUP13 ADD MSTORE PUSH2 0x1C0 DUP1 PUSH1 0xC0 DUP14 ADD MSTORE DUP12 ADD SWAP1 PUSH2 0x5E2 JUMP JUMPDEST SWAP3 PUSH1 0xE0 DUP11 ADD MSTORE PUSH2 0x100 DUP10 ADD MSTORE DUP8 DUP3 SUB PUSH2 0x120 DUP10 ADD MSTORE PUSH2 0x5E2 JUMP JUMPDEST SWAP1 DUP6 DUP3 SUB PUSH2 0x140 DUP8 ADD MSTORE PUSH2 0x5E2 JUMP JUMPDEST SWAP7 PUSH2 0x160 DUP5 ADD SWAP1 PUSH2 0x627 JUMP JUMPDEST PUSH2 0x180 DUP3 ADD MSTORE ADD MSTORE JUMP JUMPDEST CALLVALUE PUSH2 0x158 JUMPI PUSH1 0x20 CALLDATASIZE PUSH1 0x3 NOT ADD SLT PUSH2 0x158 JUMPI PUSH1 0x4 CALLDATALOAD PUSH1 0x0 SWAP1 DUP2 MSTORE PUSH1 0x20 DUP2 SWAP1 MSTORE PUSH1 0x40 SWAP1 KECCAK256 DUP1 SLOAD PUSH1 0x1 PUSH1 0x1 PUSH1 0xA0 SHL SUB AND PUSH2 0x76F PUSH1 0x1 DUP4 ADD SLOAD SWAP3 PUSH1 0x2 DUP2 ADD SLOAD SWAP1 PUSH1 0x3 DUP2 ADD SLOAD PUSH1 0x4 DUP3 ADD SLOAD PUSH1 0x5 DUP4 ADD SLOAD PUSH2 0x724 PUSH1 0x6 DUP6 ADD PUSH2 0x519 JUMP JUMPDEST PUSH1 0x7 DUP6 ADD SLOAD PUSH1 0x8 DUP7 ADD SLOAD SWAP2 PUSH2 0x73B PUSH1 0x9 DUP9 ADD PUSH2 0x519 JUMP JUMPDEST SWAP4 PUSH2 0x748 PUSH1 0xA DUP10 ADD PUSH2 0x519 JUMP JUMPDEST SWAP6 PUSH2 0x757 PUSH1 0xB DUP11 ADD SLOAD PUSH1 0xFF AND SWAP1 JUMP JUMPDEST SWAP8 PUSH1 0xD PUSH1 0xC DUP12 ADD SLOAD SWAP11 ADD SLOAD SWAP11 PUSH1 0x40 MLOAD SWAP15 DUP16 SWAP15 DUP16 PUSH2 0x634 JUMP JUMPDEST SUB SWAP1 RETURN JUMPDEST CALLVALUE PUSH2 0x158 JUMPI PUSH1 0x0 CALLDATASIZE PUSH1 0x3 NOT ADD SLT PUSH2 0x158 JUMPI PUSH1 0x20 PUSH1 0x40 MLOAD PUSH3 0x15180 DUP2 MSTORE RETURN JUMPDEST CALLVALUE PUSH2 0x158 JUMPI PUSH1 0x0 CALLDATASIZE PUSH1 0x3 NOT ADD SLT PUSH2 0x158 JUMPI PUSH1 0x20 PUSH1 0x40 MLOAD PUSH2 0xE10 DUP2 MSTORE RETURN JUMPDEST CALLVALUE PUSH2 0x158 JUMPI PUSH1 0x40 DUP1 PUSH1 0x3 NOT CALLDATASIZE ADD SLT PUSH2 0x158 JUMPI PUSH1 0x4 CALLDATALOAD PUSH1 0x0 DUP2 DUP2 MSTORE PUSH1 0x20 DUP2 SWAP1 MSTORE DUP3 DUP2 KECCAK256 SLOAD SWAP1 SWAP3 PUSH1 0x24 CALLDATALOAD SWAP2 PUSH1 0x1 PUSH1 0x1 PUSH1 0xA0 SHL SUB AND CALLER SUB PUSH2 0x8DE JUMPI PUSH2 0x7FA DUP4 PUSH1 0x0 MSTORE PUSH1 0x0 PUSH1 0x20 MSTORE PUSH1 0x40 PUSH1 0x0 KECCAK256 SWAP1 JUMP JUMPDEST SWAP2 PUSH1 0xB DUP4 ADD SWAP2 PUSH2 0x81F PUSH1 0x2 PUSH2 0x810 DUP6 SLOAD PUSH1 0xFF AND SWAP1 JUMP JUMPDEST PUSH2 0x819 DUP2 PUSH2 0x607 JUMP JUMPDEST EQ PUSH2 0xDC9 JUMP JUMPDEST PUSH1 0xC DUP5 ADD PUSH2 0x82F DUP2 SLOAD TIMESTAMP LT PUSH2 0xE06 JUMP JUMPDEST PUSH1 0x20 DUP8 PUSH2 0x864 DUP5 MLOAD PUSH2 0x859 DUP2 PUSH2 0x84B DUP10 DUP8 DUP4 ADD PUSH1 0x20 SWAP2 DUP2 MSTORE ADD SWAP1 JUMP JUMPDEST SUB PUSH1 0x1F NOT DUP2 ADD DUP4 MSTORE DUP3 PUSH2 0x4F2 JUMP JUMPDEST DUP6 MLOAD SWAP2 DUP3 DUP1 SWAP3 PUSH2 0xE46 JUMP JUMPDEST SUB SWAP1 PUSH1 0x2 GAS STATICCALL ISZERO PUSH2 0x8D9 JUMPI PUSH2 0x8BA PUSH2 0x8D3 SWAP5 DUP5 PUSH1 0xD PUSH32 0x27DAB582AEEF75FDCE1556A84A50B7519C2290C2CF937F04F6EF8E2A63E2ED61 SWAP9 PUSH2 0x8AB DUP13 MLOAD PUSH1 0x4 DUP4 ADD SLOAD EQ PUSH2 0xE69 JUMP JUMPDEST ADD SSTORE DUP1 SLOAD PUSH1 0xFF NOT AND PUSH1 0x3 OR SWAP1 SSTORE JUMP JUMPDEST PUSH2 0x8C3 TIMESTAMP PUSH2 0xDAD JUMP JUMPDEST SWAP1 SSTORE MLOAD SWAP1 DUP2 MSTORE SWAP1 DUP2 SWAP1 PUSH1 0x20 DUP3 ADD SWAP1 JUMP JUMPDEST SUB SWAP1 LOG2 DUP1 RETURN JUMPDEST PUSH2 0xE5D JUMP JUMPDEST MLOAD PUSH3 0x461BCD PUSH1 0xE5 SHL DUP2 MSTORE PUSH1 0x20 PUSH1 0x4 DUP3 ADD MSTORE PUSH1 0xA PUSH1 0x24 DUP3 ADD MSTORE PUSH10 0x2737BA1039B2B63632B9 PUSH1 0xB1 SHL PUSH1 0x44 DUP3 ADD MSTORE PUSH1 0x64 SWAP1 REVERT JUMPDEST ISZERO PUSH2 0x915 JUMPI JUMP JUMPDEST PUSH1 0x40 MLOAD PUSH3 0x461BCD PUSH1 0xE5 SHL DUP2 MSTORE PUSH1 0x20 PUSH1 0x4 DUP3 ADD MSTORE PUSH1 0xE PUSH1 0x24 DUP3 ADD MSTORE PUSH14 0x105B1C9958591E481B1A5CDD1959 PUSH1 0x92 SHL PUSH1 0x44 DUP3 ADD MSTORE PUSH1 0x64 SWAP1 REVERT JUMPDEST PUSH1 0x40 MLOAD SWAP1 PUSH2 0x1C0 DUP3 ADD DUP3 DUP2 LT PUSH8 0xFFFFFFFFFFFFFFFF DUP3 GT OR PUSH2 0x514 JUMPI PUSH1 0x40 MSTORE JUMP JUMPDEST PUSH8 0xFFFFFFFFFFFFFFFF DUP2 GT PUSH2 0x514 JUMPI PUSH1 0x1F ADD PUSH1 0x1F NOT AND PUSH1 0x20 ADD SWAP1 JUMP JUMPDEST SWAP3 SWAP2 SWAP3 PUSH2 0x994 DUP3 PUSH2 0x96C JUMP JUMPDEST SWAP2 PUSH2 0x9A2 PUSH1 0x40 MLOAD SWAP4 DUP5 PUSH2 0x4F2 JUMP JUMPDEST DUP3 SWAP5 DUP2 DUP5 MSTORE DUP2 DUP4 ADD GT PUSH2 0x158 JUMPI DUP3 DUP2 PUSH1 0x20 SWAP4 DUP5 PUSH1 0x0 SWAP7 ADD CALLDATACOPY ADD ADD MSTORE JUMP JUMPDEST SWAP1 PUSH1 0x1F DUP2 GT PUSH2 0x9CD JUMPI POP POP POP JUMP JUMPDEST PUSH1 0x0 SWAP2 DUP3 MSTORE PUSH1 0x20 DUP3 KECCAK256 SWAP1 PUSH1 0x20 PUSH1 0x1F DUP6 ADD PUSH1 0x5 SHR DUP4 ADD SWAP5 LT PUSH2 0xA09 JUMPI JUMPDEST PUSH1 0x1F ADD PUSH1 0x5 SHR ADD SWAP2 JUMPDEST DUP3 DUP2 LT PUSH2 0x9FE JUMPI POP POP POP JUMP JUMPDEST DUP2 DUP2 SSTORE PUSH1 0x1 ADD PUSH2 0x9F2 JUMP JUMPDEST SWAP1 SWAP3 POP DUP3 SWAP1 PUSH2 0x9E9 JUMP JUMPDEST SWAP2 SWAP1 SWAP2 DUP3 MLOAD PUSH8 0xFFFFFFFFFFFFFFFF DUP2 GT PUSH2 0x514 JUMPI PUSH2 0xA3B DUP2 PUSH2 0xA35 DUP5 SLOAD PUSH2 0x4A2 JUMP JUMPDEST DUP5 PUSH2 0x9BF JUMP JUMPDEST PUSH1 0x20 DUP1 PUSH1 0x1F DUP4 GT PUSH1 0x1 EQ PUSH2 0xA77 JUMPI POP DUP2 SWAP3 SWAP4 SWAP5 PUSH1 0x0 SWAP3 PUSH2 0xA6C JUMPI JUMPDEST POP POP DUP2 PUSH1 0x1 SHL SWAP2 PUSH1 0x0 NOT SWAP1 PUSH1 0x3 SHL SHR NOT AND OR SWAP1 SSTORE JUMP JUMPDEST ADD MLOAD SWAP1 POP CODESIZE DUP1 PUSH2 0xA56 JUMP JUMPDEST SWAP1 PUSH1 0x1F NOT DUP4 AND SWAP6 PUSH2 0xA8D DUP6 PUSH1 0x0 MSTORE PUSH1 0x20 PUSH1 0x0 KECCAK256 SWAP1 JUMP JUMPDEST SWAP3 PUSH1 0x0 SWAP1 JUMPDEST DUP9 DUP3 LT PUSH2 0xACA JUMPI POP POP DUP4 PUSH1 0x1 SWAP6 SWAP7 SWAP8 LT PUSH2 0xAB1 JUMPI JUMPDEST POP POP POP DUP2 SHL ADD SWAP1 SSTORE JUMP JUMPDEST ADD MLOAD PUSH1 0x0 NOT PUSH1 0xF8 DUP5 PUSH1 0x3 SHL AND SHR NOT AND SWAP1 SSTORE CODESIZE DUP1 DUP1 PUSH2 0xAA7 JUMP JUMPDEST DUP1 PUSH1 0x1 DUP6 SWAP7 DUP3 SWAP5 SWAP7 DUP7 ADD MLOAD DUP2 SSTORE ADD SWAP6 ADD SWAP4 ADD SWAP1 PUSH2 0xA92 JUMP JUMPDEST SWAP1 PUSH1 0x5 DUP2 LT ISZERO PUSH2 0x611 JUMPI PUSH1 0xFF DUP1 NOT DUP4 SLOAD AND SWAP2 AND OR SWAP1 SSTORE JUMP JUMPDEST DUP2 MLOAD DUP2 SLOAD PUSH1 0x1 PUSH1 0x1 PUSH1 0xA0 SHL SUB NOT AND PUSH1 0x1 PUSH1 0x1 PUSH1 0xA0 SHL SUB SWAP1 SWAP2 AND OR DUP2 SSTORE SWAP1 PUSH1 0xD SWAP1 PUSH2 0x1A0 SWAP1 PUSH1 0x20 DUP2 ADD MLOAD PUSH1 0x1 DUP6 ADD SSTORE PUSH1 0x40 DUP2 ADD MLOAD PUSH1 0x2 DUP6 ADD SSTORE PUSH1 0x60 DUP2 ADD MLOAD PUSH1 0x3 DUP6 ADD SSTORE PUSH1 0x80 DUP2 ADD MLOAD PUSH1 0x4 DUP6 ADD SSTORE PUSH1 0xA0 DUP2 ADD MLOAD PUSH1 0x5 DUP6 ADD SSTORE PUSH2 0xB61 PUSH1 0xC0 DUP3 ADD MLOAD PUSH1 0x6 DUP7 ADD PUSH2 0xA13 JUMP JUMPDEST PUSH1 0xE0 DUP2 ADD MLOAD PUSH1 0x7 DUP6 ADD SSTORE PUSH2 0x100 DUP2 ADD MLOAD PUSH1 0x8 DUP6 ADD SSTORE PUSH2 0xB88 PUSH2 0x120 DUP3 ADD MLOAD PUSH1 0x9 DUP7 ADD PUSH2 0xA13 JUMP JUMPDEST PUSH2 0xB9A PUSH2 0x140 DUP3 ADD MLOAD PUSH1 0xA DUP7 ADD PUSH2 0xA13 JUMP JUMPDEST PUSH2 0xBB5 PUSH2 0x160 DUP3 ADD MLOAD PUSH2 0xBAC DUP2 PUSH2 0x607 JUMP JUMPDEST PUSH1 0xB DUP7 ADD PUSH2 0xAE2 JUMP JUMPDEST PUSH2 0x180 DUP2 ADD MLOAD PUSH1 0xC DUP6 ADD SSTORE ADD MLOAD SWAP2 ADD SSTORE JUMP JUMPDEST SWAP11 SWAP6 SWAP1 SWAP9 SWAP3 SWAP7 PUSH2 0xC59 SWAP6 PUSH2 0xC66 SWAP10 SWAP6 PUSH2 0xC9D SWAP13 SWAP10 PUSH2 0xC40 SWAP6 DUP16 PUSH2 0xC04 PUSH1 0xB PUSH2 0xBFC PUSH2 0xC13 SWAP4 PUSH1 0x0 MSTORE PUSH1 0x0 PUSH1 0x20 MSTORE PUSH1 0x40 PUSH1 0x0 KECCAK256 SWAP1 JUMP JUMPDEST ADD SLOAD PUSH1 0xFF AND SWAP1 JUMP JUMPDEST PUSH2 0xC0D DUP2 PUSH2 0x607 JUMP JUMPDEST ISZERO PUSH2 0x90E JUMP JUMPDEST PUSH1 0x40 PUSH2 0xC1D PUSH2 0x94B JUMP JUMPDEST CALLER DUP2 MSTORE SWAP15 DUP16 SWAP1 PUSH1 0x20 DUP3 ADD MSTORE ADD MSTORE PUSH1 0x60 DUP14 ADD MSTORE PUSH1 0x80 DUP13 ADD MSTORE PUSH1 0xA0 DUP12 ADD MSTORE CALLDATASIZE SWAP2 PUSH2 0x988 JUMP JUMPDEST PUSH1 0xC0 DUP9 ADD MSTORE CALLVALUE PUSH1 0xE0 DUP9 ADD MSTORE CALLVALUE PUSH2 0x100 DUP9 ADD MSTORE CALLDATASIZE SWAP2 PUSH2 0x988 JUMP JUMPDEST PUSH2 0x120 DUP6 ADD MSTORE CALLDATASIZE SWAP2 PUSH2 0x988 JUMP JUMPDEST PUSH2 0x140 DUP3 ADD MSTORE PUSH1 0x1 PUSH2 0x160 DUP3 ADD MSTORE PUSH1 0x0 PUSH2 0x180 DUP3 ADD MSTORE PUSH1 0x0 PUSH2 0x1A0 DUP3 ADD MSTORE PUSH2 0xC98 DUP4 PUSH1 0x0 MSTORE PUSH1 0x0 PUSH1 0x20 MSTORE PUSH1 0x40 PUSH1 0x0 KECCAK256 SWAP1 JUMP JUMPDEST PUSH2 0xAFA JUMP JUMPDEST PUSH1 0x40 DUP1 MLOAD CALLVALUE DUP1 DUP3 MSTORE PUSH1 0x20 DUP3 ADD MSTORE CALLER SWAP3 SWAP2 PUSH32 0xF7D501A20CCB63A4A022A8EAAF50DA017591D3367DB55D118EC5AC1BD79CAF41 SWAP2 LOG3 JUMP JUMPDEST ISZERO PUSH2 0xCD9 JUMPI JUMP JUMPDEST PUSH1 0x40 MLOAD PUSH3 0x461BCD PUSH1 0xE5 SHL DUP2 MSTORE PUSH1 0x20 PUSH1 0x4 DUP3 ADD MSTORE PUSH1 0xA PUSH1 0x24 DUP3 ADD MSTORE PUSH10 0x4E6F7420616374697665 PUSH1 0xB0 SHL PUSH1 0x44 DUP3 ADD MSTORE PUSH1 0x64 SWAP1 REVERT JUMPDEST ISZERO PUSH2 0xD12 JUMPI JUMP JUMPDEST PUSH1 0x40 MLOAD PUSH3 0x461BCD PUSH1 0xE5 SHL DUP2 MSTORE PUSH1 0x20 PUSH1 0x4 DUP3 ADD MSTORE PUSH1 0x11 PUSH1 0x24 DUP3 ADD MSTORE PUSH17 0x125B98DBDC9C9958DD081C185E5B595B9D PUSH1 0x7A SHL PUSH1 0x44 DUP3 ADD MSTORE PUSH1 0x64 SWAP1 REVERT JUMPDEST ISZERO PUSH2 0xD52 JUMPI JUMP JUMPDEST PUSH1 0x40 MLOAD PUSH3 0x461BCD PUSH1 0xE5 SHL DUP2 MSTORE PUSH1 0x20 PUSH1 0x4 DUP3 ADD MSTORE PUSH1 0xD PUSH1 0x24 DUP3 ADD MSTORE PUSH13 0x24B73B30B634B210383937B7B3 PUSH1 0x99 SHL PUSH1 0x44 DUP3 ADD MSTORE PUSH1 0x64 SWAP1 REVERT JUMPDEST SWAP1 PUSH3 0x15180 DUP3 ADD DUP1 SWAP3 GT PUSH2 0xD97 JUMPI JUMP JUMPDEST PUSH4 0x4E487B71 PUSH1 0xE0 SHL PUSH1 0x0 MSTORE PUSH1 0x11 PUSH1 0x4 MSTORE PUSH1 0x24 PUSH1 0x0 REVERT JUMPDEST SWAP1 PUSH2 0xE10 DUP3 ADD DUP1 SWAP3 GT PUSH2 0xD97 JUMPI JUMP JUMPDEST SWAP2 SWAP1 DUP3 ADD DUP1 SWAP3 GT PUSH2 0xD97 JUMPI JUMP JUMPDEST ISZERO PUSH2 0xDD0 JUMPI JUMP JUMPDEST PUSH1 0x40 MLOAD PUSH3 0x461BCD PUSH1 0xE5 SHL DUP2 MSTORE PUSH1 0x20 PUSH1 0x4 DUP3 ADD MSTORE PUSH1 0xE PUSH1 0x24 DUP3 ADD MSTORE PUSH14 0x139BDD0818DA185B1B195B99D959 PUSH1 0x92 SHL PUSH1 0x44 DUP3 ADD MSTORE PUSH1 0x64 SWAP1 REVERT JUMPDEST ISZERO PUSH2 0xE0D JUMPI JUMP JUMPDEST PUSH1 0x40 MLOAD PUSH3 0x461BCD PUSH1 0xE5 SHL DUP2 MSTORE PUSH1 0x20 PUSH1 0x4 DUP3 ADD MSTORE PUSH1 0x11 PUSH1 0x24 DUP3 ADD MSTORE PUSH17 0x10DA185B1B195B99D948195E1C1A5C9959 PUSH1 0x7A SHL PUSH1 0x44 DUP3 ADD MSTORE PUSH1 0x64 SWAP1 REVERT JUMPDEST SWAP1 PUSH2 0xE59 PUSH1 0x20 SWAP3 DUP3 DUP2 MLOAD SWAP5 DUP6 SWAP3 ADD PUSH2 0x5BF JUMP JUMPDEST ADD SWAP1 JUMP JUMPDEST PUSH1 0x40 MLOAD RETURNDATASIZE PUSH1 0x0 DUP3 RETURNDATACOPY RETURNDATASIZE SWAP1 REVERT JUMPDEST ISZERO PUSH2 0xE70 JUMPI JUMP JUMPDEST PUSH1 0x40 MLOAD PUSH3 0x461BCD PUSH1 0xE5 SHL DUP2 MSTORE PUSH1 0x20 PUSH1 0x4 DUP3 ADD MSTORE PUSH1 0xD PUSH1 0x24 DUP3 ADD MSTORE PUSH13 0x90C2E6D040DAD2E6DAC2E8C6D PUSH1 0x9B SHL PUSH1 0x44 DUP3 ADD MSTORE PUSH1 0x64 SWAP1 REVERT JUMPDEST ISZERO PUSH2 0xEAC JUMPI JUMP JUMPDEST PUSH1 0x40 MLOAD PUSH3 0x461BCD PUSH1 0xE5 SHL DUP2 MSTORE PUSH1 0x20 PUSH1 0x4 DUP3 ADD MSTORE PUSH1 0x16 PUSH1 0x24 DUP3 ADD MSTORE PUSH22 0x111A5CDC1D5D19481DDA5B991BDDC8195E1C1A5C9959 PUSH1 0x52 SHL PUSH1 0x44 DUP3 ADD MSTORE PUSH1 0x64 SWAP1 REVERT JUMPDEST PUSH1 0x20 DUP1 DUP3 MSTORE DUP2 ADD DUP4 SWAP1 MSTORE PUSH1 0x1 PUSH1 0x1 PUSH1 0xFB SHL SUB DUP4 GT PUSH2 0x158 JUMPI PUSH1 0x40 SWAP3 PUSH1 0x5 SHL DUP1 SWAP3 DUP5 DUP4 ADD CALLDATACOPY ADD ADD SWAP1 JUMP JUMPDEST RETURNDATASIZE ISZERO PUSH2 0xF3E JUMPI RETURNDATASIZE SWAP1 PUSH2 0xF24 DUP3 PUSH2 0x96C JUMP JUMPDEST SWAP2 PUSH2 0xF32 PUSH1 0x40 MLOAD SWAP4 DUP5 PUSH2 0x4F2 JUMP JUMPDEST DUP3 MSTORE RETURNDATASIZE PUSH1 0x0 PUSH1 0x20 DUP5 ADD RETURNDATACOPY JUMP JUMPDEST PUSH1 0x60 SWAP1 JUMP JUMPDEST ISZERO PUSH2 0x158 JUMPI JUMP JUMPDEST SWAP1 SWAP2 PUSH1 0x40 MLOAD SWAP3 PUSH2 0x300 SWAP1 DUP2 DUP6 ADD SWAP2 DUP6 DUP4 LT PUSH8 0xFFFFFFFFFFFFFFFF DUP5 GT OR PUSH2 0x514 JUMPI PUSH1 0x1F SWAP3 PUSH1 0x40 MSTORE CALLDATASIZE DUP7 CALLDATACOPY AND PUSH2 0xF91 JUMPI MLOAD DUP2 PUSH1 0x20 DUP3 SWAP4 MLOAD SWAP2 ADD PUSH1 0x8 GAS STATICCALL ISZERO PUSH2 0x158 JUMPI MLOAD ISZERO ISZERO SWAP1 JUMP JUMPDEST PUSH1 0x40 MLOAD PUSH3 0x461BCD PUSH1 0xE5 SHL DUP2 MSTORE PUSH1 0x20 PUSH1 0x4 DUP3 ADD MSTORE PUSH1 0x1F PUSH1 0x24 DUP3 ADD MSTORE PUSH32 0x696E707574206C656E677468206E6F74206D756C7469706C65206F6620333200 PUSH1 0x44 DUP3 ADD MSTORE PUSH1 0x64 SWAP1 REVERT INVALID LOG2 PUSH5 0x6970667358 0x22 SLT KECCAK256 PUSH8 0x145A859F1FBF8AA7 0xB2 0x24 CODESIZE 0x25 0xC1 0xBB 0x2E 0x5E 0x27 0xB3 DIV SLOAD 0xDD PUSH24 0x7AF79E7151CC1B02B64736F6C6343000814003300000000 "},"methodIdentifiers":{"CHALLENGE_WINDOW()":"d62aad29","DISPUTE_WINDOW()":"f585dc57","buy(bytes32,bytes32,bytes,bytes)":"71e79073","challenge(bytes32,uint256[],bytes[],bytes[])":"493bd03c","list(bytes32,bytes32,bytes32,uint256,bytes32,bytes32,bytes,bytes,bytes)":"0cf85277","listings(bytes32)":"c18b8db4","reveal(bytes32,bytes32)":"fc334e8c","settle(bytes32)":"987757dd"}}}}}