{
  "_format": "hh-sol-artifact-1",
  "contractName": "Groth16Verifier",
  "sourceName": "Verifier_zkp_nb500_tb5_m50.sol",
  "abi": [
    {
      "inputs": [
        {
          "internalType": "uint256[2]",
          "name": "_pA",
          "type": "uint256[2]"
        },
        {
          "internalType": "uint256[2][2]",
          "name": "_pB",
          "type": "uint256[2][2]"
        },
        {
          "internalType": "uint256[2]",
          "name": "_pC",
          "type": "uint256[2]"
        },
        {
          "internalType": "uint256[14]",
          "name": "_pubSignals",
          "type": "uint256[14]"
        }
      ],
      "name": "verifyProof",
      "outputs": [
        {
          "internalType": "bool",
          "name": "",
          "type": "bool"
        }
      ],
      "stateMutability": "view",
      "type": "function"
    }
  ],
  "bytecode": "0x6080806040523461001657610cb4908161001c8239f35b600080fdfe6080604052600436101561001257600080fd5b6000803560e01c638d15f88f1461002857600080fd5b34610125576102c03660031901126101255761004336610128565b3660c411610121576100543661013a565b90366102c41161011d57602092916101199161040060405261007861010435610148565b61008461012435610148565b61009061014435610148565b61009c61016435610148565b6100a861018435610148565b6100b46101a435610148565b6100c06101c435610148565b6100cc6101e435610148565b6100d861020435610148565b6100e461022435610148565b6100f061024435610148565b6100fc61026435610148565b61010861028435610148565b6101146102a435610148565b610906565b8152f35b8280fd5b5080fd5b80fd5b9060049160441161013557565b600080fd5b9060c4916101041161013557565b7f30644e72e131a029b85045b68181585d2833e84879b9709143e1f593f0000001111561017157565b6000805260206000f35b604051907f278e32b81123aa32e0b89b56194642a5039d31282d01e750c87373c05b19994f82527f2679283d8ea49cc0b8a81d16737501489c9c056b8d7cd27bc1cea8fc0cd2c5656020830152604082019081526107cf196040836060816007855a01fa156101715760409260066080939284938451905260a05160608401525a01fa1561017157565b604051907f0b2631de4557b222053c72799e22f1e145510c6b3df7f4f0d744e7a7f0ff552982527f122067a80c5fb3300f31199f23e65639c564fce9f4529b64ae7e795f8d53e2936020830152604082019081526107cf196040836060816007855a01fa156101715760409260066080939284938451905260a05160608401525a01fa1561017157565b604051907f0f3963aa4d8ac952d5ec826636f0ef3cc94f64880d967bbab5191708a02d5af182527ed77d42eb0eca49c464459fad61d19c2364bbcd833845ffb602bb8030c032ac6020830152604082019081526107cf196040836060816007855a01fa156101715760409260066080939284938451905260a05160608401525a01fa1561017157565b604051907f18d53ab042752964da96068542ae766f1bff9d85898225202278fc7a8d746b5082527f186b3d2c1d1dd1098df60b5575611f3786703942230c22266855d43a677709446020830152604082019081526107cf196040836060816007855a01fa156101715760409260066080939284938451905260a05160608401525a01fa1561017157565b604051907f24e22fdd18545335aa0dbb7e8e97093e6e048484ac91cc6946cb348b1c0049b782527f15ac64b0a73b84fe8e1debc45017cc93be38edde9ae6ab9a6176a335567b4bbd6020830152604082019081526107cf196040836060816007855a01fa156101715760409260066080939284938451905260a05160608401525a01fa1561017157565b604051907f067f2572fbaf2f1177edb24d26c7041f58d730e0ba56bf9c732983ffdaaa8a1382527f0962d41bd971c0aaf25b64589160888fde20b5f5da12110ed9075d0d5d5c57fa6020830152604082019081526107cf196040836060816007855a01fa156101715760409260066080939284938451905260a05160608401525a01fa1561017157565b604051907f1848e4e7546a1436e80f37c29b43a13fe9ab6c0194c7dc3747698a1672900db482527f27511d1bc26c944ccae5e69af5aa7e0b6d3907a25b23547482f32230a0fe3e6f6020830152604082019081526107cf196040836060816007855a01fa156101715760409260066080939284938451905260a05160608401525a01fa1561017157565b604051907f30160952d9b708b3d1b0034670e47d20598709625a85c148a1986d068606069c82527f1bac696e8a848306cdde84bd958092b2c1da783cc1ddf98f2072c301c41ad4d76020830152604082019081526107cf196040836060816007855a01fa156101715760409260066080939284938451905260a05160608401525a01fa1561017157565b604051907f0b39072bec869b258c7f1761c070919d3f18c2b127ac94e9df929742d5a8213f82527f1a5c0762bde8dc9a61fb696bb72bed547be82e11b30a9416a260e844f760da836020830152604082019081526107cf196040836060816007855a01fa156101715760409260066080939284938451905260a05160608401525a01fa1561017157565b604051907f18489854b26c31f294059b88b62766568248a5ea42e79fa89972f96aa063f3e882527f01e214ba31a6d4e5b3387500cae4cd2a6ca8443a50ebf0fad5192bfd427c94c36020830152604082019081526107cf196040836060816007855a01fa156101715760409260066080939284938451905260a05160608401525a01fa1561017157565b604051907f0f685d36439db94868007ad679ad4c96268f9826fe2c742e6e353ca835ea79e182527f1fb4bd8b126eec3bb837bc161cbdec26e462326b0fbd03ca562ad1f600c260cc6020830152604082019081526107cf196040836060816007855a01fa156101715760409260066080939284938451905260a05160608401525a01fa1561017157565b604051907f18c682cf147a33c84cc329feaa7ee97510aced55499a8e6a624e33f2f245fc9f82527f05a263dd525dde1e17d311d5e3181f097b06b7a17549a236ff58a07590f673a06020830152604082019081526107cf196040836060816007855a01fa156101715760409260066080939284938451905260a05160608401525a01fa1561017157565b604051907f0f52ef516effffd077ddad2d8ba64d6369f86a19b96fd422b0cbb97eab2d427c82527f24aa4e103b71a38304ce2c33981afcff9aa2e1b5ce0092a828301d68e4caf1fd6020830152604082019081526107cf196040836060816007855a01fa156101715760409260066080939284938451905260a05160608401525a01fa1561017157565b604051907f07e1d249a45aae48721161b2e93446da0eff9b44fbfb9d33e5e893fbfa5e5c0182527f244cd76fb118252c8811760de18fde4408fd3df8b94fd6be21ed25c0cf75a5036020830152604082019081526107cf196040836060816007855a01fa156101715760409260066080939284938451905260a05160608401525a01fa1561017157565b6020907f2343c45dfe7e35aa26dbc7d4f6985ac3154b581be6e51f0aa543af68aebe922a6080527f0bc191ec3f0c074c99d4d40b85e6ce6bf4b5d5892fc0da2c3d0047eff717364c60a05261095d6101043561017b565b61096961012435610205565b6109756101443561028f565b61098161016435610318565b61098d610184356103a2565b6109996101a43561042c565b6109a56101c4356104b6565b6109b16101e435610540565b6109bd610204356105ca565b6109c961022435610654565b6109d5610244356106de565b6109e161026435610768565b6109ed610284356107f2565b6109f96102a43561087c565b61010092818492358352837f30644e72e131a029b85045b68181585d97816a916871ca8d3c208c16d87cfd479101358103066101205260443561014052606435610160526084356101805260a4356101a0527f0f3627249c9e87994305e92844213d29794ae3eeb90a6612932cee913afbec8d6101c0527f0c7f49704d6ca69fc97bb698c6cdc61f22a826399448de48f4c88c044b7332286101e0527f26c971a7fa7cb9a7a816d7ba5bd16e45a94f371820da3fea7f868d214ced53cc610200527f1335e0e8e136f4bbdabacf371381ae6d6b09bba7cb434b80fd4bac131f47a03a610220527f1bf9c677a5db708bfb6eb8abc04e0774e5fcab442637beaa4b7a9ae389d9d0e3610240527f184639c5dc735ce675d70d0e6f97cf8a3c247023dc8dc317dc6c978506e392d7610260526080516102805260a0516102a0527f198e9393920d483a7260bfb731fb5d25f1aa493335a9e71297e485b7aef312c26102c0527f1800deef121f1e76426a00665e5c4479674322d4f75edadd46debd5cd992f6ed6102e05282610300917f090689d0585ff075ec9e99ad690c3395bc4b313370b38ef355acdadcd122975b83527f12c85ea5db8c6deb4aab71808dcb408fe3d1e7690c43d37b4ce6cc0166fa7daa610320528035610340520135610360527f1ed7ecbf6fec57dbe47a00d6acdcca6a4bd630e23957b1980575297fe06a0602610380527f14ec958e12541fce3c6501b4a01a1b91ead557d44f2b64370b505b1e15b913a26103a0527f241fd20dbcaa443c6cfe2a27891ba4d3d891e0fcbe211429ce3eb617ab51228c6103c0527f292a2af42f920812447f6006ca95cf417d0e51bce3a981752282d0a14c80968d6103e0528160086107cf195a01fa9051169056fea2646970667358221220c1950b54bc506dd180f6cc5a029704691424f8aea11e48af3cf68ea8739a696d64736f6c63430008140033",
  "linkReferences": {},
  "deployedLinkReferences": {}
}